:030000000216A441
:0C16A400787FE4F6D8FD7581210216EB7A
:101BB40048656C6C6F2C4543424D206973207275E7
:101BC4006E696E672061742025642074696D657385
:041BD4002E0D0A00C8
:101B0F00E4900000F012099D900000E004F07BFFCC
:101B1F007A1B79B4E0FF900005E4F0A3EFF07F03A8
:0C1B2F001217B97FE87E0312000380DC6F
:071C36004401300000000032
:10000300EF4E601A900128E0FCA3E0FDED1D7001A6
:0E0013001C144C70F7EF1F70011E144E70E6A7
:0100210022BC
:081C0B00900078E0FEA3E0FF69
:0A1C1300EF1FAC0670011E4C70F6C6
:011C1D0022A4
:101B8E00900128E0FCA3E0FD120918E47B83FAF92A
:101B9E00F81207AD90012C1208DB90012CE0C31354
:061BAE00FEA3E013FF227C
:101B3B0090012BE06599600AE599F0E490012AF099
:101B4B00800690012AE004F090012AE0C394E97426
:0C1B5B0080948040060075C760000022E6
:0B0026009000A8EBF0A3EAF0A3E9F0C3
:100031009001137401F0A37400F0A374ABF090006D
:10004100A8E0F9A3E0FAA3E090007AC9F0A3EAF0EE
:10005100A3E9F0900113E0F9A3E0FAA3E090007D99
:10006100C9F0A3EAF0A3E9F07B017A0079D3121970
:10007100C8900113E4F0A3F0A3F07B017A0079D3D7
:050081007F01021AD806
:10136700EF14601614602C14604D14606C14700335
:101377000213FB2405600302141E90FE02E0547E54
:101387004480F0E030E0F390FE00E054FCF090FE83
:1013970003807A90FE04E0547E4480F0E030E0F36E
:1013A70090FE00E054FC4403F090FE02E4F090FE4F
:1013B70008F090FE03F02290FE08E0547E4480F08F
:1013C700E030E0F390FE00E054FC4402F090FE04AD
:1013D700E4F090FE02F0A3F02290FE03E0543E44B6
:1013E70080F0E030E0F390FE00E054FC4401F09020
:1013F700FE02801990FE03E0543E44C0F0E030E066
:10140700F390FE00E054FC4401F090FE02E4F090FB
:08141700FE08F090FE04F02233
:0C1C1E00EF90FE01700304F022EFF022B2
:10099D0043BA80AF9FE4FCFDFEC004A905AA06ABD7
:1009AD000778FBE6FFD000C3EF9BFFEE9AFEED99B3
:1009BD00FDEC98FCE47BF07AD2F9F81207ADC3E4B4
:1009CD009FFF74369EFE746E9DFD74019CFC90001D
:1009DD00011208DB900001E0FCA3E0FDA3E0FEA303
:1009ED00E0FFC00790FE01E0FBE4FAF9F8D0071232
:1009FD0008389000011208DB7FC07EF67D577C0021
:100A0D00900001E0F8A3E0F9A3E0FAA3E0FBC31224
:100A1D0008CA500D9001301208E700546000020B17
:100A2D00CC7FC07E267D827C00900001E0F8A3E0A3
:100A3D00F9A3E0FAA3E0FBC31208CA500D900130F0
:100A4D001208E7005B8D80020BCC7F807EED7DAFC1
:100A5D007C00900001E0F8A3E0F9A3E0FAA3E0FB2D
:100A6D00C31208CA500D9001301208E700A8C0004B
:100A7D00020BCC7F807E2D7DE87C00900001E0F89C
:100A8D00A3E0F9A3E0FAA3E0FBC31208CA500D904E
:100A9D0001301208E700B71B00020BCC7F807E36B9
:100AAD007D257C01900001E0F8A3E0F9A3E0FAA315
:100ABD00E0FBC31208CA500D9001301208E701196E
:100ACD004000020BCC7F807E567D417C0190000161
:100ADD00E0F8A3E0F9A3E0FAA3E0FBC31208CA50C3
:100AED000D9001301208E701312D00020BCC7F0073
:100AFD007EDB7D5F7C01900001E0F8A3E0F9A3E0CF
:100B0D00FAA3E0FBC31208CA500D9001301208E79A
:100B1D0001518000020BCC7F607E197D857C019098
:100B2D000001E0F8A3E0F9A3E0FAA3E0FBC312088B
:100B3D00CA500D9001301208E7016E3600020BCC41
:100B4D007F207EE07DB27C01900001E0F8A3E0F90A
:100B5D00A3E0FAA3E0FBC31208CA500C90013012B7
:100B6D0008E7019BFCC080577FE07EA67DE07C01FD
:100B7D00900001E0F8A3E0F9A3E0FAA3E0FBC312B3
:100B8D0008CA500C9001301208E701C9C380802FAC
:100B9D007F607E2B7DFF7C01900001E0F8A3E0F9E2
:100BAD00A3E0FAA3E0FBC31208CA9001305009126A
:100BBD0008E701FA400080071208E702160EC0E4AC
:100BCD007B107A27F9F8900130E0FCA3E0FDA3E05B
:100BDD00FEA3E0FF120838900128EEF0A3EFF0E439
:0D0BED0090012BF090012AF01218D0D2AF29
:010BFA0022D8
:0B12A200900008EBF0A3EAF0A3E9F0D5
:1012AD007F647E00121B8E900078EEF0A3EFF0901D
:1012BD0000757401F0A37400F0A3740BF090000896
:1012CD00E0F9A3E0FAA3E090007AC9F0A3EAF0A355
:1012DD00E9F0900075E0F9A3E0FAA3E090007DC974
:1012ED00F0A3EAF0A3E9F07B017A0079351219C871
:1012FD00900033EEF0A3EFF0900075E4F0A3F0A3AF
:10130D00F07FF47E01120003E4FBFAD3900034E089
:10131D009B900033E09A40E9D2B1C2B1121C0B741C
:10132D00352BF58274003AF583E0F9E4FDEDC394B5
:10133D0008748094805014E930E004D2B18002C268
:10134D00B1E9C313F9121C0B0D80E2D2B1121C0BC3
:0A135D00121C0B0BBB00010A80B14B
:0B14C900900134EBF0A3EAF0A3E9F07F
:1014D400E4FFFE90013AF0A3F0A3F0A3F0900134EE
:1014E400E0FBA3E0FAA3E0F9120707607790013D5F
:1014F400E004F0700690013CE004F0900137E0FB5A
:10150400A3E0FAA3E0F98F828E83120720FD9001F5
:1015140034E0FBA3E0FAA3E0F9120707B505070FCF
:10152400BF00010E8012E4FEFF90013CE0FDA3E049
:1015340090013ACDF0A3EDF0900135E475F001127D
:101544000781900137E0FBA3E0FAA3E0F98F828ED4
:1015540083120720FD3395E04D708290013AE0FE3E
:08156400A3E0FF227EFF7FFFE0
:01156C00225C
:1010EB00E4900143F0900145F0900144F0900144ED
:1010FB00E0C3940A7480948040030211CDE07E001B
:10110B002DF582EE3CF583120720FF3395E0FEC3ED
:10111B00EF9430EE648094804052D3EF9437EE64BA
:10112B008094805047900145E004F0E06401701911
:10113B00900144E07E002DF582EE3CF583120720F2
:10114B0024D0C454F0900143F0900145E064027048
:10115B001B900144E07E002DF582EE3CF5831207D7
:10116B002024D0FF900143E04FFFF022900144E098
:10117B007E002DF582EE3CF583120720FF3395E0C0
:10118B00FEC3EF9438EE648094804011D3EF943912
:10119B00EE648094805006900145E004F090014489
:1011AB00E07E002DF582EE3CF583120720FF642CC8
:1011BB006010EF3395E04F6009900144E004F002BA
:0711CB0010F8900143E0FF62
:0111D20022FA
:0811D30090013EECF0A3EDF0E9
:1011DB00E4A3F0A3F0A3F0900142E0FFC3941474D6
:1011EB00809480400302129990013FE02FFF900101
:1011FB003EE034008F82F583120720FF3395E0FE2B
:10120B00C3EF9430EE648094804051D3EF9439EE69
:10121B00648094805046900140E0FEA3E0FF7C0088
:10122B007D0A12076F900140EEF0A3EFF0A3E0FFF1
:10123B0090013FE02FFF90013EE034008F82F58359
:10124B00120720FF3395E0FEEF24D0FFEE34FFFEB4
:10125B00900141E02FF0900140E03EF0900142E020
:10126B00FF90013FE02FFF90013EE034008F82F5AD
:10127B0083120720FF642C6015EF642E6010EF3390
:10128B0095E04F6009900142E004F00211E29001F9
:06129B0040E0FEA3E0FFAD
:0112A100222A
:100D9D00900116EBF0A3EAF0A3E9F0A3ECF0A3EDBC
:010DAD00F055
:100DAE00E4900122F0A3F0A3F0A3F0A3F0A3F0903F
:100DBE000120F0A3F0900119E0FEA3E0FF900120C6
:100DCE00E0FCA3E0FDC39FEC9E4003020E6D90017C
:100DDE001BE0FBA3E0FAA3E0F9900122E0FEA3E002
:100DEE00F5828E83120720FF900116E0FBA3E0FA36
:100DFE00A3E0F98D828C83120720B507339001236F
:100E0E00E004F07006900122E004F090011EE0FE76
:100E1E00A3E0FF900122E0B50631A3E0B5072C90C8
:100E2E000120E0FFA3E0900126CFF0A3EFF0802F8A
:100E3E00E4900122F0A3F0900121E02401FE900144
:100E4E0020E03400900124F0A3CEF0900121E004C4
:100E5E00F06003020DC3900120E004F0020DC39078
:100E6E000126E0FEA3E0FF900124E0FCA3E0FDD309
:100E7E009FEC9E5044900120ECF0A3EDF0900126E3
:100E8E00E0FEA3E0FF900120E0FCA3E0FDC39FEC99
:100E9E009E5023900116E0FBA3E0FAA3E0F98D82A9
:100EAE008C83E412074D900121E004F070CF900185
:0B0EBE0020E004F080C77F01227F00CD
:010EC9002206
:100BFB006770696F5F757070756C6C283C4425303D
:100C0B0032583E2C2564293BB2BBB4E6D4DAB8C3C8
:100C1B00494F0D0A006770696F5F757070756C6C6A
:100C2B00283C44253032583E2C31293BB2BBB4E62C
:100C3B00D4DAB8C3494F0D0A006770696F5F7570DE
:100C4B0070756C6C283C44253032583E2C30293B57
:100C5B00B2BBB4E6D4DAB8C3494F0D0A006770696A
:100C6B006F5F6D6F6465283C44253032583E2C25F0
:100C7B0064293BB2BBB4E6D4DAB8C3494F0D0A00C2
:100C8B006770696F5F6D6F64652844253032582C2F
:100C9B003C25643E293BB2BBB4E6D4DAB8C3C4A34B
:100CAB00CABD0D0A006770696F5F7772697465283A
:100CBB003C25643E2C2564293BB2BBB4E6D4DAB8A0
:100CCB00C350BFDA0D0A006770696F5F72656164AC
:100CDB00283C5025643E293BB2BBB4E6D4DAB8C3FA
:100CEB0050BFDA0D0A006770696F5F6F7574283C2F
:100CFB0044253032583E2C2564293BB2BBB4E6D494
:100D0B00DAB8C3494F0D0A006770696F5F6F75746E
:100D1B00283C44253032583E2C31293BB2BBB4E63B
:100D2B00D4DAB8C3494F0D0A006770696F5F6F75EE
:100D3B0074283C44253032583E2C30293BB2BBB48E
:100D4B00E6D4DAB8C3494F0D0A006770696F5F6963
:100D5B006E283C44253032583E293BB2BBB4E6D416
:100D6B00DAB8C3494F0D0A006770696F5F746F671C
:100D7B00676C65283C44253032583E293BB2BBB4E6
:100D8B00E6D4DAB8C3494F0D0A000102040810205B
:020D9B00408096
:0A0ECA00900147EDF0900146EFF0B3
:100ED40064887003020FDBE0FF54F0F50DEF540F4C
:100EE400FF900D9593F50ED3EF9407748094804092
:100EF400237BFF7A0B79FB900146E0FF90000BE423
:100F0400F0A3EFF0900147E0FF90000DE4F0A3EFB1
:100F1400F01212A2900147E06055E50D24F0602123
:100F240024F0602224F0602324F0602424F060255F
:100F340024F0602624F060272470702B90FE10802B
:100F44002190FE11801C90FE12801790FE138012D7
:100F540090FE14800D90FE15800890FE168003907C
:100F6400FE17E0450EF0227BFF7A0C79208058E5CD
:100F74000D24F0602124F0602224F0602324F0602A
:100F84002424F0602524F0602624F0602724707067
:100F94003090FE10802190FE11801C90FE1280176C
:100FA40090FE13801290FE14800D90FE1580089020
:100FB400FE16800390FE17E0FFE50EF4FEEF5EF0F0
:100FC400227BFF7A0C7944900146E0FF90000BE409
:070FD400F0A3EFF01212A2DE
:010FDB0022F3
:0A03F300900007EDF0900006EFF017
:1003FD0064887003020706E0FF54F0F50DEF540F0B
:10040D00FF900D9593F50ED3EF9407748094804073
:10041D00237BFF7A0C7968900006E0FF90000BE4D7
:10042D00F0A3EFF0900007E0FF90000DE4F0A3EFD4
:10043D00F01212A2E50D24F0602124F0602224F0C8
:10044D00602324F0602424F0602524F0602624F03D
:10045D00602724707028E4F50D8046750D018041EC
:10046D00750D02803C750D038037750D0480327556
:10047D000D05802D750D068028750D0780237BFFDA
:10048D007A0C7968900006E0FF90000BE4F0A3EF82
:10049D00F0900007E0FF90000DE4F0A3EFF01212D2
:1004AD00A2900007E0FFD3940374809480401C7BDE
:1004BD00FF7A0C798B900006E0FD90000BE4F0A321
:1004CD00EDF0A3E4F0A3EFF01212A2E50D70409051
:1004DD000007E0FF7E007007E50EF452935294EF93
:1004ED0064014E7009E50E4293E50EF452949000AE
:1004FD0007E064027008E50E4293E50E4294900009
:10050D0007E064037009E50EF45293E50E4294E59D
:10051D000D64017040900007E0FF7E007007E50E4E
:10052D00F452915292EF64014E7009E50E4291E53D
:10053D000EF45292900007E064027008E50E4291AD
:10054D00E50E4292900007E064037009E50EF45247
:10055D0091E50E4292E50D64027040900007E0FFB8
:10056D007E007007E50EF452955296EF64014E70C1
:10057D0009E50E4295E50EF45296900007E06402EF
:10058D007008E50E4295E50E4296900007E0640373
:10059D007009E50EF45295E50E4296E50D64037073
:1005AD0040900007E0FF7E007007E50EF452B15257
:1005BD00B2EF64014E7009E50E42B1E50EF452B290
:1005CD00900007E064027008E50E42B1E50E42B2FC
:1005DD00900007E064037009E50EF452B1E50E4298
:1005ED00B2E50D64047040900007E0FF7E007007D7
:1005FD00E50EF452B352B4EF64014E7009E50E42AC
:10060D00B3E50EF452B4900007E064027008E50EF5
:10061D0042B3E50E42B4900007E064037009E50EA5
:10062D00F452B3E50E42B4E50D6405704090000739
:10063D00E0FF7E007007E50EF452C952CAEF640167
:10064D004E7009E50E42C9E50EF452CA900007E05E
:10065D0064027008E50E42C9E50E42CA900007E03B
:10066D0064037009E50EF452C9E50E42CAE50D6446
:10067D00067040900007E0FF7E007007E50EF45213
:10068D00CB52CCEF64014E7009E50E42CBE50EF472
:10069D0052CC900007E064027008E50E42CBE50EE7
:1006AD0042CC900007E064037009E50EF452CBE5EF
:1006BD000E42CCE50D64077040900007E0FF7E0010
:1006CD007007E50EF452E152E2EF64014E7009E558
:1006DD000E42E1E50EF452E2900007E0640270086C
:1006ED00E50E42E1E50E42E2900007E06403700979
:0906FD00E50EF452E1E50E42E2C3
:0107060022D0
:10181F00EFB40900503A90182CF828287302184793
:10182F0002184A02184D0218500218530218560295
:10183F00185902185C0218788D80228D90228DA085
:10184F00228DB0228DC0228DC8228DE8228DF822E4
:10185F007BFF7A0C79B090000BE4F0A3EFF0AF05AB
:0A186F00A3E4F0A3EFF01212A2228E
:10187900EFB40900503D901886F82828730218A182
:101889000218A40218A70218AA0218AD0218B00279
:1018990018B30218B60218B9AF8022AF9022AFA0D0
:1018A90022AFB022AFC022AFC822AFE822AFF822E0
:1018B9007FFF227BFF7A0C79D290000BE4F0A3EF33
:0718C900F01212A27FFF22C2
:0A0FDC00900149EDF0900148EFF09C
:100FE600648870030210EAE0FF54F0F50DEF540F29
:100FF600FF900D9593F50ED3EF940774809480407F
:10100600237BFF7A0C79F1900148E0FF90000BE416
:10101600F0A3EFF0900149E0FF90000DE4F0A3EF9C
:10102600F01212A2900149E06052E50D24F0602111
:1010360024F0602224F0602324F0602424F060254C
:1010460024F0602624F0602724707028E50E428084
:1010560022E50E429022E50E42A022E50E42B02283
:10106600E50E42C022E50E42C822E50E42E822E520
:101076000E42F8227BFF7A0D79138058E50D24F095
:10108600602224F0602424F0602624F0602824F0F6
:10109600602A24F0602C24F0602E24707030E50E57
:1010A600F4528022E50EF4529022E50EF452A0226C
:1010B600E50EF452B022E50EF452C022E50EF452CB
:1010C600C822E50EF452E822E50EF452F8227BFF20
:1010D6007A0D7934900148E0FF90000BE4F0A3EF1D
:0410E600F01212A250
:0110EA0022E3
:05141F0090014AEFF00E
:1014240064887002FF2290014AE0FF54F0F50DEF4A
:10143400540FFF900D9593F50ED3EF940774809499
:101444008040167BFF7A0D795590014AE0FF9000A9
:101454000BE4F0A3EFF01212A2E50D24F0602124B6
:10146400F0602224F0602324F0602424F06025241A
:10147400F0602624F060272470702885800F80395E
:1014840085900F803485A00F802F85B00F802A852A
:10149400C00F802585C80F802085E80F801B85F844
:1014A4000F80167BFF7A0D795590014AE0FF90007A
:1014B4000BE4F0A3EFF01212A2E50F550E60037FC8
:0414C40001227F0082
:0114C8002201
:05156D0090014BEFF0BE
:1015720064887003021609E0FF54F0F50DEF540F72
:10158200FF900D9593F50ED3EF94077480948040ED
:10159200167BFF7A0D797390014BE0FF90000BE40C
:1015A200F0A3EFF01212A2E50D24F0602124F06006
:1015B2002224F0602324F0602424F0602524F060CB
:1015C2002624F0602724707028E50E628022E50E42
:1015D200629022E50E62A022E50E62B022E50E6262
:1015E200C022E50E62C822E50E62E822E50E62F82C
:1015F200227BFF7A0D797390014BE0FF90000BE4A0
:07160200F0A3EFF01212A2A9
:0116090022BE
:101A5900EFB40800503E901A66F8282873021A7EDF
:101A6900021A82021A86021A8A021A8E021A92022D
:101A79001A96021A9AED628022ED629022ED62A016
:101A890022ED62B022ED62C022ED62C822ED62E869
:051A990022ED62F822BD
:10160A00A907EB6048E9B4080040030216A3901644
:10161A001FF828287302163702163B02163F0216D5
:10162A004302164702164B02164F021653ED42802A
:10163A0022ED429022ED42A022ED42B022ED42C0BC
:10164A0022ED42C822ED42E822ED42F822E9B4082E
:10165A00005046901664F828287302167C021681F8
:10166A0002168602168B02169002169502169A0226
:10167A00169FEDF4528022EDF4529022EDF452A01E
:10168A0022EDF452B022EDF452C022EDF452C822F7
:0A169A00EDF452E822EDF452F822BC
:10192700EFB409005045901934F828287302194F6D
:1019370002195302195702195B02195F0219630250
:10194700196702196B02196FAE80801FAE90801B5A
:10195700AEA08017AEB08013AEC0800FAEC8800BAC
:10196700AEE88007AEF880037F0122EE5D60037F5B
:0419770001227F00CA
:01197B002249
:0C1C2A003031363716174344000150518A
:1018D00075985053873F538EDEE4FD7F0112173019
:1018E0009000061208E70001C2007F0112197C4334
:1018F0008E4053890FC2ABC28FD28EC209D2AC7553
:10190000AC10E4FD7F031217309000061208E700C8
:1019100001C2007F0312197C438E0453AFFB438E38
:0719200010C20A43AF0822C8
:10173000900005EDF0EF24FD60402402707A9000E7
:1017400005E0FF54C0FEE5A2543F4EF5A2EFC413DE
:1017500013540325E0242AF582E4341CF583E49332
:10176000FFE4FD1203F3900005E0C41313540325B6
:10177000E0242BF582E4341C8034900005E0FF5413
:1017800002FEE5BA54FD4EF5BAEFC31325E024324C
:10179000F582E4341CF583E493FFE4FD1203F39037
:1017A0000005E0C31325E02433F582E4341CF583FF
:0917B000E493FF7D031203F32210
:05197C00900005EFF0F2
:10198100E47B04FAF9F8900130E0FCA3E0FDA3E068
:10199100FEA3E0FF120838900006E0F8A3E0F9A3E7
:1019A100E0FAA3E0FB120838C3E49FFFE49EFE9037
:1019B1000005E024FD600A2402700B8F8BEEF58D8B
:0619C100228FD7EEF5D6DF
:0119C70022FD
:101BD800EF24FD600D240270128D99D20930090B93
:0C1BE80080FBAF058FADD20A200AFD2261
:101A9E00EF24FD601A24027030EB6006D29BD29BBD
:101AAE008004C29BC29B8D99D20930091C80FBEB2E
:101ABE00600843AC0843AC08800653ACF753ACF750
:0A1ACE00AF058FADD20A200AFD22F9
:101AD800900070EBF0A3EAF0A3E9F0AE0790007075
:101AE800E0FBA3E0FAA3E0F91207076019AF06903C
:101AF8000070A3E475F001120797A9F0FA1207071E
:071B0800FD121BD880D7225B
:0E17B900900001EFF0A3EBF0A3EAF0A3E9F03B
:1017C70090006D7401F0A37400F0A37405F090000D
:1017D70002E0F9A3E0FAA3E090007AC9F0A3EAF0E7
:1017E700A3E9F090006DE0F9A3E0FAA3E090007D93
:1017F700C9F0A3EAF0A3E9F07B017A00792D121969
:10180700C890006DE4F0A3F0A3F0900001E0FF7B27
:08181700017A00792D021AD8B4
:03002300021A12AC
:101A1200C0E0C0F0C083C082C0D075D000C000C09A
:101A220001C002C003C004C005C006C0073098054B
:101A3200C298121B3B309904C299C209D007D00642
:101A4200D005D004D003D002D001D000D0D0D082B3
:071A5200D083D0F0D0E03298
:03008B00021BF461
:101BF400C0E0E5AC30E00353ACFEE5AC30E10553A6
:071C0400ACFDC20AD0E03282
:1016B000021B0FE493A3F8E493A34003F68001F226
:1016C00008DFF48029E493A3F85407240CC8C3333B
:1016D000C4540F4420C8834004F456800146F6DF0A
:1016E000E4800B0102040810204080901C36E47E48
:1016F000019360BCA3FF543F30E509541FFEE493FF
:10170000A360010ECF54C025E060A840B8E493A3C5
:10171000FAE493A3F8E493A3C8C582C8CAC583CAF0
:10172000F0A3C8C582C8CAC583CADFE9DEE780BEA8
:011C3D0000A6
:10070700BB010689828A83E0225002E722BBFE02F0
:09071700E32289828A83E4932223
:10072000BB010CE58229F582E5833AF583E022508E
:1007300006E92582F8E622BBFE06E92582F8E222D8
:0D074000E58229F582E5833AF583E49322F2
:10074D00F8BB010DE58229F582E5833AF583E8F0E2
:10075D00225006E92582C8F622BBFE05E92582C88E
:02076D00F22276
:10076F00EF8DF0A4A8F0CF8CF0A428CE8DF0A42E9E
:02077F00FE2258
:10078100C5F0F8A3E028F0C5F0F8E5821582700203
:060791001583E038F022A0
:10079700A3F8E0C5F025F0F0E58215827002158315
:0607A700E0C838F0E82272
:1007AD00E88FF0A4CC8BF0A42CFCE98EF0A42CFCEB
:1007BD008AF0EDA42CFCEA8EF0A4CDA8F08BF0A469
:1007CD002DCC3825F0FDE98FF0A42CCD35F0FCEBC8
:1007DD008EF0A4FEA9F0EB8FF0A4CFC5F02ECD398D
:0F07ED00FEE43CFCEAA42DCE35F0FDE43CFC22FA
:1007FC0075F008758200EF2FFFEE33FECD33CDCCB4
:10080C0033CCC58233C5829BED9AEC99E582984036
:10081C000CF582EE9BFEED9AFDEC99FC0FD5F0D613
:10082C00E4CEFBE4CDFAE4CCF9A88222B800C1B93D
:10083C000059BA002DEC8BF084CFCECDFCE5F0CB7B
:10084C00F97818EF2FFFEE33FEED33FDEC33FCEBB4
:10085C0033FB10D703994004EB99FB0FD8E5E4F96F
:10086C00FA227818EF2FFFEE33FEED33FDEC33FC5C
:10087C00C933C910D7059BE99A4007EC9BFCE99A50
:10088C00F90FD8E0E4C9FAE4CCFB2275F010EF2F95
:10089C00FFEE33FEED33FDCC33CCC833C810D70795
:1008AC009BEC9AE899400AED9BFDEC9AFCE899F8D0
:0E08BC000FD5F0DAE4CDFBE4CCFAE4C8F92263
:1008CA00EB9FF5F0EA9E42F0E99D42F0E89C45F084
:0108DA0022FB
:0C08DB00ECF0A3EDF0A3EEF0A3EFF02290
:1008E700A8828583F0D083D0821208FE1208FE12F8
:1008F70008FE1208FEE473E493A3C583C5F0C5831D
:10090700C8C582C8F0A3C583C5F0C583C8C582C85A
:0109170022BD
:10091800EC8EF0A4CCC5F0CCCDF8EFA4CEC5F02D6C
:10092800FDE43CFCE8A42EC8C5F03DFDE43CFCEF2A
:0D093800A4FFE5F028FEE43DFDE43CFC22B8
:1019C80090007AE0FFA3E0FEA3E0CF900083F0A3AD
:1019D800EEF0A3EFF090007DE0CBF0A3E0CAF0A317
:1019E800E0C9F07F22900086AD82AC831207078D94
:1019F800828C83F0A309E970010ADFEC90007DE096
:0A1A0800FBA3E0FAA3E0F90200F3EB
:10008E00E5082483F582E43400F583E00508229028
:10009E000080300703900083E475F00112095702C7
:1000AE0007072000E97F2ED2008018EF540F24900E
:1000BE00D43440D4FF30040BEF24BFB41A005003E5
:1000CE002461FFE50960021509050CE50C700205B7
:1000DE000B30070E900080E475F001120957EF0205
:1000EE000945021B677403D2078003E4C207F508B3
:1000FE0090008012096EE4F509F50BF50CE5096028
:10010E00077F201200D180F5750AFFC201C200C21E
:10011E0002C203C205C206C20812009DFF700D3056
:10012E0007057F001200E2AF0CAE0B22B4255FC2B2
:10013E00D5C20412009DFF24D0B40A00501A75F0E7
:10014E000A780930D50508B6FF0106C6A426F620A2
:10015E00D5047002D20380D924CFB41A00EF500414
:10016E00C2E5D2040202E3D20180C6D20080C0D220
:10017E000280BCD2D580BAD20580B47F201200D1C5
:10018E002002077401B5090040F112008EFF120023
:10019E00D102010BD208D206809512008EFB1200FE
:1001AE008EFA12008EF94A4B700679B47A037BFFF1
:1001BE0020022EE509602A7E008E827583001207CA
:1001CE002060060EEE650A70F0C2D5EBC0E0EAC004
:1001DE00E0E9C0E0EE12032AD0E0F9D0E0FAD0E078
:1001EE00FB120707FF60AAEBC0E0EAC0E0E9C0E03F
:1001FE001200D1D0E02401F9D0E03400FAD0E0FBB7
:10020E00E50A0460DCD50AD980877BFF7A0379265C
:10021E00D202809C791080027908C206C20880083A
:10022E00D2D5790A8004790AC2D5E50A047002F59E
:10023E000AE4FAFDFEFF12008EFC7B082001131269
:10024E00008EFD7B1030000A12008EFE12008EFF13
:10025E007B20EC3382D592D55013C3E43000069F39
:10026E00FFE49EFEE42001039DFDE49CFCE4CBF83C
:10027E00C201EC700CCFCECDCCE824F8F870F38030
:10028E0017C3EF33FFEE33FEED33FDEC33FCEB33F0
:10029E00FB994002FB0FD8E9EB300105F8D0E0C422
:1002AE0048B201C0E00AEC4D4E4F78207B0070C280
:1002BE00EAB50A0040BCC0E012032CD0F0D0E0201A
:1002CE000104C4C0E0C4B201C0F01200BAD0F0D52F
:1002DE00F0EB02010B12097701A8530222580179A3
:1002EE004C01754202264F022E44022E49018E43C6
:0802FE000234550218460218F3
:100306004502184703D450017D2D01812E01A42BEF
:1003160001852301A22003BD2A013D480000019C5E
:100326003F3F3F00790AA2D5200314300509B910D2
:10033600020404B9080104A2D520060250010420D3
:1003460002689202B509005034C0E07F20300319DC
:100356007F30A20272067205500F120383C202C2D8
:1003660006C205C2087F30800F300503E9C0E012DF
:1003760000D1300503D0E0F9D0E0B509CC3005173F
:100386007F30B9100C1200D17F583004077F788077
:1003960003B908031200D13002057F2D0200D17F78
:1003A600202008F87F2B2006F322920280CF286EA9
:1003B600756C6C2900D20112008E3001F8C20178EA
:1003C6000930D50108F602013D2D50434958120067
:1003D6008E2403B405004001E49003CF931200C2BB
:0D03E600743A1200C2D2037509040202220B
:10094500BB010689828A83F0225002F722BBFE0191
:02095500F3228B
:10095700F8E0FBA3A3E0F925F0F0E5821582700229
:070967001583E0FA38F022CD
:09096E00EBF0A3EAF0A3E9F0228A
:10097700D083D082F8E4937012740193700DA3A30F
:1009870093F8740193F5828883E473740293686023
:06099700EFA3A3A380DF23
:101B6700EFB40A07740D121B72740A309811A89902
:101B7700B8130CC2983098FDA899C298B811F630DE
:071B870099FDC299F59922B6
:00000001FF
