:03000000021DC01E
:0C1DC000787FE4F6D8FD758121021E0733
:0523E50025750D0A0042
:10225800120E6A120026E4FFFE1223657D16E4FFC3
:10226800FE1222037FE87E03120003E4FFFE12221F
:10227800F4900204E4F0A3EFF07BFF7A2379E512EF
:042288001F1880E0BB
:0723D5004403460000000074
:10000300EF4E601A90033EE0FCA3E0FDED1D70018E
:0E0013001C144C70F7EF1F70011E144E70E6A7
:0100210022BC
:08239A00900278E0FEA3E0FFD1
:0A23A200EF1FAC0670011E4C70F630
:0123AC00220E
:1023370090033EE0FCA3E0FD120DE5E47B83FAF990
:10234700F8120C7A900342120DA8900342E0C313CF
:06235700FEA3E013FF22CB
:1022BC00900341E06599600AE599F0E4900340F0E1
:1022CC008006900340E004F0900340E0C394E9746E
:0C22DC0080948040060075C7600000225E
:0B1F1800900201EBF0A3EAF0A3E9F057
:101F230090026C7401F0A37402F0A37404F09002A5
:101F330001E0F9A3E0FAA3E090027AC9F0A3EAF082
:101F4300A3E9F090026CE0F9A3E0FAA3E090027D2C
:101F5300C9F0A3EAF0A3E9F07B017A02792C1220FD
:101F6300CC90026CE4F0A3F0A3F07B017A02792C0D
:051F73007F01022221A4
:101A8300EF14601614602C14604D14606C14700312
:101A9300021B1724056003021B3A90FE02E0547EEA
:101AA3004480F0E030E0F390FE00E054FCF090FE60
:101AB30003807A90FE04E0547E4480F0E030E0F34B
:101AC30090FE00E054FC4403F090FE02E4F090FE2C
:101AD30008F090FE03F02290FE08E0547E4480F06C
:101AE300E030E0F390FE00E054FC4402F090FE048A
:101AF300E4F090FE02F0A3F02290FE03E0543E4493
:101B030080F0E030E0F390FE00E054FC4401F090FC
:101B1300FE02801990FE03E0543E44C0F0E030E042
:101B2300F390FE00E054FC4401F090FE02E4F090D8
:081B3300FE08F090FE04F02210
:0C23C900EF90FE01700304F022EFF02200
:100E6A0043BA80AF9FE4FCFDFEC004A905AA06AB05
:100E7A000778FBE6FFD000C3EF9BFFEE9AFEED99E1
:100E8A00FDEC98FCE47BF07AD2F9F8120C7AC3E410
:100E9A009FFF74369EFE746E9DFD74019CFC900249
:100EAA0001120DA8900201E0FCA3E0FDA3E0FEA35D
:100EBA00E0FFC00790FE01E0FBE4FAF9F8D0071260
:100ECA000D05900201120DA87FC07EF67D577C00A9
:100EDA00900201E0F8A3E0F9A3E0FAA3E0FBC31251
:100EEA000D97500D900346120DB400546000021085
:100EFA00997FC07E267D827C00900201E0F8A3E003
:100F0A00F9A3E0FAA3E0FBC3120D97500D90034634
:100F1A00120DB4005B8D800210997F807EED7DAF4B
:100F2A007C00900201E0F8A3E0F9A3E0FAA3E0FB59
:100F3A00C3120D97500D900346120DB400A8C000BD
:100F4A000210997F807E2D7DE87C00900201E0F8F6
:100F5A00A3E0F9A3E0FAA3E0FBC3120D97500D90AA
:100F6A000346120DB400B71B000210997F807E362B
:100F7A007D257C01900201E0F8A3E0F9A3E0FAA341
:100F8A00E0FBC3120D97500D900346120DB40119E0
:100F9A0040000210997F807E567D417C01900201BB
:100FAA00E0F8A3E0F9A3E0FAA3E0FBC3120D97501F
:100FBA000D900346120DB401312D000210997F00E5
:100FCA007EDB7D5F7C01900201E0F8A3E0F9A3E0FB
:100FDA00FAA3E0FBC3120D97500D900346120DB40D
:100FEA00015180000210997F607E197D857C0190F5
:100FFA000201E0F8A3E0F9A3E0FAA3E0FBC3120DB3
:10100A0097500D900346120DB4016E3600021099E6
:10101A007F207EE07DB27C01900201E0F8A3E0F936
:10102A00A3E0FAA3E0FBC3120D97500C90034612FB
:10103A000DB4019BFCC080577FE07EA67DE07C0159
:10104A00900201E0F8A3E0F9A3E0FAA3E0FBC312DF
:10105A000D97500C900346120DB401C9C380802F1E
:10106A007F607E2B7DFF7C01900201E0F8A3E0F90E
:10107A00A3E0FAA3E0FBC3120D97900346500912AE
:10108A000DB401FA40008007120DB402160EC0E436
:10109A007B107A27F9F8900346E0FCA3E0FDA3E071
:1010AA00FEA3E0FF120D0590033EEEF0A3EFF0E47D
:0D10BA00900341F0900340F012228CD2AF61
:0110C7002206
:0B19BE00900208EBF0A3EAF0A3E9F0B0
:1019C9007F647E00122337900278EEF0A3EFF09047
:1019D90002757401F0A37402F0A3740BF09002086D
:1019E900E0F9A3E0FAA3E090027AC9F0A3EAF0A330
:1019F900E9F0900275E0F9A3E0FAA3E090027DC94D
:101A0900F0A3EAF0A3E9F07B017A0279351220CC40
:101A1900900233EEF0A3EFF0900275E4F0A3F0A387
:101A2900F07FF47E01120003E4FBFAD3900234E064
:101A39009B900233E09A40E9D2B1C2B112239A7461
:101A4900352BF58274023AF583E0F9E4FDEDC39490
:101A590008748094805014E930E004D2B18002C245
:101A6900B1E9C313F912239A0D80E2D2B112239A74
:0A1A790012239A0BBB00010A80B192
:0B1BE50090034AEBF0A3EAF0A3E9F044
:101BF000E4FFFE900350F0A3F0A3F0A3F090034A9B
:101C0000E0FBA3E0FAA3E0F9120BD4607790035352
:101C1000E004F07006900352E004F090034DE0FB06
:101C2000A3E0FAA3E0F98F828E83120BEDFD9003FF
:101C30004AE0FBA3E0FAA3E0F9120BD4B505070FC5
:101C4000BF00010E8012E4FEFF900352E0FDA3E00E
:101C5000900350CDF0A3EDF090034BE475F001122A
:101C60000C4E90034DE0FBA3E0FAA3E0F98F828EC7
:101C700083120BEDFD3395E04D7082900350E0FE32
:081C8000A3E0FF227EFF7FFFBD
:011C88002239
:10180700E4900362F0900364F0900363F090036345
:10181700E0C3940A7480948040030218E9E07E00D4
:101827002DF582EE3CF583120BEDFF3395E0FEC3F9
:10183700EF9430EE648094804052D3EF9437EE6497
:101847008094805047900364E004F0E064017019CD
:10185700900363E07E002DF582EE3CF583120BEDDD
:1018670024D0C454F0900362F0900364E0640270E3
:101877001B900363E07E002DF582EE3CF583120B8F
:10188700ED24D0FF900362E04FFFF022900363E066
:101897007E002DF582EE3CF583120BEDFF3395E0CC
:1018A700FEC3EF9438EE648094804011D3EF9439EF
:1018B700EE648094805006900364E004F090036324
:1018C700E07E002DF582EE3CF583120BEDFF642CD4
:1018D7006010EF3395E04F6009900363E004F00276
:0718E7001814900362E0FFFA
:0118EE0022D7
:0818EF0090035DECF0A3EDF0A5
:1018F700E4A3F0A3F0A3F0900361E0FFC394147492
:1019070080948040030219B590035EE02FFF900397
:101917005DE034008F82F583120BEDFF3395E0FE17
:10192700C3EF9430EE648094804051D3EF9439EE46
:1019370064809480504690035FE0FEA3E0FF7C0044
:101947007D0A120C3C90035FEEF0A3EFF0A3E0FFDB
:1019570090035EE02FFF90035DE034008F82F583F4
:10196700120BEDFF3395E0FEEF24D0FFEE34FFFEC0
:10197700900360E02FF090035FE03EF0900361E09A
:10198700FF90035EE02FFF90035DE034008F82F548
:1019970083120BEDFF642C6015EF642E6010EF339C
:1019A70095E04F6009900361E004F00218FE900390
:0619B7005FE0FEA3E0FF6B
:0119BD002207
:1014B90090032CEBF0A3EAF0A3E9F0A3ECF0A3ED81
:0114C900F032
:1014CA00E4900338F0A3F0A3F0A3F0A3F0A3F09004
:1014DA000336F0A3F090032FE0FEA3E0FF9003365B
:1014EA00E0FCA3E0FDC39FEC9E4003021589900334
:1014FA0031E0FBA3E0FAA3E0F9900338E0FEA3E0B1
:10150A00F5828E83120BEDFF90032CE0FBA3E0FA29
:10151A00A3E0F98D828C83120BEDB5073390033962
:10152A00E004F07006900338E004F0900334E0FE23
:10153A00A3E0FF900338E0B50631A3E0B5072C908D
:10154A000336E0FFA3E090033CCFF0A3EFF0802F37
:10155A00E4900338F0A3F0900337E02401FE9003EF
:10156A0036E0340090033AF0A3CEF0900337E0045B
:10157A00F060030214DF900336E004F00214DF90F7
:10158A00033CE0FEA3E0FF90033AE0FCA3E0FDD3B6
:10159A009FEC9E5044900336ECF0A3EDF090033C90
:1015AA00E0FEA3E0FF900336E0FCA3E0FDC39FEC5E
:1015BA009E502390032CE0FBA3E0FAA3E0F98D826E
:1015CA008C83E4120C1A900337E004F070CF900376
:0B15DA0036E004F080C77F01227F0094
:0115E50022E3
:101317006770696F5F757070756C6C283C44253019
:1013270032583E2C2564293BB2BBB4E6D4DAB8C3A5
:10133700494F0D0A006770696F5F757070756C6C47
:10134700283C44253032583E2C31293BB2BBB4E609
:10135700D4DAB8C3494F0D0A006770696F5F7570BB
:1013670070756C6C283C44253032583E2C30293B34
:10137700B2BBB4E6D4DAB8C3494F0D0A0067706947
:101387006F5F6D6F6465283C44253032583E2C25CD
:1013970064293BB2BBB4E6D4DAB8C3494F0D0A009F
:1013A7006770696F5F6D6F64652844253032582C0C
:1013B7003C25643E293BB2BBB4E6D4DAB8C3C4A328
:1013C700CABD0D0A006770696F5F77726974652817
:1013D7003C25643E2C2564293BB2BBB4E6D4DAB87D
:1013E700C350BFDA0D0A006770696F5F7265616489
:1013F700283C5025643E293BB2BBB4E6D4DAB8C3D7
:1014070050BFDA0D0A006770696F5F6F7574283C0B
:1014170044253032583E2C2564293BB2BBB4E6D470
:10142700DAB8C3494F0D0A006770696F5F6F75744B
:10143700283C44253032583E2C31293BB2BBB4E618
:10144700D4DAB8C3494F0D0A006770696F5F6F75CB
:1014570074283C44253032583E2C30293BB2BBB46B
:10146700E6D4DAB8C3494F0D0A006770696F5F6940
:101477006E283C44253032583E293BB2BBB4E6D4F3
:10148700DAB8C3494F0D0A006770696F5F746F67F9
:10149700676C65283C44253032583E293BB2BBB4C3
:1014A700E6D4DAB8C3494F0D0A0001020408102038
:0214B700408073
:0A15E600900366EDF0900365EFF04E
:1015F000648870030216F7E0FF54F0F50DEF540F06
:10160000FF9014B193F50ED3EF940774809480404B
:10161000237BFF7A137917900365E0FF90020BE4B8
:10162000F0A3EFF0900366E0FF90020DE4F0A3EF6B
:10163000F01219BE900366E06055E50D24F06021BC
:1016400024F0602224F0602324F0602424F060253C
:1016500024F0602624F060272470702B90FE108008
:101660002190FE11801C90FE12801790FE138012B4
:1016700090FE14800D90FE15800890FE1680039059
:10168000FE17E0450EF0227BFF7A13793C8058E587
:101690000D24F0602124F0602224F0602324F06007
:1016A0002424F0602524F0602624F0602724707044
:1016B0003090FE10802190FE11801C90FE12801749
:1016C00090FE13801290FE14800D90FE15800890FD
:1016D000FE16800390FE17E0FFE50EF4FEEF5EF0CD
:1016E000227BFF7A137960900365E0FF90020BE4A0
:0716F000F0A3EFF01219BE98
:0116F70022D0
:0A08C000900207EDF0900206EFF041
:1008CA0064887003020BD3E0FF54F0F50DEF540F68
:1008DA00FF9014B193F50ED3EF940774809480407F
:1008EA00237BFF7A137984900206E0FF90020BE4DF
:1008FA00F0A3EFF0900207E0FF90020DE4F0A3EFFF
:10090A00F01219BEE50D24F0602124F0602224F0D3
:10091A00602324F0602424F0602524F0602624F06B
:10092A00602724707028E4F50D8046750D0180411A
:10093A00750D02803C750D038037750D0480327584
:10094A000D05802D750D068028750D0780237BFF08
:10095A007A137984900206E0FF90020BE4F0A3EF89
:10096A00F0900207E0FF90020DE4F0A3EFF01219F5
:10097A00BE900207E0FFD3940374809480401C7BEE
:10098A00FF7A1379A7900206E0FD90020BE4F0A328
:10099A00EDF0A3E4F0A3EFF01219BEE50D7040905C
:1009AA000207E0FF7E007007E50EF452935294EFBF
:1009BA0064014E7009E50E4293E50EF452949002DA
:1009CA0007E064027008E50E4293E50E4294900235
:1009DA0007E064037009E50EF45293E50E4294E5CC
:1009EA000D64017040900207E0FF7E007007E50E7B
:1009FA00F452915292EF64014E7009E50E4291E56C
:100A0A000EF45292900207E064027008E50E4291D9
:100A1A00E50E4292900207E064037009E50EF45273
:100A2A0091E50E4292E50D64027040900207E0FFE4
:100A3A007E007007E50EF452955296EF64014E70EF
:100A4A0009E50E4295E50EF45296900207E064021B
:100A5A007008E50E4295E50E4296900207E064039F
:100A6A007009E50EF45295E50E4296E50D640370A1
:100A7A0040900207E0FF7E007007E50EF452B15283
:100A8A00B2EF64014E7009E50E42B1E50EF452B2BE
:100A9A00900207E064027008E50E42B1E50E42B228
:100AAA00900207E064037009E50EF452B1E50E42C4
:100ABA00B2E50D64047040900207E0FF7E00700703
:100ACA00E50EF452B352B4EF64014E7009E50E42DA
:100ADA00B3E50EF452B4900207E064027008E50E22
:100AEA0042B3E50E42B4900207E064037009E50ED2
:100AFA00F452B3E50E42B4E50D6405704090020766
:100B0A00E0FF7E007007E50EF452C952CAEF640195
:100B1A004E7009E50E42C9E50EF452CA900207E08A
:100B2A0064027008E50E42C9E50E42CA900207E067
:100B3A0064037009E50EF452C9E50E42CAE50D6474
:100B4A00067040900207E0FF7E007007E50EF4523F
:100B5A00CB52CCEF64014E7009E50E42CBE50EF4A0
:100B6A0052CC900207E064027008E50E42CBE50E13
:100B7A0042CC900207E064037009E50EF452CBE51B
:100B8A000E42CCE50D64077040900207E0FF7E003C
:100B9A007007E50EF452E152E2EF64014E7009E586
:100BAA000E42E1E50EF452E2900207E06402700898
:100BBA00E50E42E1E50E42E2900207E064037009A5
:090BCA00E50EF452E1E50E42E2F1
:010BD30022FF
:101F7800EFB40900503A901F85F8282873021FA073
:101F8800021FA3021FA6021FA9021FAC021FAF0255
:101F98001FB2021FB5021FD18D80228D90228DA005
:101FA800228DB0228DC0228DC8228DE8228DF82284
:101FB8007BFF7A1379CC90020BE4F0A3EFF0AF0526
:0A1FC800A3E4F0A3EFF01219BE220B
:101FD200EFB40900503D901FDFF8282873021FFA62
:101FE200021FFD0220000220030220060220090235
:101FF200200C02200F022012AF8022AF9022AFA04D
:1020020022AFB022AFC022AFC822AFE822AFF8227F
:102012007FFF227BFF7A1379EE90020BE4F0A3EFAD
:07202200F01219BE7FFF223E
:0A16F800900368EDF0900367EFF037
:1017020064887003021806E0FF54F0F50DEF540FE1
:10171200FF9014B193F50ED3EF9407748094804038
:10172200237BFF7A14790D900367E0FF90020BE4AC
:10173200F0A3EFF0900368E0FF90020DE4F0A3EF56
:10174200F01219BE900368E06052E50D24F06021AA
:1017520024F0602224F0602324F0602424F0602529
:1017620024F0602624F0602724707028E50E428061
:1017720022E50E429022E50E42A022E50E42B02260
:10178200E50E42C022E50E42C822E50E42E822E5FD
:101792000E42F8227BFF7A14792F8058E50D24F04F
:1017A200602224F0602424F0602624F0602824F0D3
:1017B200602A24F0602C24F0602E24707030E50E34
:1017C200F4528022E50EF4529022E50EF452A02249
:1017D200E50EF452B022E50EF452C022E50EF452A8
:1017E200C822E50EF452E822E50EF452F8227BFFFD
:1017F2007A147950900367E0FF90020BE4F0A3EFB4
:04180200F01219BE09
:0118060022BF
:051B3B00900369EFF0CA
:101B400064887002FF22900369E0FF54F0F50DEF06
:101B5000540FFF9014B193F50ED3EF940774809453
:101B60008040167BFF7A147971900369E0FF900240
:101B70000BE4F0A3EFF01219BEE50D24F060212470
:101B8000F0602224F0602324F0602424F0602524F7
:101B9000F0602624F060272470702885800F80393B
:101BA00085900F803485A00F802F85B00F802A8507
:101BB000C00F802585C80F802085E80F801B85F821
:101BC0000F80167BFF7A147971900369E0FF900211
:101BD0000BE4F0A3EFF01219BEE50F550E60037F82
:041BE00001227F005F
:011BE40022DE
:051C890090036AEFF07A
:101C8E0064887003021D25E0FF54F0F50DEF540F2C
:101C9E00FF9014B193F50ED3EF94077480948040A7
:101CAE00167BFF7A14798F90036AE0FF90020BE4A3
:101CBE00F0A3EFF01219BEE50D24F0602124F060C0
:101CCE002224F0602324F0602424F0602524F060A8
:101CDE002624F0602724707028E50E628022E50E1F
:101CEE00629022E50E62A022E50E62B022E50E623F
:101CFE00C022E50E62C822E50E62E822E50E62F809
:101D0E00227BFF7A14798F90036AE0FF90020BE436
:071D1E00F0A3EFF01219BE63
:011D2500229B
:10215D00EFB40800503E90216AF8282873022182BE
:10216D0002218602218A02218E02219202219602EB
:10217D00219A02219EED628022ED629022ED62A0F5
:10218D0022ED62B022ED62C022ED62C822ED62E85E
:05219D0022ED62F822B2
:101D2600A907EB6048E9B408004003021DBF901DF7
:101D36003BF8282873021D53021D57021D5B021D26
:101D46005F021D63021D67021D6B021D6FED42805F
:101D560022ED429022ED42A022ED42B022ED42C099
:101D660022ED42C822ED42E822ED42F822E9B4080B
:101D7600005046901D80F8282873021D98021D9D6C
:101D8600021DA2021DA7021DAC021DB1021DB60254
:101D96001DBBEDF4528022EDF4529022EDF452A0D8
:101DA60022EDF452B022EDF452C022EDF452C822D4
:0A1DB600EDF452E822EDF452F82299
:10202900EFB409005045902036F828287302205152
:1020390002205502205902205D022061022065021A
:10204900206902206D022071AE80801FAE90801B36
:10205900AEA08017AEB08013AEC0800FAEC8800BA3
:10206900AEE88007AEF880037F0122EE5D60037F52
:0420790001227F00C1
:01207D002240
:0823DD00303136371617434476
:10228C0075985053873F538EDEE4FD7F0112207EFC
:10229C00900206120DB40001C2007F011221A2436C
:1022AC008E4053890FC2ABC28FD28EC209D2AC22E0
:10207E00900205EDF0EF147044900205E0FF54C09D
:10208E00FEE5A2543F4EF5A2EFC41313540325E010
:10209E0024DDF582E43423F583E493FFE4FD120896
:1020AE00C0900205E0C41313540325E024DEF5822C
:0E20BE00E43423F583E493FF7D031208C0226F
:0521A200900205EFF0C2
:1021A700E47B04FAF9F8900346E0FCA3E0FDA3E022
:1021B700FEA3E0FF120D05900206E0F8A3E0F9A3E5
:1021C700E0FAA3E0FB120D05C3E49FFFE49EFE9037
:0B21D7000205E01470058F8BEEF58D03
:0121E20022DA
:0E23AD00EF147009AF058F99D2092009FD22A7
:10237F00EF147016EB6006D29BD29B8004C29BC2F7
:0B238F009BAF058F99D2092009FD22A9
:1022210090026FEBF0A3EAF0A3E9F0AE0790026F22
:10223100E0FBA3E0FAA3E0F9120BD46019AF06901A
:10224100026FA3E475F001120C64A9F0FA120BD429
:07225100FD1223AD80D7222E
:0E1E4C009002A8EFF0A3EBF0A3EAF0A3E9F0F8
:101E5A009003147401F0A37402F0A374ACF090021E
:101E6A00A9E0F9A3E0FAA3E090027AC9F0A3EAF0A4
:101E7A00A3E9F0900314E0F9A3E0FAA3E090027D4D
:101E8A00C9F0A3EAF0A3E9F07B017A0279D412201F
:101E9A00CC900314E4F0A3F0A3F09002A8E0FF7B37
:081EAA00017A0279D402222121
:03002300022116A1
:10211600C0E0C0F0C083C082C0D075D000C000C08F
:1021260001C002C003C004C005C006C00730980540
:10213600C2981222BC309904C299C209D007D006AF
:10214600D005D004D003D002D001D000D0D0D082A8
:07215600D083D0F0D0E0328D
:10002600E47B07FAF9F8900346E0FCA3E0FDA3E0C1
:10003600FEA3E0FF120D05900201120DA8E47B88D5
:100046007A13F9F8900346E0FCA3E0FDA3E0FEA3D3
:10005600E0FF120D05900205120DA87F0A7E8B7D2A
:10006600027C00900201E0F8A3E0F9A3E0FAA3E025
:10007600FBC3120D97504D7F1D7E637D017C009062
:100086000201E0F8A3A3A3E0120D974037E47F6FC7
:10009600FEFDFC900205E0F8A3E0F9A3E0FAA3E078
:1000A600FBD3120D97401DE47FFAFEFDFC9002057E
:1000B600E0F8A3A3A3E0120D97500990000074077F
:1000C600F0020546E47B0EFAF9F8900346E0FCA33D
:1000D600E0FDA3E0FEA3E0FF120D05900201120D64
:1000E600A8E47B107A27F9F8900346E0FCA3E0FD2C
:1000F600A3E0FEA3E0FF120D05900205120DA87FF6
:100106000A7E8B7D027C00900201E0F8A3E0F9A351
:10011600E0FAA3E0FBC3120D97504D7F1D7E637D71
:10012600017C00900201E0F8A3A3A3E0120D974022
:1001360037E47F6FFEFDFC900205E0F8A3E0F9A32B
:10014600E0FAA3E0FBD3120D97401DE47FFAFEFD13
:10015600FC900205E0F8A3A3A3E0120D97500990C6
:1001660000007406F0020546E47B15FAF9F89003E0
:1001760046E0FCA3E0FDA3E0FEA3E0FF120D059020
:100186000201120DA8E47B987A3AF9F8900346E04A
:10019600FCA3E0FDA3E0FEA3E0FF120D059002051F
:1001A600120DA87F0A7E8B7D027C00900201E0F88A
:1001B600A3E0F9A3E0FAA3E0FBC3120D97504D7F2D
:1001C6001D7E637D017C00900201E0F8A3A3A3E0FD
:1001D600120D974037E47F6FFEFDFC900205E0F8B4
:1001E600A3E0F9A3E0FAA3E0FBD3120D97401DE4C8
:1001F6007FFAFEFDFC900205E0F8A3A3A3E0120D32
:100206009750099000007405F0020546E47B2AFA2F
:10021600F9F8900346E0FCA3E0FDA3E0FEA3E0FFAF
:10022600120D05900201120DA8E47B307A75F9F8DB
:10023600900346E0FCA3E0FDA3E0FEA3E0FF120D61
:1002460005900205120DA87F0A7E8B7D027C009028
:100256000201E0F8A3E0F9A3E0FAA3E0FBC3120D64
:1002660097504D7F1D7E637D017C00900201E0F872
:10027600A3A3A3E0120D974037E47F6FFEFDFC9029
:100286000205E0F8A3E0F9A3E0FAA3E0FBD3120D20
:1002960097401DE47FFAFEFDFC900205E0F8A3A35B
:1002A600A3E0120D9750099000007404F002054671
:1002B600E47B54FAF9F8900346E0FCA3E0FDA3E0E2
:1002C600FEA3E0FF120D05900201120DA8E47B606B
:1002D6007AEAF9F8900346E0FCA3E0FDA3E0FEA36A
:1002E600E0FF120D05900205120DA87F0A7E8B7D98
:1002F600027C00900201E0F8A3E0F9A3E0FAA3E093
:10030600FBC3120D97504D7F1D7E637D017C0090CF
:100316000201E0F8A3A3A3E0120D974037E47F6F34
:10032600FEFDFC900205E0F8A3E0F9A3E0FAA3E0E5
:10033600FBD3120D97401DE47FFAFEFDFC900205EB
:10034600E0F8A3A3A3E0120D9750099000007403F0
:10035600F0020546E47B8CFAF9F8900346E0FCA32C
:10036600E0FDA3E0FEA3E0FF120D05900201120DD1
:10037600A87BA07A8679017800900346E0FCA3E08A
:10038600FDA3E0FEA3E0FF120D05900205120DA8E5
:100396007F0A7E8B7D027C00900201E0F8A3E0F9E3
:1003A600A3E0FAA3E0FBC3120D97504D7F1D7E63B9
:1003B6007D017C00900201E0F8A3A3A3E0120D9753
:1003C6004037E47F6FFEFDFC900205E0F8A3E0F9FC
:1003D600A3E0FAA3E0FBD3120D97401DE47FFAFEDB
:1003E600FDFC900205E0F8A3A3A3E0120D975009C7
:1003F6009000007402F0020546E47BA8FAF9F89032
:100406000346E0FCA3E0FDA3E0FEA3E0FF120D051A
:10041600900201120DA87BC07AD47901780090036E
:1004260046E0FCA3E0FDA3E0FEA3E0FF120D05906D
:100436000205120DA87F0A7E8B7D027C00900201C8
:10044600E0F8A3E0F9A3E0FAA3E0FBC3120D97508E
:100456004D7F1D7E637D017C00900201E0F8A3A321
:10046600A3E0120D974037E47F6FFEFDFC90020576
:10047600E0F8A3E0F9A3E0FAA3E0FBD3120D97405E
:100486001DE47FFAFEFDFC900205E0F8A3A3A3E0BD
:10049600120D9750099000007401F0020546E47BA6
:1004A6002D7A01F9F8900346E0FCA3E0FDA3E0FEF7
:1004B600A3E0FF120D05900201120DA87BD87A4722
:1004C60079037800900346E0FCA3E0FDA3E0FEA3D9
:1004D600E0FF120D05900205120DA87F0A7E8B7DA6
:1004E600027C00900201E0F8A3E0F9A3E0FAA3E0A1
:1004F600FBC3120D9750497F1D7E637D017C0090E2
:100506000201E0F8A3A3A3E0120D974033E47F6F46
:10051600FEFDFC900205E0F8A3E0F9A3E0FAA3E0F3
:10052600FBD3120D974019E47FFAFEFDFC900205FD
:10053600E0F8A3A3A3E0120D975005E4900000F0A5
:10054600900201120DB400000000900205120DB4D5
:0405560000000000A1
:01055A00227E
:0E23BB00E4F5C7F5C5F5C675C3FF75C4FF226E
:08235D00900322E0FEA3E0FF63
:10236500900000E04480F5C775C5038FC4EEF5C342
:0A23750075C65A75C6A5000223BB09
:1021E30090032AE0FCA3E0FD900323E02DFF90037E
:1021F30022E03CFE74012DF58274003CF583E0FD82
:10220300900000E04480F5C775C5028FC4EEF5C3A6
:0E221300AF058FC275C65A75C6A5000223BB63
:0C22E800900323E02FFF900322E03EFE55
:1022F400900000E04480F5C775C5018FC4EEF5C3B6
:0C23040075C65A75C6A500AFC20223BB07
:101EB200900354EEF0A3EFF0A3EBF0A3EAF0A3E952
:011EC200F02F
:101EC300E490035BF0A3F0900359E0FEA3E0FFA3CB
:101ED300E0FCA3E0FDC39FEC9E5039900355E02D39
:101EE300FF900354E03CFE1222F4900356E0FBA360
:101EF300E0FAA3E0F990035BE0FCA3E0F5828C83B6
:101F0300EF120C1A90035CE004F070BB90035BE0EB
:041F130004F080B3A3
:011F170022A7
:0B10C800900319EBF0A3EAF0A3E9F09D
:1010D300E4900326F0A3F0A3EEF0A3EFF090031C3B
:1010E300E0FFA3E0A3CFF0A3EFF0900328E0FCA37D
:1010F300E0FDECC313FB7A007F0025E0FE900322A2
:10110300F0A3EFF02400FFEE3402FEC3EF9DFFEEE9
:101113009CFE900320F0A3EFF0D390031FE09F9079
:10112300031EE09E400302120AE490032AF0A3F098
:1011330090032AE0FEA3E0FFC3EE9402502512229F
:10114300E890032AE0FCA3E02401F58274003CF557
:1011530083EFF090032BE004F070D590032AE004B2
:10116300F080CD12235D900322E0FEA3E0FFC39045
:101173000329E09FFF900328E09E900324F0A3EF50
:10118300F0E490032AF0A3F090031EE0FEA3E0FF37
:1011930090032AE0FCA3E0FDC39FEC9E504790031D
:1011A30027E02DFF900326E03CFE900319E0FBA30C
:1011B300E0FAA3E0F98F828E83120BEDFF900325F3
:1011C300E02DFD900324E03CFC74012DF5827400B6
:1011D3003CF583EFF090032BE004F070AB90032A0F
:1011E300E004F080A3E490032AF0A3F01221E3903B
:1011F300032BE004F0700690032AE004F0C390038D
:101203002AE0940240E622E490032AF0A3F090033C
:101213002AE0FEA3E0FFC3EE940250251222E890D9
:10122300032AE0FCA3E02401F58274003CF583EF7C
:10123300F090032BE004F070D590032AE004F080D3
:10124300CD12235D900322E0FEA3E0FFC3900329A8
:10125300E09FFF900328E09E900324F0A3EFF0E4C7
:1012630090032AF0A3F0900320E0FEA3E0FF900395
:101273002AE0FCA3E0FDC39FEC9E5047900327E0C8
:101283002DFF900326E03CFE900319E0FBA3E0FA58
:10129300A3E0F98F828E83120BEDFF900325E02DDF
:1012A300FD900324E03CFC74012DF58274003CF5B1
:1012B30083EFF090032BE004F070AB90032AE0047B
:1012C300F080A3E490032AF0A3F01221E390032B10
:1012D300E004F0700690032AE004F0C390032AE0D0
:1012E300940240E6900320E0FEA3E0FF900329E090
:1012F3002FF0900328E03EF0C390031FE09FF0908F
:10130300031EE09EF0900327E02FF0900326E03EBB
:04131300F00210EDE7
:101DCC00022258E493A3F8E493A34003F68001F2B3
:101DDC0008DFF48029E493A3F85407240CC8C33318
:101DEC00C4540F4420C8834004F456800146F6DFE7
:101DFC00E4800B01020408102040809023D5E47E7F
:101E0C00019360BCA3FF543F30E509541FFEE493DB
:101E1C00A360010ECF54C025E060A840B8E493A3A2
:101E2C00FAE493A3F8E493A3C8C582C8CAC583CACD
:101E3C00F0A3C8C582C8CAC583CADFE9DEE780BE85
:0123DC000000
:100BD400BB010689828A83E0225002E722BBFE021F
:090BE400E32289828A83E4932252
:100BED00BB010CE58229F582E5833AF583E02250BD
:100BFD0006E92582F8E622BBFE06E92582F8E22207
:0D0C0D00E58229F582E5833AF583E4932220
:100C1A00F8BB010DE58229F582E5833AF583E8F010
:100C2A00225006E92582C8F622BBFE05E92582C8BC
:020C3A00F222A4
:100C3C00EF8DF0A4A8F0CF8CF0A428CE8DF0A42ECC
:020C4C00FE2286
:100C4E00C5F0F8A3E028F0C5F0F8E5821582700231
:060C5E001583E038F022CE
:100C6400A3F8E0C5F025F0F0E58215827002158343
:060C7400E0C838F0E822A0
:100C7A00E88FF0A4CC8BF0A42CFCE98EF0A42CFC19
:100C8A008AF0EDA42CFCEA8EF0A4CDA8F08BF0A497
:100C9A002DCC3825F0FDE98FF0A42CCD35F0FCEBF6
:100CAA008EF0A4FEA9F0EB8FF0A4CFC5F02ECD39BB
:0F0CBA00FEE43CFCEAA42DCE35F0FDE43CFC2228
:100CC90075F008758200EF2FFFEE33FECD33CDCCE2
:100CD90033CCC58233C5829BED9AEC99E582984065
:100CE9000CF582EE9BFEED9AFDEC99FC0FD5F0D642
:100CF900E4CEFBE4CDFAE4CCF9A88222B800C1B96C
:100D09000059BA002DEC8BF084CFCECDFCE5F0CBA9
:100D1900F97818EF2FFFEE33FEED33FDEC33FCEBE2
:100D290033FB10D703994004EB99FB0FD8E5E4F99D
:100D3900FA227818EF2FFFEE33FEED33FDEC33FC8A
:100D4900C933C910D7059BE99A4007EC9BFCE99A7E
:100D5900F90FD8E0E4C9FAE4CCFB2275F010EF2FC3
:100D6900FFEE33FEED33FDCC33CCC833C810D707C3
:100D79009BEC9AE899400AED9BFDEC9AFCE899F8FE
:0E0D89000FD5F0DAE4CDFBE4CCFAE4C8F92291
:100D9700EB9FF5F0EA9E42F0E99D42F0E89C45F0B2
:010DA7002229
:0C0DA800ECF0A3EDF0A3EEF0A3EFF022BE
:100DB400A8828583F0D083D082120DCB120DCB1282
:100DC4000DCB120DCBE473E493A3C583C5F0C583A7
:100DD400C8C582C8F0A3C583C5F0C583C8C582C889
:010DE40022EC
:100DE500EC8EF0A4CCC5F0CCCDF8EFA4CEC5F02D9B
:100DF500FDE43CFCE8A42EC8C5F03DFDE43CFCEF59
:0D0E0500A4FFE5F028FEE43DFDE43CFC22E6
:1020CC0090027AE0FFA3E0FEA3E0CF900283F0A39E
:1020DC00EEF0A3EFF090027DE0CBF0A3E0CAF0A30A
:1020EC00E0C9F07F22900286AD82AC83120BD48DB6
:1020FC00828C83F0A309E970010ADFEC90027DE089
:0A210C00FBA3E0FAA3E0F90205C00E
:10055B00E5082483F582E43402F583E00508229054
:10056B000280300703900283E475F001120E24021F
:10057B000BD42000E97F2ED2008018EF540F24906B
:10058B00D43440D4FF30040BEF24BFB41A00500313
:10059B002461FFE50960021509050CE50C700205E5
:1005AB000B30070E900280E475F001120E24EF025F
:1005BB000E120223107403D2078003E4C207F5085E
:1005CB00900280120E3BE4F509F50BF50CE5096082
:1005DB00077F2012059E80F5750AFFC201C200C27B
:1005EB0002C203C205C206C20812056AFF700D30B3
:1005FB0007057F001205AFAF0CAE0B22B4255FC20F
:10060B00D5C20412056AFF24D0B40A00501A75F043
:10061B000A780930D50508B6FF0106C6A426F620D0
:10062B00D5047002D20380D924CFB41A00EF500442
:10063B00C2E5D2040207B0D20180C6D20080C0D27C
:10064B000280BCD2D580BAD20580B47F2012059E21
:10065B002002077401B5090040F112055BFF12057A
:10066B009E0205D8D208D206809512055BFB1205B7
:10067B005BFA12055BF94A4B700679817A087BFFAE
:10068B0020022EE509602A7E008E82758300120BF4
:10069B00ED60060EEE650A70F0C2D5EBC0E0EAC065
:1006AB00E0E9C0E0EE1207F7D0E0F9D0E0FAD0E0D5
:1006BB00FB120BD4FF60AAEBC0E0EAC0E0E9C0E09C
:1006CB0012059ED0E02401F9D0E03400FAD0E0FB13
:1006DB00E50A0460DCD50AD980877BFF7A0779F3BA
:1006EB00D202809C791080027908C206C208800869
:1006FB00D2D5790A8004790AC2D5E50A047002F5CD
:10070B000AE4FAFDFEFF12055BFC7B0820011312C5
:10071B00055BFD7B1030000A12055BFE12055BFFCB
:10072B007B20EC3382D592D55013C3E43000069F67
:10073B00FFE49EFEE42001039DFDE49CFCE4CBF86A
:10074B00C201EC700CCFCECDCCE824F8F870F3805E
:10075B0017C3EF33FFEE33FEED33FDEC33FCEB331E
:10076B00FB994002FB0FD8E9EB300105F8D0E0C450
:10077B0048B201C0E00AEC4D4E4F78207B0070C2AE
:10078B00EAB50A0040BCC0E01207F9D0F0D0E02077
:10079B000104C4C0E0C4B201C0F0120587D0F0D58B
:1007AB00F0EB0205D8120E4406755306EF580646B9
:1007BB004C06424206F34F06FB4406FB49065B43DD
:0807CB0007015506E54606E5AD
:1007D3004506E54708A150064A2D064E2E06712B05
:1007E300065223066F20088A2A060A480000066973
:1007F3003F3F3F00790AA2D5200314300509B91001
:10080300020404B9080104A2D52006025001042001
:1008130002689202B509005034C0E07F203003190A
:100823007F30A20272067205500F120850C202C234
:1008330006C205C2087F30800F300503E9C0E0120D
:10084300059E300503D0E0F9D0E0B509CC3005179B
:100853007F30B9100C12059E7F583004077F7880D3
:1008630003B9080312059E3002057F2D02059E7F02
:10087300202008F87F2B2006F322920280CF286ED7
:10088300756C6C2900D20112055B3001F8C2017846
:100893000930D50108F602060A2D504349581205BE
:1008A3005B2403B405004001E490089C9312058F78
:0D08B300743A12058FD2037509040206EF96
:100E1200BB010689828A83F0225002F722BBFE01BF
:020E2200F322B9
:100E2400F8E0FBA3A3E0F925F0F0E5821582700257
:070E34001583E0FA38F022FB
:090E3B00EBF0A3EAF0A3E9F022B8
:100E4400D083D082F8E4937012740193700DA3A33D
:100E540093F8740193F5828883E473740293686051
:060E6400EFA3A3A380DF51
:10231000EFB40A07740D12231B740A309811A899A0
:10232000B8130CC2983098FDA899C298B811F6302D
:0723300099FDC299F5992205
:00000001FF
