:0300000002288F44
:0C288F00787FE4F6D8FD7581210228D680
:1000030012181E7FF47E011233BE7B017A00790041
:100013009000087416F07D17122ED8120C4480FE3F
:0733F80044024C000000003C
:1033BE00EF4E601A900244E0FCA3E0FDED1D70019B
:0E33CE001C144C70F7EF1F70011E144E70E6B9
:0133DC0022CE
:08340C0090007DE0FEA3E0FF4B
:0A341400EF1FAC0670011E4C70F6AD
:01341E00228B
:10339800900244E0FCA3E0FD121530E47B83FAF9C7
:1033A800F812138C9002481214CD900248E0C3130F
:0633B800FEA3E013FF225A
:10334500900247E06599600AE599F0E4900246F03D
:103355008006900246E004F0900246E0C394E974CA
:0C33650080948040060075C760000022C4
:0B2CC70090008CEBF0A3EAF0A3E9F012
:102CD2009000F77401F0A37400F0A3748FF09000D9
:102CE2008CE0F9A3E0FAA3E09000FAC9F0A3EAF0BD
:102CF200A3E9F09000F7E0F9A3E0FAA3E09000FD69
:102D0200C9F0A3EAF0A3E9F07B017A0079B71230A7
:102D1200B59000F7E4F0A3F0A3F07B017A0079B755
:052D22007F0102324EAA
:10255200EF14601614602C14604D14606C14700338
:102562000225E62405600302260990FE02E0547E5D
:102572004480F0E030E0F390FE00E054FCF090FE86
:1025820003807A90FE04E0547E4480F0E030E0F371
:1025920090FE00E054FC4403F090FE02E4F090FE52
:1025A20008F090FE03F02290FE08E0547E4480F092
:1025B200E030E0F390FE00E054FC4402F090FE04B0
:1025C200E4F090FE02F0A3F02290FE03E0543E44B9
:1025D20080F0E030E0F390FE00E054FC4401F09023
:1025E200FE02801990FE03E0543E44C0F0E030E069
:1025F200F390FE00E054FC4401F090FE02E4F090FF
:08260200FE08F090FE04F02236
:0C342D00EF90FE01700304F022EFF0228B
:10181E0043BA80AF9FE4FCFDFEC004A905AA06AB47
:10182E000778FBE6FFD000C3EF9BFFEE9AFEED9923
:10183E00FDEC98FCE47BF07AD2F9F812138CC3E439
:10184E009FFF74369EFE746E9DFD74019CFC90008D
:10185E00041214CD900004E0FCA3E0FDA3E0FEA36F
:10186E00E0FFC00790FE01E0FBE4FAF9F8D00712A2
:10187E0014179000041214CD7FC07EF67D577C00A5
:10188E00900004E0F8A3E0F9A3E0FAA3E0FBC31292
:10189E0014A9500D90024C1214D900546000021A73
:1018AE004D7FC07E267D827C00900004E0F8A3E090
:1018BE00F9A3E0FAA3E0FBC31214A9500D90024C59
:1018CE001214D9005B8D80021A4D7F807EED7DAFA4
:1018DE007C00900004E0F8A3E0F9A3E0FAA3E0FB9B
:1018EE00C31214A9500D90024C1214D900A8C000B6
:1018FE00021A4D7F807E2D7DE87C00900004E0F87A
:10190E00A3E0F9A3E0FAA3E0FBC31214A9500D90D3
:10191E00024C1214D900B71B00021A4D7F807E367E
:10192E007D257C01900004E0F8A3E0F9A3E0FAA382
:10193E00E0FBC31214A9500D90024C1214D90119D8
:10194E004000021A4D7F807E567D417C019000043E
:10195E00E0F8A3E0F9A3E0FAA3E0FBC31214A95048
:10196E000D90024C1214D901312D00021A4D7F0038
:10197E007EDB7D5F7C01900004E0F8A3E0F9A3E03C
:10198E00FAA3E0FBC31214A9500D90024C1214D905
:10199E0001518000021A4D7F607E197D857C019079
:1019AE000004E0F8A3E0F9A3E0FAA3E0FBC31214ED
:1019BE00A9500D90024C1214D9016E3600021A4D28
:1019CE007F207EE07DB27C01900004E0F8A3E0F978
:1019DE00A3E0FAA3E0FBC31214A9500C90024C1220
:1019EE0014D9019BFCC080577FE07EA67DE07C0170
:1019FE00900004E0F8A3E0F9A3E0FAA3E0FBC31221
:101A0E0014A9500C90024C1214D901C9C380802F16
:101A1E007F607E2B7DFF7C01900004E0F8A3E0F94F
:101A2E00A3E0FAA3E0FBC31214A990024C500912D2
:101A3E0014D901FA400080071214D902160EC0E420
:101A4E007B107A27F9F890024CE0FCA3E0FDA3E0AE
:101A5E00FEA3E0FF121417900244EEF0A3EFF0E4A1
:0D1A6E00900247F0900246F0123285D2AF90
:011A7B002248
:0B248D0090000DEBF0A3EAF0A3E9F0D3
:102498007F647E0012339890007DEEF0A3EFF090F9
:1024A800007A7401F0A37400F0A37410F090000D8A
:1024B800E0F9A3E0FAA3E09000FAC9F0A3EAF0A3D8
:1024C800E9F090007AE0F9A3E0FAA3E09000FDC9F2
:1024D800F0A3EAF0A3E9F07B017A00793A1230B56B
:1024E800900038EEF0A3EFF090007AE4F0A3F0A3A8
:1024F800F07FF47E011233BEE4FBFAD3900039E09A
:102508009B900038E09A40E9D2B1C2B112340C7401
:102518003A2BF58274003AF583E0F9E4FDEDC394B3
:1025280008748094805014E930E004D2B18002C26B
:10253800B1E9C313F912340C0D80E2D2B112340C94
:0A25480012340C0BBB00010A80B135
:0B26B400900250EBF0A3EAF0A3E9F065
:1026BF00E4FFFE900256F0A3F0A3F0A3F0900250B7
:1026CF00E0FBA3E0FAA3E0F912127F6077900259C2
:1026DF00E004F07006900258E004F0900253E0FB23
:1026EF00A3E0FAA3E0F98F828E83121298FD900275
:1026FF0050E0FBA3E0FAA3E0F912127FB505070F34
:10270F00BF00010E8012E4FEFF900258E0FDA3E02F
:10271F00900256CDF0A3EDF0900251E475F0011246
:10272F001360900253E0FBA3E0FAA3E0F98F828ECF
:10273F0083121298FD3395E04D7082900256E0FEA1
:08274F00A3E0FF227EFF7FFFE3
:01275700225F
:1022D600E4900275F0900277F0900276F090027624
:1022E600E0C3940A7480948040030223B8E07E0021
:1022F6002DF582EE3CF583121298FF3395E0FEC36E
:10230600EF9430EE648094804052D3EF9437EE64BD
:102316008094805047900277E004F0E064017019E1
:10232600900276E07E002DF582EE3CF5831212983F
:1023360024D0C454F0900275F0900277E0640270E5
:102346001B900276E07E002DF582EE3CF58312129C
:102356009824D0FF900275E04FFFF022900276E0BD
:102366007E002DF582EE3CF583121298FF3395E040
:10237600FEC3EF9438EE648094804011D3EF943915
:10238600EE648094805006900277E004F090027626
:10239600E07E002DF582EE3CF583121298FF642C48
:1023A6006010EF3395E04F6009900276E004F0028A
:0723B60022E3900275E0FF35
:0123BD0022FD
:0823BE00900266ECF0A3EDF0C3
:1023C600E4A3F0A3F0A3F090026AE0FFC3941474B0
:1023D6008094804003022484900267E02FFF9002DD
:1023E60066E034008F82F583121298FF3395E0FE83
:1023F600C3EF9430EE648094804051D3EF9439EE6D
:10240600648094805046900268E0FEA3E0FF7C0062
:102416007D0A1212F9900268EEF0A3EFF0A3E0FF36
:10242600900267E02FFF900266E034008F82F5830A
:10243600121298FF3395E0FEEF24D0FFEE34FFFE34
:10244600900269E02FF0900268E03EF090026AE0A8
:10245600FF900267E02FFF900266E034008F82F55E
:1024660083121298FF642C6015EF642E6010EF3310
:1024760095E04F600990026AE004F00223CD9002D5
:0624860068E0FEA3E0FF88
:01248C00222D
:101F8800900232EBF0A3EAF0A3E9F0A3ECF0A3EDA2
:011F9800F058
:101F9900E490023EF0A3F0A3F0A3F0A3F0A3F09025
:101FA900023CF0A3F0900235E0FEA3E0FF90023C72
:101FB900E0FCA3E0FDC39FEC9E4003022058900281
:101FC90037E0FBA3E0FAA3E0F990023EE0FEA3E0CC
:101FD900F5828E83121298FF900232E0FBA3E0FA99
:101FE900A3E0F98D828C83121298B5073390023FD2
:101FF900E004F0700690023EE004F090023AE0FE40
:10200900A3E0FF90023EE0B50631A3E0B5072C90AE
:10201900023CE0FFA3E0900242CFF0A3EFF0802F53
:10202900E490023EF0A3F090023DE02401FE90020C
:102039003CE03400900240F0A3CEF090023DE00471
:10204900F06003021FAE90023CE004F0021FAE9064
:102059000242E0FEA3E0FF900240E0FCA3E0FDD3D2
:102069009FEC9E504490023CECF0A3EDF0900242AC
:10207900E0FEA3E0FF90023CE0FCA3E0FDC39FEC7F
:102089009E5023900232E0FBA3E0FAA3E0F98D828F
:102099008C83E41212D790023DE004F070CF9002D5
:0B20A9003CE004F080C77F01227F00B4
:0120B4002209
:101DE6006770696F5F757070756C6C283C44253040
:101DF60032583E2C2564293BB2BBB4E6D4DAB8C3CC
:101E0600494F0D0A006770696F5F757070756C6C6D
:101E1600283C44253032583E2C31293BB2BBB4E62F
:101E2600D4DAB8C3494F0D0A006770696F5F7570E1
:101E360070756C6C283C44253032583E2C30293B5A
:101E4600B2BBB4E6D4DAB8C3494F0D0A006770696D
:101E56006F5F6D6F6465283C44253032583E2C25F3
:101E660064293BB2BBB4E6D4DAB8C3494F0D0A00C5
:101E76006770696F5F6D6F64652844253032582C32
:101E86003C25643E293BB2BBB4E6D4DAB8C3C4A34E
:101E9600CABD0D0A006770696F5F7772697465283D
:101EA6003C25643E2C2564293BB2BBB4E6D4DAB8A3
:101EB600C350BFDA0D0A006770696F5F72656164AF
:101EC600283C5025643E293BB2BBB4E6D4DAB8C3FD
:101ED60050BFDA0D0A006770696F5F6F7574283C32
:101EE60044253032583E2C2564293BB2BBB4E6D497
:101EF600DAB8C3494F0D0A006770696F5F6F757472
:101F0600283C44253032583E2C31293BB2BBB4E63E
:101F1600D4DAB8C3494F0D0A006770696F5F6F75F1
:101F260074283C44253032583E2C30293BB2BBB491
:101F3600E6D4DAB8C3494F0D0A006770696F5F6966
:101F46006E283C44253032583E293BB2BBB4E6D419
:101F5600DAB8C3494F0D0A006770696F5F746F671F
:101F6600676C65283C44253032583E293BB2BBB4E9
:101F7600E6D4DAB8C3494F0D0A000102040810205E
:021F8600408099
:0A20B50090000CEDF090000BEFF02E
:1020BF00648870030221C6E0FF54F0F50DEF540F52
:1020CF00FF901F8093F50ED3EF9407748094804098
:1020DF00237BFF7A1D79E690000BE0FF900010E460
:1020EF00F0A3EFF090000CE0FF900012E4F0A3EFEC
:1020FF00F012248D90000CE06055E50D24F0602166
:10210F0024F0602224F0602324F0602424F0602562
:10211F0024F0602624F060272470702B90FE10802E
:10212F002190FE11801C90FE12801790FE138012DA
:10213F0090FE14800D90FE15800890FE168003907F
:10214F00FE17E0450EF0227BFF7A1E790B8058E5D3
:10215F000D24F0602124F0602224F0602324F0602D
:10216F002424F0602524F0602624F060272470706A
:10217F003090FE10802190FE11801C90FE1280176F
:10218F0090FE13801290FE14800D90FE1580089023
:10219F00FE16800390FE17E0FFE50EF4FEEF5EF0F3
:1021AF00227BFF7A1E792F90000BE0FF900010E446
:0721BF00F0A3EFF012248DE4
:0121C60022F6
:0A0F6B0090000CEDF090000BEFF089
:100F75006488700302127EE0FF54F0F50DEF540F04
:100F8500FF901F8093F50ED3EF94077480948040F3
:100F9500237BFF7A1E795390000BE0FF900010E44D
:100FA500F0A3EFF090000CE0FF900012E4F0A3EF47
:100FB500F012248DE50D24F0602124F0602224F048
:100FC500602324F0602424F0602524F0602624F0BA
:100FD500602724707028E4F50D8046750D01804169
:100FE500750D02803C750D038037750D04803275D3
:100FF5000D05802D750D068028750D0780237BFF57
:101005007A1E795390000BE0FF900010E4F0A3EFF7
:10101500F090000CE0FF900012E4F0A3EFF0122432
:101025008D90000CE0FFD3940374809480401C7B6A
:10103500FF7A1E797690000BE0FD900010E4F0A396
:10104500EDF0A3E4F0A3EFF012248DE50D704090D0
:10105500000CE0FF7E007007E50EF452935294EF0A
:1010650064014E7009E50E4293E50EF4529490002A
:101075000CE064027008E50E4293E50E4294900080
:101085000CE064037009E50EF45293E50E4294E515
:101095000D6401704090000CE0FF7E007007E50EC6
:1010A500F452915292EF64014E7009E50E4291E5BA
:1010B5000EF4529290000CE064027008E50E429125
:1010C500E50E429290000CE064037009E50EF452BF
:1010D50091E50E4292E50D6402704090000CE0FF30
:1010E5007E007007E50EF452955296EF64014E703E
:1010F50009E50E4295E50EF4529690000CE0640267
:101105007008E50E4295E50E429690000CE06403EA
:101115007009E50EF45295E50E4296E50D640370EF
:101125004090000CE0FF7E007007E50EF452B152CE
:10113500B2EF64014E7009E50E42B1E50EF452B20C
:1011450090000CE064027008E50E42B1E50E42B273
:1011550090000CE064037009E50EF452B1E50E420F
:10116500B2E50D6404704090000CE0FF7E0070074E
:10117500E50EF452B352B4EF64014E7009E50E4228
:10118500B3E50EF452B490000CE064027008E50E6D
:1011950042B3E50E42B490000CE064037009E50E1D
:1011A500F452B3E50E42B4E50D6405704090000CB1
:1011B500E0FF7E007007E50EF452C952CAEF6401E4
:1011C5004E7009E50E42C9E50EF452CA90000CE0D6
:1011D50064027008E50E42C9E50E42CA90000CE0B3
:1011E50064037009E50EF452C9E50E42CAE50D64C3
:1011F50006704090000CE0FF7E007007E50EF4528B
:10120500CB52CCEF64014E7009E50E42CBE50EF4EE
:1012150052CC90000CE064027008E50E42CBE50E5E
:1012250042CC90000CE064037009E50EF452CBE566
:101235000E42CCE50D6407704090000CE0FF7E0087
:101245007007E50EF452E152E2EF64014E7009E5D4
:101255000E42E1E50EF452E290000CE064027008E3
:10126500E50E42E1E50E42E290000CE064037009F0
:09127500E50EF452E1E50E42E23F
:01127E00224D
:102D2700EFB40900503A902D34F8282873022D4F3C
:102D3700022D52022D55022D58022D5B022D5E02E7
:102D47002D61022D64022D808D80228D90228DA011
:102D5700228DB0228DC0228DC8228DE8228DF822C7
:102D67007BFF7A1E799B900010E4F0A3EFF0AF058C
:0A2D7700A3E4F0A3EFF012248D2274
:102D8100EFB40900503D902D8EF8282873022DA92B
:102D9100022DAC022DAF022DB2022DB5022DB802CB
:102DA1002DBB022DBE022DC1AF8022AF9022AFA05C
:102DB10022AFB022AFC022AFC822AFE822AFF822C3
:102DC1007FFF227BFF7A1E79BD900010E4F0A3EF14
:072DD100F012248D7FFF22A8
:0A21C70090000CEDF090000BEFF01B
:1021D100648870030222D5E0FF54F0F50DEF540F2F
:1021E100FF901F8093F50ED3EF9407748094804085
:1021F100237BFF7A1E79DC90000BE0FF900010E456
:10220100F0A3EFF090000CE0FF900012E4F0A3EFD8
:10221100F012248D90000CE06052E50D24F0602155
:1022210024F0602224F0602324F0602424F060254F
:1022310024F0602624F0602724707028E50E428087
:1022410022E50E429022E50E42A022E50E42B02286
:10225100E50E42C022E50E42C822E50E42E822E523
:102261000E42F8227BFF7A1E79FE8058E50D24F09C
:10227100602224F0602424F0602624F0602824F0F9
:10228100602A24F0602C24F0602E24707030E50E5A
:10229100F4528022E50EF4529022E50EF452A0226F
:1022A100E50EF452B022E50EF452C022E50EF452CE
:1022B100C822E50EF452E822E50EF452F8227BFF23
:1022C1007A1F791F90000BE0FF900010E4F0A3EF5C
:0422D100F012248D56
:0122D50022E6
:05260A00900278EFF0E2
:10260F0064887002FF22900278E0FF54F0F50DEF1E
:10261F00540FFF901F8093F50ED3EF94077480949F
:10262F008040167BFF7A1F7940900278E0FF900080
:10263F0010E4F0A3EFF012248DE50D24F0602124B7
:10264F00F0602224F0602324F0602424F06025241D
:10265F00F0602624F060272470702885800F803961
:10266F0085900F803485A00F802F85B00F802A852D
:10267F00C00F802585C80F802085E80F801B85F847
:10268F000F80167BFF7A1F7940900278E0FF900051
:10269F0010E4F0A3EFF012248DE50F550E60037FC9
:0426AF0001227F0085
:0126B3002204
:05275800900279EFF092
:10275D00648870030227F4E0FF54F0F50DEF540F79
:10276D00FF901F8093F50ED3EF94077480948040F3
:10277D00167BFF7A1F795E900279E0FF900010E4DE
:10278D00F0A3EFF012248DE50D24F0602124F0600C
:10279D002224F0602324F0602424F0602524F060CE
:1027AD002624F0602724707028E50E628022E50E45
:1027BD00629022E50E62A022E50E62B022E50E6265
:1027CD00C022E50E62C822E50E62E822E50E62F82F
:1027DD00227BFF7A1F795E900279E0FF900010E472
:0727ED00F0A3EFF012248DB0
:0127F40022C2
:10314600EFB40800503E903153F828287302316BD3
:1031560002316F02317302317702317B02317F0215
:103166003183023187ED628022ED629022ED62A00A
:1031760022ED62B022ED62C022ED62C822ED62E865
:0531860022ED62F822B9
:1027F500A907EB6048E9B40800400302288E902839
:102805000AF828287302282202282602282A0228E4
:102815002E02283202283602283A02283EED42804E
:1028250022ED429022ED42A022ED42B022ED42C0BF
:1028350022ED42C822ED42E822ED42F822E9B40831
:1028450000504690284FF828287302286702286C04
:1028550002287102287602287B0228800228850238
:10286500288AEDF4528022EDF4529022EDF452A024
:1028750022EDF452B022EDF452C022EDF452C822FA
:0A288500EDF452E822EDF452F822BF
:102E2F00EFB409005045902E3CF8282873022E5716
:102E3F00022E5B022E5F022E63022E67022E6B02A2
:102E4F002E6F022E73022E77AE80801FAE90801BE6
:102E5F00AEA08017AEB08013AEC0800FAEC8800B8F
:102E6F00AEE88007AEF880037F0122EE5D60037F3E
:042E7F0001227F00AD
:012E8300222C
:08343900303136371617434409
:1032850075985053873F538EDEE4FD7F01122FCD95
:103295009000091214D90001C2007F0112318B433D
:1032A5008E4053890FC2ABC28FD28EC209D2AC22D7
:102FCD00900008EDF0EF147044900008E0FF54C03D
:102FDD00FEE5A2543F4EF5A2EFC41313540325E0B2
:102FED002439F582E43434F583E493FFE4FD120FC4
:102FFD006B900008E0C41313540325E0243AF582C6
:0E300D00E43434F583E493FF7D03120F6B224D
:05318B00900008EFF0C8
:10319000E47B04FAF9F890024CE0FCA3E0FDA3E024
:1031A000FEA3E0FF121417900009E0F8A3E0F9A3D2
:1031B000E0FAA3E0FB121417C3E49FFFE49EFE9025
:0B31C0000008E01470058F8BEEF58D09
:0131CB0022E1
:0E341F00EF147009AF058F99D2092009FD2224
:1033DD00EF147016EB6006D29BD29B8004C29BC289
:0B33ED009BAF058F99D2092009FD223B
:10324E009000FAEBF0A3EAF0A3E9F0AE079000FAD3
:10325E00E0FBA3E0FAA3E0F912127F6019AF06902B
:10326E0000FAA3E475F001121376A9F0FA12127F98
:07327E00FD12341F80D7226E
:0E2C61009001ACEFF0A3EBF0A3EAF0A3E9F0D2
:102C6F009002187401F0A37401F0A374B0F09001F6
:102C7F00ADE0F9A3E0FAA3E09000FAC9F0A3EAF0FF
:102C8F00A3E9F0900218E0F9A3E0FAA3E09000FDA9
:102C9F00C9F0A3EAF0A3E9F07B017A0179D81230E9
:102CAF00B5900218E4F0A3F0A3F09001ACE0FF7B25
:082CBF00017A0179D802324EBE
:030023000230FFA9
:1030FF00C0E0C0F0C083C082C0D075D000C000C097
:10310F0001C002C003C004C005C006C00730980547
:10311F00C298123345309904C299C209D007D0061C
:10312F00D005D004D003D002D001D000D0D0D082AF
:07313F00D083D0F0D0E03294
:0833FF0041025F0041025E0083
:102F2C00900002121298FF90025EE06F6042121243
:102F3C007FFEC4540F90025CF0EE540FFEF8740147
:102F4C00088002C333D8FC90025DF090000112128D
:102F5C0098FEC4540F90025AF0EE540FFEF8740110
:102F6C00088002C333D8FC90025BF090025EEFF055
:012F7C002232
:10291B0090026BEBF0A3EAF0A3E9F0A3EDF09002C9
:10292B006BE0FBA3E0FAA3E0F9ED1212C590026F86
:10293B00E0FF90026BE0FBA3E0FAA3E0F99000014B
:10294B00EF1212D790026EE0FF7D02120F6B900216
:10295B006FE0FF7D02120F6B90026EE0FF7D0112A4
:10296B0020B590026FE0FF7D011220B590026EE062
:10297B00FF7D011221C790026FE0FF7D011221C77D
:10298B0090025FE004FFF090026BE0FBA3E0FAA380
:0C299B00E0F9900002EF1212D7022F2C7E
:1031CC0090025EE06F6039EDC4540F90025CF0ED3C
:1031DC00540FFEF87401088002C333D8FC90025DD2
:1031EC00F0EBC4540F90025AF0EB540FFEF874013C
:1031FC00088002C333D8FC90025BF090025EEFF0C3
:01320C00229F
:0A2E840090000AEDF0900009EFF055
:102E8E007D02120F6B90000AE0FF7D02120F6B9015
:102E9E000009E0FF7D011220B590000AE0FF7D01E0
:102EAE001220B5900009E0FF7D011221C790000AA3
:102EBE00E0FF7D011221C790025FE004F0FCFF905D
:0A2ECE000009E0FDA3E0FB0231CC97
:102DD80090025AE0FFA3E0FD7B011227F590025C08
:102DE800E0FFA3E0FD7B011227F590025AE0FFA364
:102DF800E0FD122E2FEF70037FFF2290025AE0FFB2
:102E0800A3E0FD12314690025AE0FFA3E0FD122E26
:102E18002FEF640170037FFF2290025CE0FFA3E0C4
:072E2800FD1231467F00227C
:1032B50090025AE0FFA3E0FDE4FB1227F590025CC3
:1032C500E0FFA3E0FDE4FB1227F590025CE0FFA31D
:1032D500E0FD12314690025AE0FFA3E0FD023146BF
:1032E50090025CE0FFA3E0FDE4FB1227F590025A93
:1032F500E0FFA3E0FDE4FB1227F590025CE0FFA3ED
:10330500E0FD12314690025CE0FFA3E0FD0231468C
:1033150090025CE0FFA3E0FDE4FB1227F590025A62
:10332500E0FFA3E0FD7B011227F590025CE0FFA31F
:10333500E0FD12314690025CE0FFA3E0FD0231465C
:10301B0090025CE0FFA3E0FDE4FB1227F590025A5F
:10302B00E0FFA3E0FD7B011227F590025CE0FFA31C
:10303B00E0FD12314690025AE0FFA3E0FD122E2F65
:10304B00EF640190025C700BE0FFA3E0FD123146D0
:0E305B007FFF22E0FFA3E0FD1231467F00223E
:0529A7009000A0EFF01C
:1029AC009000A2F090025A30E709E0FFA3E0FD7B13
:1029BC00018007E0FFA3E0FDE4FB1227F590025C29
:1029CC00E0FFA3E0FDE4FB1227F5E49000A1F090FA
:1029DC0000A1E0C394087480948050449000A0E05F
:1029EC00FF9000A2E06F30E70B90025AE0FFA3E0EB
:1029FC00FD12314690025CE0FFA3E0FD12314690DF
:102A0C0000A0E09000A2F025E09000A0F090025C05
:102A1C00E0FFA3E0FD1231469000A1E004F080AF8E
:012A2C002287
:102BF900E49000A1F090025AE0FFA3E0FD7B0112EE
:102C090027F5E49000A0F09000A0E0C39408748038
:102C19009480503EA3E025E0F090025CE0FFA3E041
:102C2900FD7B011227F590025AE0FFA3E0FD122E69
:102C39002FEF640170079000A1E04401F090025C5D
:102C4900E0FFA3E0FDE4FB1227F59000A0E004F00B
:072C590080B59000A1E0FF2F
:012C60002251
:0B2B8F00900270EBF0A3EAF0A3E9F065
:102B9A00E4900274F0900273F0900273E0C39480A0
:102BAA00748094805043122DD8900273E025E0FF80
:102BBA001229A712301BEF7025900273E025E0FF5F
:102BCA00900270E0FBA3E0FAA3E0F9900274E0F54A
:102BDA0082758300EF1212D7900274E004F0123269
:0E2BEA00B5900273E004F080B0900274E0FF3A
:012BF80022BA
:101C32006D6F64656C3D756E6B6F6E770D0A006D2E
:101C42006F64656C3D415432344330310D0A006D8E
:101C52006F64656C3D415432344330320D0A006D7D
:101C62006F64656C3D415432344330340D0A006D6B
:101C72006F64656C3D415432344330380D0A006D57
:101C82006F64656C3D415432344331360D0A006D48
:101C92006F64656C3D415432344333320D0A006D3A
:101CA2006F64656C3D415432344336340D0A006D25
:101CB2006F64656C3D41543234433132380D0A0051
:101CC2006D6F64656C3D41543234433235360D0AD2
:101CD200006D6F64656C3D41543234433531320DD1
:101CE2000A00253033752D4F6B210D0A0025303344
:101CF200752D496E6974206572726F72210D0A002A
:101D0200253033752D4E6F61636B206572726F7271
:101D1200210D0A00253033752D53656E64206572DE
:101D2200726F72210D0A00253033752D4164647281
:101D3200206572726F72210D0A00253033752D4EA7
:101D4200756D626572206572726F72210D0A0020D4
:101D520020202020203030203031203032203033FB
:101D620020303420303520303620303720303820B3
:101D7200303920304120304220304320304420305E
:101D8200452030460D0A002D2D2D2D2D2D2D2D2DCA
:101D92002D2D2D2D2D2D2D2D2D2D2D2D2D2D2D2D71
:101DA2002D2D2D2D2D2D2D2D2D2D2D2D2D2D2D2D61
:101DB2002D2D2D2D2D2D2D2D2D2D2D2D2D2D0D0A94
:101DC20000253034583A20002530325820007C005B
:101DD20025630020000D0A00746F74616C3A256C53
:041DE200750D0A0071
:0434070041027A0004
:10320D00900009EBF0A3EAF0A3E9F0900009E0FBD0
:10321D00A3E0FAA3E0F9900001121298FF900002CA
:10322D00121298FD900003121298FB1231CC9000EF
:10323D0009E0FBA3E0FAA3E0F912127F90027AF005
:01324D00225E
:102F7D00900260EBF0A3EAF0A3E9F0900264E0FFA9
:102F8D00900260E0FBA3E0FAA3E0F9900002EF12DB
:102F9D0012D7900265E09000031212D7ED1212C500
:102FAD00900264E0FFA3E0FD122E84900260E0FB2E
:102FBD00A3E0FAA3E0F9900001EF1212D702320D4F
:1000260090021BEEF0A3EFF0A3EBF0A3EAF0A3E936
:01003600F0D9
:1000370090027AE0FB54F012150A0066000069107E
:1000470000852000973000AE4000C85000E46000F3
:10005700F07000FC800108900114A0000001307FBF
:1000670001229002261214D900000080EB540724C5
:1000770050900231F09002307408F0020130900283
:10008700261214D90000010090027AE05407803F3D
:100097009002261214D90000020090021BE0FF9084
:1000A700027AE0540680159002261214D900000443
:1000B7000090021BE0FF90027AE0540424502F8046
:1000C700109002261214D90000080090021BE024A9
:1000D70050900231F09002307410F0804C9002265C
:1000E7001214D900001000802E9002261214D90095
:1000F70000200080229002261214D90000400080C0
:10010700169002261214D900008000800A90022659
:100117001214D90001000090027AE054072450908D
:100127000231F09002307420F090021BE0FEA3E051
:10013700FFE4FCFD900226E0F8A3E0F9A3E0FAA3B0
:10014700E0FBC31214A950037F0422900220E0FEB3
:10015700A3E0FBAA0690021BE0FEA3E0FFEF2BFF44
:10016700EE3AFEE433FDE433FC900226E0F8A3E028
:10017700F9A3E0FAA3E0FBC31214A9502890021BCD
:10018700E0FEA3E0FBAA06900226E0FCA3E0FDA3A5
:10019700E0FEA3E0C39BFFEE9AFEED9400FDEC9416
:1001A70000FCA3800E900220E0FEA3E0FFE4FCFD2C
:1001B70090022A1214CD900230E0FD7C0090021BC1
:1001C700E0FEA3E0FF12130B90022EEEF0A3EFF078
:1001D700122DD8900231E025E0FF1229A712301B1B
:1001E700EF6003020429900230E06420701190024E
:1001F7001BE0FF1229A712301BEF600302042990AE
:10020700021CE0FF1229A712301BEF60030204292A
:100217009002221214D90000000090022AE0FCA3E9
:10022700E0FDA3E0FEA3E0FF900222E0F8A3E0F9DF
:10023700A3E0FAA3E0FBC31214A9400302047D90D4
:10024700021BE0FEA3E0FFE4FCFD900222E0F8A31E
:10025700A3A3E02FFFEA3EFEED39FDEC38FCC00713
:10026700900230E0FBE4FAF9F8D007121417A8045B
:10027700A905AA06AB0790022EE0FEA3E0FFE4FC67
:10028700FDC31214A9700302042F90021BE0FEA302
:10029700E0FFE4FCFD900222E0F8A3E0F9A3E0FA16
:1002A700A3E02FFFEA3EFEED39FDEC38FCC00790D6
:1002B7000230E0FBE4FAF9F8D00712141790022E87
:1002C700EEF0A3EFF01232B590027AE0FF54F0128D
:1002D700150A02FB1003952002FF30032F4003622B
:1002E700500395600395700395800395900395A03F
:1002F700000003A1EF02038F90021BE0FEA3E0FFC3
:10030700E4FCFD900222E0F8A3E0F9A3E0FAA3E001
:100317002FFFEA3EFEED39FDEC38FC78081214BADF
:1003270090027AE05406802E90021BE0FEA3E0FFC5
:10033700E4FCFD900222E0F8A3E0F9A3E0FAA3E0D1
:100347002FFFEA3EFEED39FDEC38FC78081214BAAF
:1003570090027AE0540424502F803B90021BE0FE69
:10036700A3E0FFE4FCFD900222E0F8A3E0F9A3E09C
:10037700FAA3E02FFFEA3EFEED39FDEC38FC7808E2
:100387001214BAEF2450800E5407245080089002AC
:100397007AE054072450900231F07F0A7E0012332E
:1003A700BE122DD8900231E025E0FF1229A71230A6
:1003B7001BEF6002806C900230E06420703790027F
:1003C7001BE0FEA3E0FFE4FCFD900222E0F8A3E0BF
:1003D700F9A3E0FAA3E02FFFEA3EFEED39FDEC3882
:1003E700FCE4FB7A01F9F81214171229A712301B43
:1003F700EF6002802D90021BE0FEA3E0FFE4FCFD0E
:10040700900222E0F8A3E0F9A3E0FAA3E02FFFEAC5
:100417003EFEED39FDEC38FCE41229A712301BEF44
:1004270060061232B57F0222900222A3A3E0FEA348
:10043700E0FF90021DE0FBA3E0FAA3E0F98F828EB4
:1004470083121298FF1229A712301BEF600612328F
:10045700B57F0322900222E0FCA3E0FDA3E0FEA308
:10046700E02401FFE43EFEE43DFDE43CFC90022273
:100477001214CD0202211232B57F0A7E001233BE5A
:10048700900220E0FEA3E0FBAA0690021BE0FEA379
:10049700E0FFEF2BFFEE3AFEE433FDE433FC90027E
:1004A70026E0F8A3E0F9A3E0FAA3E0FBC31214A93E
:0704B70050037F05227F00C6
:0104BE00221B
:10157D0090008CEEF0A3EFF0A3EBF0A3EAF0A3E95B
:01158D00F06D
:10158E0090027AE0FB54F012150A15BD0015C0103A
:10159E0015CD2015DD3015F440160E5016206016B0
:1015AE003470164880165C901670A0000016867F68
:1015BE0001229000971214D900000080EB806190F8
:1015CE0000971214D90000010090027AE080519029
:1015DE0000971214D90000020090008CE0FF9002D8
:1015EE007AE0540680159000971214D9000004007A
:1015FE0090008CE0FF90027AE0540424502F807407
:10160E009000971214D90000080090008CE024502E
:10161E0080629000971214D90000100090027AE0B8
:10162E0054072450804E9000971214D900002000C9
:10163E0090027AE054072450803A9000971214D901
:10164E000000400090027AE054072450802690005B
:10165E00971214D90000800090027AE054072450AB
:10166E0080129000971214D90001000090027AE0C7
:10167E005407245090009FF090008CE0FEA3E0FFF2
:10168E00E4FCFD900097E0F8A3E0F9A3E0FAA3E0F4
:10169E00FBC31214A950037F0422900091E0FEA315
:1016AE00E0FBAA0690008CE0FEA3E0FFEF2BFFEE1E
:1016BE003AFEE433FDE433FC900097E0F8A3E0F942
:1016CE00A3E0FAA3E0FBC31214A9502890008CE00B
:1016DE00FEA3E0FBAA06900097E0FCA3E0FDA3E0CA
:1016EE00FEA3E0C39BFFEE9AFEED9400FDEC94008A
:1016FE00FCA3800E900091E0FEA3E0FFE4FCFD90C1
:10170E00009B1214CD122DD890009FE025E0FF1201
:10171E0029A712301BEF60028038E4FF7E08FDFC23
:10172E00900097E0F8A3E0F9A3E0FAA3E0FBD31250
:10173E0014A9401090008CE0FF1229A712301BEF65
:10174E006002800E90008DE0FF1229A712301BEF71
:10175E0060061232B57F0222122DD890009FE0252E
:10176E00E004FF1229A79000931214D90000000084
:10177E0090009BE0FCA3E0FDA3E0FEA3E0FF900041
:10178E0093E0F8A3E0F9A3E0FAA3E0FBC31214A9D7
:10179E0050471232E5122BF9C007900093A3A3E035
:1017AE00FEA3E0FF90008EE0FBA3E0FAA3E0F98F2A
:1017BE00828E83D0E01212D7900093E0FCA3E0FD5E
:1017CE00A3E0FEA3E02401FFE43EFEE43DFDE43C85
:1017DE00FC9000931214CD80971233151232B590EF
:1017EE000091E0FEA3E0FF90008DE02FFF90008CB3
:1017FE00E03EFEE4FCFD900097E0F8A3E0F9A3E0E4
:0F180E00FAA3E0FBC31214A950037F05227F0049
:01181D0022A8
:101A7C0090027AE054F012150A1AB7101AC8201AFC
:101A8C00DA301AEB401AFC501B0D601B1E701B2F1A
:101A9C00801B40901B51A000001AA7E4900128F075
:101AAC00A3F07BFF7A1C7932021B60900128E4F0D2
:101ABC00A304F07BFF7A1C7941021B60900128E49F
:101ACC00F0A37402F07BFF7A1C7951021B60900129
:101ADC0028E4F0A37404F07BFF7A1C796180759084
:101AEC000128E4F0A37408F07BFF7A1C7971806400
:101AFC00900128E4F0A37410F07BFF7A1C798180AC
:101B0C0053900128E4F0A37420F07BFF7A1C7991A8
:101B1C008042900128E4F0A37440F07BFF7A1C799A
:101B2C00A18031900128E4F0A37480F07BFF7A1C33
:101B3C0079B180209001287401F0A3E4F07BFF7A46
:101B4C001C79C2800F9001287402F0A3E4F07BFF93
:101B5C007A1C79D3122CC7E490012AF0A3F09001DF
:101B6C0028E0FEA3E0FFC390012BE09F90012AE048
:101B7C009E4003021C31E4FFFE90012AA3E0FD7499
:101B8C002C2FF58274013EF583EDF00FBF00010E92
:101B9C00EF64804E70E37F0A7E001233BE90012A00
:101BAC00E0FEA3E07807C333CE33CED8F9FF7B0138
:101BBC007A01792C900220E4F0A37480F0120026B4
:101BCC00EF14601814601D14602214602714602C2C
:101BDC00240570407BFF7A1C79E480267BFF7A1CFD
:101BEC0079EF801E7BFF7A1D790280167BFF7A1DB0
:101BFC007916800E7BFF7A1D792980067BFF7A1D72
:101C0C00793C90012AE0FFA3E090008FCFF0A3EF86
:101C1C00F0122CC790012BE004F0700690012AE022
:051C2C0004F0021B6A38
:011C31002290
:100C440090027AE054F012150A0C7F100C90200CDC
:100C5400A2300CB3400CC4500CD5600CE6700CF7F9
:100C6400800D08900D19A000000C6FE4900004F0B2
:100C7400A3F07BFF7A1C7932020D28900004E4F083
:100C8400A304F07BFF7A1C7941020D28900004E450
:100C9400F0A37402F07BFF7A1C7951020D289000B6
:100CA40004E4F0A37404F07BFF7A1C7961807590EE
:100CB4000004E4F0A37408F07BFF7A1C797180646B
:100CC400900004E4F0A37410F07BFF7A1C79818017
:100CD40053900004E4F0A37420F07BFF7A1C799114
:100CE4008042900004E4F0A37440F07BFF7A1C7906
:100CF400A18031900004E4F0A37480F07BFF7A1C9F
:100D040079B180209000047401F0A3E4F07BFF7AB1
:100D14001C79C2800F9000047402F0A3E4F07BFFFE
:100D24007A1C79D3122CC7900004E07002A3E070FF
:100D340003020F6A7BFF7A1D7951122CC77BFF7A5D
:100D44001D7989122CC7E490000AF0A3F0900004E6
:100D5400E0FEA3E0FFC390000BE09F90000AE09E3A
:100D64004003020F43E4900006F0A3F0900006E075
:100D7400FEA3E0FFC39480EE9400501C740C2FF586
:100D84008274003EF583E4F0900007E004F070DC28
:100D9400900006E004F080D490000AE0FEA3E0781E
:100DA40007C333CE33CED8F9FF7B017A00790C9098
:100DB4000091E4F0A37480F012157DE4900006F035
:100DC400A3F0900006E0FEA3E0FFC39408EE9400B5
:100DD4004003020F327BFF7A1D79C3EFC4F8540F2E
:100DE400C868FDEEC454F048FC90000AE0FEA3E09D
:100DF4007807C333CE33CED8F92DFFEE3C90008F65
:100E0400F0A3EFF0122CC7E4900008F0A3F09000D8
:100E140008E0FCA3E0FDC39410EC940050477BFF72
:100E24007A1D79CA900007E0C4F8540FC868FF908F
:100E34000006E0C454F048FEED2FFFEC3EFE740CB7
:100E44002FF58274003EF583E0FF90008FE4F0A359
:100E5400EFF0122CC7900009E004F070B190000884
:100E6400E004F080A97BFF7A1D79D0122CC7E490AE
:100E74000008F0A3F0900008E0FCA3E0FDC3941088
:100E8400EC94004003020F18900007E0C4F8540FDC
:100E9400C868FF900006E0C454F048FEED2FFFEC54
:100EA4003EFE740C2FF58274003EF583E0FF7E0055
:100EB400C39420748094804041D3EF947F748094D1
:100EC4008050377BFF7A1D79D2900007E0C4F85434
:100ED4000FC868FF900006E0C454F048FE90000973
:100EE400E02FFF900008E03EFE740C2FF5827400A2
:100EF4003EF583E090008FF080067BFF7A1D79D564
:100F0400122CC7900009E004F07006900008E00479
:100F1400F0020E797BFF7A1D79D7122CC790000757
:100F2400E004F07006900006E004F0020DC69000A4
:100F34000BE004F0700690000AE004F0020D517B0F
:100F4400FF7A1D7989122CC790000AE0FEA3E0FF06
:100F54007C007D8012153090008F1214CD7BFF7AB7
:060F64001D79DA122CC712
:010F6A002264
:10306900900014EFF0A3EDF0A3EBF0122DD890002F
:1030790014E0FF1229A712301BEF6002800E9000A6
:1030890015E0FF1229A712301BEF60061232B57F37
:103099000222900016E0FF1229A712301BEF6006EA
:0C30A9001232B57F03221232B57F0022E4
:092AB20090000BE0FF7B017D7F29
:102ABB00900014EFF0A3EDF0A3EBF0A3EAF0A3E981
:102ACB00F0122DD8900014E0FF1229A712301BEF43
:102ADB0060028022900015E0FF1229A712301BEF35
:102AEB0060028012122DD8900014E004FF1229A767
:102AFB0012301BEF60061232B57F0222122BF990B7
:102B0B000016E0FBA3E0FAA3E0F9EF1212C51233B3
:072B1B00151232B57F002204
:0E2B220090000BE0FF900009E0FB7DFF7C0FB0
:102B3000900014EFF0A3ECF0A3EDF0A3EBF0122D56
:102B4000D8900014E0FF1229A712301BEF6002801A
:102B50001E900015E0FF1229A712301BEF600280C3
:102B60000E900016E0FF1229A712301BEF6006122C
:102B700032B57F0222900017E0FF1229A712301B06
:0F2B8000EF60061232B57F03221232B57F0022BA
:0B2A2D0090000BE0FF7B017DFF7C0FA1
:102A3800900014EFF0A3ECF0A3EDF0A3EBF0A3EA01
:102A4800F0A3E9F0122DD8900014E0FF1229A71284
:102A5800301BEF60028032900015E0FF1229A712A8
:102A6800301BEF60028022900016E0FF1229A712A7
:102A7800301BEF60028012122DD8900014E004FF82
:102A88001229A712301BEF60061232B57F022212FC
:102A98002BF9900017E0FBA3E0FAA3E0F9EF12127C
:0A2AA800C51233151232B57F00226B
:1004BF00E490000AF0900009F0900009E0C394085E
:1004CF00748094805039122DD8900009E025E024D3
:1004DF00A0FF1229A712301BEF701990000AE070CD
:1004EF000D900009E0FF25E024A090000BF0900094
:1004FF000AE004F01232B5900009E004F080BA90DF
:10050F00000AE0FD7C00640870037F5022ED640454
:10051F004C700C90000BE0C31354042440FF229046
:10052F00000AE0FD7C006402700AA3E0C3135406C6
:10053F002430FF22ED64014C60030208DC7A00795D
:10054F000C122AB290000BE0FF7B017A00790D7D2F
:10055F00FF122ABB90000BE0FFA3E004FB7D7F128C
:10056F0030697F0A7E001233BE90000BE0FF9000CF
:10057F000DE02402FB7DFF1230697F0A7E001233EB
:10058F00BE7A00790E122AB290000BE0FF7B017A3F
:10059F0000790F7DFF122ABB90000FE0FF90000E35
:1005AF00E06F702990000DE024026F702090000B17
:1005BF00E0FFA3E0FB7D7F1230697F0A7E001233DC
:1005CF00BE90000BE0C31354072410FF2290000CC1
:1005DF00E0FB04FF90000EE06F704190000DE024EF
:1005EF0002FF90000FE06F703390000BE0FF7D7FF4
:1005FF001230697F0A7E001233BE90000BE0FF902D
:10060F00000DE0FB7DFF1230697F0A7E001233BEC2
:10061F0090000BE0C31354072420FF227A007909BE
:10062F00122A2D90000BE0FF7B017A00790C7DFFE1
:10063F007C1F122A3890000BE0FF7B017A00790DA6
:10064F007DFF7C3F122A3890000BE0FF7B017A0080
:10065F00790E7DFF7C7F122A3890000BE0FF7B0123
:10066F007A00790F74FFFDFC122A3890000BE0FF1F
:10067F00A3E004FB7DFF7C1F122B307F0A7E00124C
:10068F0033BE90000BE0FF90000DE02402FB7DFFD6
:10069F007C3F122B307F0A7E001233BE90000BE09E
:1006AF00FF90000EE02403FB7DFF7C7F122B307F39
:1006BF000A7E001233BE90000BE0FF90000FE02483
:1006CF0004FB74FFFDFC122B307F0A7E001233BE39
:1006DF007A00790A122A2D90000BE0FF7B017A0035
:1006EF0079107DFF7C1F122A3890000BE0FF7B01F1
:1006FF007A0079117DFF7C3F122A3890000BE0FFC2
:10070F007B017A0079127DFF7C7F122A3890000BD3
:10071F00E0FF7B017A00791374FFFDFC122A3890F9
:10072F000010E0FF90000AE0FE6F701F90000FE0D6
:10073F0024046E7016122B227F0A7E001233BE9095
:10074F00000BE0C31354072460FF22900011E0FF59
:10075F00900010E0FE6F703590000FE024046E7073
:10076F002C122B227F0A7E001233BE90000BE0FF6B
:10077F00A3E0FB7DFF7C1F122B307F0A7E0012331C
:10078F00BE90000BE0C31354072470FF2290001299
:10079F00E0FF900011E0FE6F704D90000FE0240419
:1007AF006E7044122B227F0A7E001233BE90000B14
:1007BF00E0FFA3E0FB7DFF7C1F122B307F0A7E0042
:1007CF001233BE90000BE0FF90000DE0FB7DFF7C2D
:1007DF003F122B307F0A7E001233BE90000BE0C316
:1007EF001354072480FF22900013E0FF900012E0C3
:1007FF00FE6F706590000FE024046E705C122B2268
:10080F007F0A7E001233BE90000BE0FFA3E0FB7D5A
:10081F00FF7C1F122B307F0A7E001233BE90000B1D
:10082F00E0FF90000DE0FB7DFF7C3F122B307F0A35
:10083F007E001233BE90000BE0FF90000EE0FB7DB8
:10084F00FF7C7F122B307F0A7E001233BE90000B8D
:10085F00E0C31354072490FF22122B227F0A7E003D
:10086F001233BE90000BE0FFA3E0FB7DFF7C1F1255
:10087F002B307F0A7E001233BE90000BE0FF9000FA
:10088F000DE0FB7DFF7C3F122B307F0A7E00123381
:10089F00BE90000BE0FF90000EE0FB7DFF7C7F120F
:1008AF002B307F0A7E001233BE90000BE0FF9000CA
:1008BF000FE0FB74FFFDFC122B307F0A7E0012331A
:0F08CF00BE90000BE0C313540724A0FF227F004C
:0108DE0022F7
:102ED800AF05900004EBF0A3EAF0A3E9F09000023C
:102EE800EF1212D7900008E0FD9000031212D712DB
:102EF8002E84900004E0FBA3E0FAA3E0F99000011F
:102F0800EF1212D71204BF900004E0FBA3E0FAA36B
:102F1800E0F9EF1212C5900004E0FBA3E0FAA3E089
:042F2800F902320D6B
:10289B00020003E493A3F8E493A34003F68001F250
:1028AB0008DFF48029E493A3F85407240CC8C3333E
:1028BB00C4540F4420C8834004F456800146F6DF0D
:1028CB00E4800B01020408102040809033F8E47E72
:1028DB00019360BCA3FF543F30E509541FFEE49302
:1028EB00A360010ECF54C025E060A840B8E493A3C9
:1028FB00FAE493A3F8E493A3C8C582C8CAC583CAF4
:10290B00F0A3C8C582C8CAC583CADFE9DEE780BEAB
:01340B0000C0
:10127F00BB010689828A83E0225002E722BBFE026D
:09128F00E32289828A83E49322A0
:10129800BB010CE58229F582E5833AF583E022500B
:1012A80006E92582F8E622BBFE06E92582F8E22255
:0D12B800E58229F582E5833AF583E493226F
:1012C500BB010689828A83F0225002F722BBFE0108
:0212D500F32202
:1012D700F8BB010DE58229F582E5833AF583E8F04D
:1012E700225006E92582C8F622BBFE05E92582C8F9
:0212F700F222E1
:1012F900EF8DF0A4A8F0CF8CF0A428CE8DF0A42E09
:02130900FE22C2
:10130B00BC000BBE0029EF8DF084FFADF022E4CCC6
:10131B00F875F008EF2FFFEE33FEEC33FCEE9DEC8F
:10132B00984005FCEE9DFE0FD5F0E9E4CEFD22EDD5
:10133B00F8F5F0EE8420D21CFEADF075F008EF2F1F
:10134B00FFED33FD4007985006D5F0F222C398FD10
:05135B000FD5F0EA22AD
:10136000C5F0F8A3E028F0C5F0F8E5821582700218
:061370001583E038F022B5
:10137600A3F8E0C5F025F0F0E5821582700215832A
:06138600E0C838F0E82287
:10138C00E88FF0A4CC8BF0A42CFCE98EF0A42CFC00
:10139C008AF0EDA42CFCEA8EF0A4CDA8F08BF0A47E
:1013AC002DCC3825F0FDE98FF0A42CCD35F0FCEBDD
:1013BC008EF0A4FEA9F0EB8FF0A4CFC5F02ECD39A2
:0F13CC00FEE43CFCEAA42DCE35F0FDE43CFC220F
:1013DB0075F008758200EF2FFFEE33FECD33CDCCC9
:1013EB0033CCC58233C5829BED9AEC99E58298404C
:1013FB000CF582EE9BFEED9AFDEC99FC0FD5F0D629
:10140B00E4CEFBE4CDFAE4CCF9A88222B800C1B952
:10141B000059BA002DEC8BF084CFCECDFCE5F0CB90
:10142B00F97818EF2FFFEE33FEED33FDEC33FCEBC9
:10143B0033FB10D703994004EB99FB0FD8E5E4F984
:10144B00FA227818EF2FFFEE33FEED33FDEC33FC71
:10145B00C933C910D7059BE99A4007EC9BFCE99A65
:10146B00F90FD8E0E4C9FAE4CCFB2275F010EF2FAA
:10147B00FFEE33FEED33FDCC33CCC833C810D707AA
:10148B009BEC9AE899400AED9BFDEC9AFCE899F8E5
:0E149B000FD5F0DAE4CDFBE4CCFAE4C8F92278
:1014A900EB9FF5F0EA9E42F0E99D42F0E89C45F099
:0114B9002210
:1014BA00E8600FECC313FCED13FDEE13FEEF13FF10
:0314CA00D8F12234
:0C14CD00ECF0A3EDF0A3EEF0A3EFF02292
:1014D900A8828583F0D083D0821214F01214F012FE
:1014E90014F01214F0E473E493A3C583C5F0C58323
:1014F900C8C582C8F0A3C583C5F0C583C8C582C85D
:0115090022BF
:10150A00D083D082F8E4937012740193700DA3A370
:10151A0093F8740193F5828883E473740293686084
:06152A00EFA3A3A380DF84
:10153000EC8EF0A4CCC5F0CCCDF8EFA4CEC5F02D48
:10154000FDE43CFCE8A42EC8C5F03DFDE43CFCEF06
:0D155000A4FFE5F028FEE43DFDE43CFC2294
:1030B5009000FAE0FFA3E0FEA3E0CF900103F0A3A8
:1030C500EEF0A3EFF09000FDE0CBF0A3E0CAF0A393
:1030D500E0C9F07F22900106AD82AC8312127F8D8C
:1030E500828C83F0A309E970010ADFEC9000FDE012
:0A30F500FBA3E0FAA3E0F90209448E
:1008DF00E5082403F582E43401F583E0050822904E
:1008EF000100300703900103E475F00112155D025A
:1008FF00127F2000E97F2ED2008018EF540F249032
:10090F00D43440D4FF30040BEF24BFB41A0050038B
:10091F002461FFE50960021509050CE50C7002055D
:10092F000B30070E900100E475F00112155DEF0218
:10093F0012C50233717403D2078003E4C207F508AE
:10094F00900100121574E4F509F50BF50CE509603B
:10095F00077F2012092280F5750AFFC201C200C26B
:10096F0002C203C205C206C2081208EEFF700D30A4
:10097F0007057F00120933AF0CAE0B22B4255FC2FF
:10098F00D5C2041208EEFF24D0B40A00501A75F035
:10099F000A780930D50508B6FF0106C6A426F62049
:1009AF00D5047002D20380D924CFB41A00EF5004BB
:1009BF00C2E5D204020B34D20180C6D20080C0D26D
:1009CF000280BCD2D580BAD20580B47F2012092212
:1009DF002002077401B5090040F11208DFFF120968
:1009EF002202095CD208D20680951208DFFB12089A
:1009FF00DFFA1208DFF94A4B700679057A0C7BFF94
:100A0F0020022EE509602A7E008E82758300121265
:100A1F009860060EEE650A70F0C2D5EBC0E0EAC032
:100A2F00E0E9C0E0EE120B7BD0E0F9D0E0FAD0E0C5
:100A3F00FB12127FFF60AAEBC0E0EAC0E0E9C0E062
:100A4F00120922D0E02401F9D0E03400FAD0E0FB03
:100A5F00E50A0460DCD50AD980877BFF7A0B7977AA
:100A6F00D202809C791080027908C206C2088008E1
:100A7F00D2D5790A8004790AC2D5E50A047002F545
:100A8F000AE4FAFDFEFF1208DFFC7B0820011312B7
:100A9F0008DFFD7B1030000A1208DFFE1208DFFFAF
:100AAF007B20EC3382D592D55013C3E43000069FE0
:100ABF00FFE49EFEE42001039DFDE49CFCE4CBF8E3
:100ACF00C201EC700CCFCECDCCE824F8F870F380D7
:100ADF0017C3EF33FFEE33FEED33FDEC33FCEB3397
:100AEF00FB994002FB0FD8E9EB300105F8D0E0C4C9
:100AFF0048B201C0E00AEC4D4E4F78207B0070C227
:100B0F00EAB50A0040BCC0E0120B7DD0F0D0E02067
:100B1F000104C4C0E0C4B201C0F012090BD0F0D57B
:100B2F00F0EB02095C12150A09F9530A735809CA46
:100B3F004C09C6420A774F0A7F440A7F4909DF43AF
:080B4F000A85550A69460A698E
:100B5700450A69470C255009CE2D09D22E09F52BD8
:100B670009D62309F3200C0E2A098E48000009ED47
:100B77003F3F3F00790AA2D5200314300509B91079
:100B8700020404B9080104A2D5200602500104207A
:100B970002689202B509005034C0E07F2030031983
:100BA7007F30A20272067205500F120BD4C202C226
:100BB70006C205C2087F30800F300503E9C0E01286
:100BC7000922300503D0E0F9D0E0B509CC3005178C
:100BD7007F30B9100C1209227F583004077F7880C4
:100BE70003B908031209223002057F2D0209227F6B
:100BF700202008F87F2B2006F322920280CF286E50
:100C0700756C6C2900D2011208DF3001F8C2017837
:100C17000930D50108F602098E2D504349581208AC
:100C2700DF2403B405004001E4900C20931209135C
:0D0C3700743A120913D203750904020A73FE
:10155D00F8E0FBA3A3E0F925F0F0E5821582700217
:07156D001583E0FA38F022BB
:09157400EBF0A3EAF0A3E9F02278
:10337100EFB40A07740D12337C740A309811A899BE
:10338100B8130CC2983098FDA899C298B811F630BC
:0733910099FDC299F5992294
:00000001FF
