:0300000002173CA8
:0C173C00787FE4F6D8FD75812102178348
:101BC40048656C6C6F2C4543424D206973207275D7
:101BD4006E696E672061742025642074696D657375
:041BE4002E0D0A00B8
:101B1800E4900000F01209A57D047F041216AC9031
:101B28000000E004F07BFF7A1B79C4E0FF90000519
:101B3800E4F0A3EFF07F041200267FE87E03120092
:031B48000380DC3B
:071C46004401300000000022
:10000300EF4E601A900128E0FCA3E0FDED1D7001A6
:0E0013001C144C70F7EF1F70011E144E70E6A7
:0100210022BC
:081C1B00900078E0FEA3E0FF59
:0A1C2300EF1FAC0670011E4C70F6B6
:011C2D002294
:101B9E00900128E0FCA3E0FD120920E47B83FAF912
:101BAE00F81207B590012C1208E390012CE0C31334
:061BBE00FEA3E013FF226C
:101B4B0090012BE06599600AE599F0E490012AF089
:101B5B00800690012AE004F090012AE0C394E97416
:0C1B6B0080948040060075C760000022D6
:0B17C8009000A8EBF0A3EAF0A3E9F00A
:1017D3009001137401F0A37400F0A374ABF09000B4
:1017E300A8E0F9A3E0FAA3E090007AC9F0A3EAF035
:1017F300A3E9F0900113E0F9A3E0FAA3E090007DE0
:10180300C9F0A3EAF0A3E9F07B017A0079D31219B6
:10181300D1900113E4F0A3F0A3F07B017A0079D314
:051823007F01021AE143
:10136F00EF14601614602C14604D14606C1470032D
:10137F000214032405600302142690FE02E0547E3B
:10138F004480F0E030E0F390FE00E054FCF090FE7B
:10139F0003807A90FE04E0547E4480F0E030E0F366
:1013AF0090FE00E054FC4403F090FE02E4F090FE47
:1013BF0008F090FE03F02290FE08E0547E4480F087
:1013CF00E030E0F390FE00E054FC4402F090FE04A5
:1013DF00E4F090FE02F0A3F02290FE03E0543E44AE
:1013EF0080F0E030E0F390FE00E054FC4401F09018
:1013FF00FE02801990FE03E0543E44C0F0E030E05E
:10140F00F390FE00E054FC4401F090FE02E4F090F3
:08141F00FE08F090FE04F0222B
:0C1C2E00EF90FE01700304F022EFF022A2
:1009A50043BA80AF9FE4FCFDFEC004A905AA06ABCF
:1009B5000778FBE6FFD000C3EF9BFFEE9AFEED99AB
:1009C500FDEC98FCE47BF07AD2F9F81207B5C3E4A4
:1009D5009FFF74369EFE746E9DFD74019CFC900015
:1009E500011208E3900001E0FCA3E0FDA3E0FEA3F3
:1009F500E0FFC00790FE01E0FBE4FAF9F8D007122A
:100A050008409000011208E37FC07EF67D577C0008
:100A1500900001E0F8A3E0F9A3E0FAA3E0FBC3121C
:100A250008D2500D9001301208EF00546000020BFF
:100A3500D47FC07E267D827C00900001E0F8A3E093
:100A4500F9A3E0FAA3E0FBC31208D2500D900130E0
:100A55001208EF005B8D80020BD47F807EED7DAFA9
:100A65007C00900001E0F8A3E0F9A3E0FAA3E0FB25
:100A7500C31208D2500D9001301208EF00A8C00033
:100A8500020BD47F807E2D7DE87C00900001E0F88C
:100A9500A3E0F9A3E0FAA3E0FBC31208D2500D903E
:100AA50001301208EF00B71B00020BD47F807E36A1
:100AB5007D257C01900001E0F8A3E0F9A3E0FAA30D
:100AC500E0FBC31208D2500D9001301208EF011956
:100AD5004000020BD47F807E567D417C0190000151
:100AE500E0F8A3E0F9A3E0FAA3E0FBC31208D250B3
:100AF5000D9001301208EF01312D00020BD47F005B
:100B05007EDB7D5F7C01900001E0F8A3E0F9A3E0C6
:100B1500FAA3E0FBC31208D2500D9001301208EF82
:100B250001518000020BD47F607E197D857C019088
:100B35000001E0F8A3E0F9A3E0FAA3E0FBC3120883
:100B4500D2500D9001301208EF016E3600020BD421
:100B55007F207EE07DB27C01900001E0F8A3E0F902
:100B6500A3E0FAA3E0FBC31208D2500C90013012A7
:100B750008EF019BFCC080577FE07EA67DE07C01ED
:100B8500900001E0F8A3E0F9A3E0FAA3E0FBC312AB
:100B950008D2500C9001301208EF01C9C380802F94
:100BA5007F607E2B7DFF7C01900001E0F8A3E0F9DA
:100BB500A3E0FAA3E0FBC31208D29001305009125A
:100BC50008EF01FA400080071208EF02160EC0E494
:100BD5007B107A27F9F8900130E0FCA3E0FDA3E053
:100BE500FEA3E0FF120840900128EEF0A3EFF0E429
:0D0BF50090012BF090012AF01218D9D2AF18
:010C020022CF
:0B12AA00900008EBF0A3EAF0A3E9F0CD
:1012B5007F647E00121B9E900078EEF0A3EFF09005
:1012C50000757401F0A37400F0A3740BF09000088E
:1012D500E0F9A3E0FAA3E090007AC9F0A3EAF0A34D
:1012E500E9F0900075E0F9A3E0FAA3E090007DC96C
:1012F500F0A3EAF0A3E9F07B017A0079351219D160
:10130500900033EEF0A3EFF0900075E4F0A3F0A3A6
:10131500F07FF47E01120003E4FBFAD3900034E081
:101325009B900033E09A40E9D2B1C2B1121C1B7404
:10133500352BF58274003AF583E0F9E4FDEDC394AD
:1013450008748094805014E930E004D2B18002C260
:10135500B1E9C313F9121C1B0D80E2D2B1121C1B9B
:0A136500121C1B0BBB00010A80B133
:0B14D100900134EBF0A3EAF0A3E9F077
:1014DC00E4FFFE90013AF0A3F0A3F0A3F0900134E6
:1014EC00E0FBA3E0FAA3E0F912070F607790013D4F
:1014FC00E004F0700690013CE004F0900137E0FB52
:10150C00A3E0FAA3E0F98F828E83120728FD9001E5
:10151C0034E0FBA3E0FAA3E0F912070FB505070FBF
:10152C00BF00010E8012E4FEFF90013CE0FDA3E041
:10153C0090013ACDF0A3EDF0900135E475F0011275
:10154C000789900137E0FBA3E0FAA3E0F98F828EC4
:10155C0083120728FD3395E04D708290013AE0FE2E
:08156C00A3E0FF227EFF7FFFD8
:011574002254
:1010F300E4900143F0900145F0900144F0900144E5
:10110300E0C3940A7480948040030211D5E07E000A
:101113002DF582EE3CF583120728FF3395E0FEC3DD
:10112300EF9430EE648094804052D3EF9437EE64B2
:101133008094805047900145E004F0E06401701909
:10114300900144E07E002DF582EE3CF583120728E2
:1011530024D0C454F0900143F0900145E064027040
:101163001B900144E07E002DF582EE3CF5831207CF
:101173002824D0FF900143E04FFFF022900144E088
:101183007E002DF582EE3CF583120728FF3395E0B0
:10119300FEC3EF9438EE648094804011D3EF94390A
:1011A300EE648094805006900145E004F090014481
:1011B300E07E002DF582EE3CF583120728FF642CB8
:1011C3006010EF3395E04F6009900144E004F002B2
:0711D3001100900143E0FF51
:0111DA0022F2
:0811DB0090013EECF0A3EDF0E1
:1011E300E4A3F0A3F0A3F0900142E0FFC3941474CE
:1011F30080948040030212A190013FE02FFF9001F1
:101203003EE034008F82F583120728FF3395E0FE1A
:10121300C3EF9430EE648094804051D3EF9439EE61
:10122300648094805046900140E0FEA3E0FF7C0080
:101233007D0A120777900140EEF0A3EFF0A3E0FFE1
:1012430090013FE02FFF90013EE034008F82F58351
:10125300120728FF3395E0FEEF24D0FFEE34FFFEA4
:10126300900141E02FF0900140E03EF0900142E018
:10127300FF90013FE02FFF90013EE034008F82F5A5
:1012830083120728FF642C6015EF642E6010EF3380
:1012930095E04F6009900142E004F00211EA9001E9
:0612A30040E0FEA3E0FFA5
:0112A9002222
:100DA500900116EBF0A3EAF0A3E9F0A3ECF0A3EDB4
:010DB500F04D
:100DB600E4900122F0A3F0A3F0A3F0A3F0A3F09037
:100DC6000120F0A3F0900119E0FEA3E0FF900120BE
:100DD600E0FCA3E0FDC39FEC9E4003020E7590016C
:100DE6001BE0FBA3E0FAA3E0F9900122E0FEA3E0FA
:100DF600F5828E83120728FF900116E0FBA3E0FA26
:100E0600A3E0F98D828C83120728B507339001235E
:100E1600E004F07006900122E004F090011EE0FE6E
:100E2600A3E0FF900122E0B50631A3E0B5072C90C0
:100E36000120E0FFA3E0900126CFF0A3EFF0802F82
:100E4600E4900122F0A3F0900121E02401FE90013C
:100E560020E03400900124F0A3CEF0900121E004BC
:100E6600F06003020DCB900120E004F0020DCB9060
:100E76000126E0FEA3E0FF900124E0FCA3E0FDD301
:100E86009FEC9E5044900120ECF0A3EDF0900126DB
:100E9600E0FEA3E0FF900120E0FCA3E0FDC39FEC91
:100EA6009E5023900116E0FBA3E0FAA3E0F98D82A1
:100EB6008C83E4120755900121E004F070CF900175
:0B0EC60020E004F080C77F01227F00C5
:010ED10022FE
:100C03006770696F5F757070756C6C283C44253034
:100C130032583E2C2564293BB2BBB4E6D4DAB8C3C0
:100C2300494F0D0A006770696F5F757070756C6C62
:100C3300283C44253032583E2C31293BB2BBB4E624
:100C4300D4DAB8C3494F0D0A006770696F5F7570D6
:100C530070756C6C283C44253032583E2C30293B4F
:100C6300B2BBB4E6D4DAB8C3494F0D0A0067706962
:100C73006F5F6D6F6465283C44253032583E2C25E8
:100C830064293BB2BBB4E6D4DAB8C3494F0D0A00BA
:100C93006770696F5F6D6F64652844253032582C27
:100CA3003C25643E293BB2BBB4E6D4DAB8C3C4A343
:100CB300CABD0D0A006770696F5F77726974652832
:100CC3003C25643E2C2564293BB2BBB4E6D4DAB898
:100CD300C350BFDA0D0A006770696F5F72656164A4
:100CE300283C5025643E293BB2BBB4E6D4DAB8C3F2
:100CF30050BFDA0D0A006770696F5F6F7574283C27
:100D030044253032583E2C2564293BB2BBB4E6D48B
:100D1300DAB8C3494F0D0A006770696F5F6F757466
:100D2300283C44253032583E2C31293BB2BBB4E633
:100D3300D4DAB8C3494F0D0A006770696F5F6F75E6
:100D430074283C44253032583E2C30293BB2BBB486
:100D5300E6D4DAB8C3494F0D0A006770696F5F695B
:100D63006E283C44253032583E293BB2BBB4E6D40E
:100D7300DAB8C3494F0D0A006770696F5F746F6714
:100D8300676C65283C44253032583E293BB2BBB4DE
:100D9300E6D4DAB8C3494F0D0A0001020408102053
:020DA30040808E
:0A0ED200900147EDF0900146EFF0AB
:100EDC0064887003020FE3E0FF54F0F50DEF540F3C
:100EEC00FF900D9D93F50ED3EF9407748094804082
:100EFC00237BFF7A0C7903900146E0FF90000BE412
:100F0C00F0A3EFF0900147E0FF90000DE4F0A3EFA9
:100F1C00F01212AA900147E06055E50D24F0602113
:100F2C0024F0602224F0602324F0602424F0602557
:100F3C0024F0602624F060272470702B90FE108023
:100F4C002190FE11801C90FE12801790FE138012CF
:100F5C0090FE14800D90FE15800890FE1680039074
:100F6C00FE17E0450EF0227BFF7A0C79288058E5BD
:100F7C000D24F0602124F0602224F0602324F06022
:100F8C002424F0602524F0602624F060272470705F
:100F9C003090FE10802190FE11801C90FE12801764
:100FAC0090FE13801290FE14800D90FE1580089018
:100FBC00FE16800390FE17E0FFE50EF4FEEF5EF0E8
:100FCC00227BFF7A0C794C900146E0FF90000BE4F9
:070FDC00F0A3EFF01212AACE
:010FE30022EB
:0A03FB00900007EDF0900006EFF00F
:100405006488700302070EE0FF54F0F50DEF540FFA
:10041500FF900D9D93F50ED3EF9407748094804063
:10042500237BFF7A0C7970900006E0FF90000BE4C7
:10043500F0A3EFF0900007E0FF90000DE4F0A3EFCC
:10044500F01212AAE50D24F0602124F0602224F0B8
:10045500602324F0602424F0602524F0602624F035
:10046500602724707028E4F50D8046750D018041E4
:10047500750D02803C750D038037750D048032754E
:100485000D05802D750D068028750D0780237BFFD2
:100495007A0C7970900006E0FF90000BE4F0A3EF72
:1004A500F0900007E0FF90000DE4F0A3EFF01212CA
:1004B500AA900007E0FFD3940374809480401C7BCE
:1004C500FF7A0C7993900006E0FD90000BE4F0A311
:1004D500EDF0A3E4F0A3EFF01212AAE50D70409041
:1004E5000007E0FF7E007007E50EF452935294EF8B
:1004F50064014E7009E50E4293E50EF452949000A6
:1005050007E064027008E50E4293E50E4294900000
:1005150007E064037009E50EF45293E50E4294E595
:100525000D64017040900007E0FF7E007007E50E46
:10053500F452915292EF64014E7009E50E4291E535
:100545000EF45292900007E064027008E50E4291A5
:10055500E50E4292900007E064037009E50EF4523F
:1005650091E50E4292E50D64027040900007E0FFB0
:100575007E007007E50EF452955296EF64014E70B9
:1005850009E50E4295E50EF45296900007E06402E7
:100595007008E50E4295E50E4296900007E064036B
:1005A5007009E50EF45295E50E4296E50D6403706B
:1005B50040900007E0FF7E007007E50EF452B1524F
:1005C500B2EF64014E7009E50E42B1E50EF452B288
:1005D500900007E064027008E50E42B1E50E42B2F4
:1005E500900007E064037009E50EF452B1E50E4290
:1005F500B2E50D64047040900007E0FF7E007007CF
:10060500E50EF452B352B4EF64014E7009E50E42A3
:10061500B3E50EF452B4900007E064027008E50EED
:1006250042B3E50E42B4900007E064037009E50E9D
:10063500F452B3E50E42B4E50D6405704090000731
:10064500E0FF7E007007E50EF452C952CAEF64015F
:100655004E7009E50E42C9E50EF452CA900007E056
:1006650064027008E50E42C9E50E42CA900007E033
:1006750064037009E50EF452C9E50E42CAE50D643E
:10068500067040900007E0FF7E007007E50EF4520B
:10069500CB52CCEF64014E7009E50E42CBE50EF46A
:1006A50052CC900007E064027008E50E42CBE50EDF
:1006B50042CC900007E064037009E50EF452CBE5E7
:1006C5000E42CCE50D64077040900007E0FF7E0008
:1006D5007007E50EF452E152E2EF64014E7009E550
:1006E5000E42E1E50EF452E2900007E06402700864
:1006F500E50E42E1E50E42E2900007E06403700971
:09070500E50EF452E1E50E42E2BA
:01070E0022C8
:10182800EFB40900503A901835F828287302185078
:1018380002185302185602185902185C02185F025F
:1018480018620218650218818D80228D90228DA061
:10185800228DB0228DC0228DC8228DE8228DF822DB
:101868007BFF7A0C79B890000BE4F0A3EFF0AF059A
:0A187800A3E4F0A3EFF01212AA227D
:10188200EFB40900503D90188FF82828730218AA67
:101892000218AD0218B00218B30218B60218B90243
:1018A20018BC0218BF0218C2AF8022AF9022AFA0AC
:1018B20022AFB022AFC022AFC822AFE822AFF822D7
:1018C2007FFF227BFF7A0C79DA90000BE4F0A3EF22
:0718D200F01212AA7FFF22B1
:0A0FE400900149EDF0900148EFF094
:100FEE00648870030210F2E0FF54F0F50DEF540F19
:100FFE00FF900D9D93F50ED3EF940774809480406F
:10100E00237BFF7A0C79F9900148E0FF90000BE406
:10101E00F0A3EFF0900149E0FF90000DE4F0A3EF94
:10102E00F01212AA900149E06052E50D24F0602101
:10103E0024F0602224F0602324F0602424F0602544
:10104E0024F0602624F0602724707028E50E42807C
:10105E0022E50E429022E50E42A022E50E42B0227B
:10106E00E50E42C022E50E42C822E50E42E822E518
:10107E000E42F8227BFF7A0D791B8058E50D24F085
:10108E00602224F0602424F0602624F0602824F0EE
:10109E00602A24F0602C24F0602E24707030E50E4F
:1010AE00F4528022E50EF4529022E50EF452A02264
:1010BE00E50EF452B022E50EF452C022E50EF452C3
:1010CE00C822E50EF452E822E50EF452F8227BFF18
:1010DE007A0D793C900148E0FF90000BE4F0A3EF0D
:0410EE00F01212AA40
:0110F20022DB
:0514270090014AEFF006
:10142C0064887002FF2290014AE0FF54F0F50DEF42
:10143C00540FFF900D9D93F50ED3EF940774809489
:10144C008040167BFF7A0D795D90014AE0FF900099
:10145C000BE4F0A3EFF01212AAE50D24F0602124A6
:10146C00F0602224F0602324F0602424F060252412
:10147C00F0602624F060272470702885800F803956
:10148C0085900F803485A00F802F85B00F802A8522
:10149C00C00F802585C80F802085E80F801B85F83C
:1014AC000F80167BFF7A0D795D90014AE0FF90006A
:1014BC000BE4F0A3EFF01212AAE50F550E60037FB8
:0414CC0001227F007A
:0114D00022F9
:0515750090014BEFF0B6
:10157A0064887003021611E0FF54F0F50DEF540F62
:10158A00FF900D9D93F50ED3EF94077480948040DD
:10159A00167BFF7A0D797B90014BE0FF90000BE4FC
:1015AA00F0A3EFF01212AAE50D24F0602124F060F6
:1015BA002224F0602324F0602424F0602524F060C3
:1015CA002624F0602724707028E50E628022E50E3A
:1015DA00629022E50E62A022E50E62B022E50E625A
:1015EA00C022E50E62C822E50E62E822E50E62F824
:1015FA00227BFF7A0D797B90014BE0FF90000BE490
:07160A00F0A3EFF01212AA99
:0116110022B6
:101A6200EFB40800503E901A6FF8282873021A87C4
:101A7200021A8B021A8F021A93021A97021A9B02F7
:101A82001A9F021AA3ED628022ED629022ED62A0FB
:101A920022ED62B022ED62C022ED62C822ED62E860
:051AA20022ED62F822B4
:10161200A907EB6048E9B4080040030216AB901634
:1016220027F828287302163F0216430216470216AD
:101632004B02164F02165302165702165BED4280FA
:1016420022ED429022ED42A022ED42B022ED42C0B4
:1016520022ED42C822ED42E822ED42F822E9B40826
:1016620000504690166CF8282873021684021689D8
:1016720002168E02169302169802169D0216A202F6
:1016820016A7EDF4528022EDF4529022EDF452A00E
:1016920022EDF452B022EDF452C022EDF452C822EF
:0A16A200EDF452E822EDF452F822B4
:10193000EFB40900504590193DF828287302195852
:1019400002195C02196002196402196802196C021A
:101950001970021974021978AE80801FAE90801B36
:10196000AEA08017AEB08013AEC0800FAEC8800BA3
:10197000AEE88007AEF880037F0122EE5D60037F52
:0419800001227F00C1
:011984002240
:0C1C3A0030313637161743440203525372
:1018D90075985053873F538EDEE4FD7F011216AC95
:1018E9009000061208EF0001C2007F01121985431A
:1018F9008E4053890FC2ABC28FD28EC209D2AC754A
:1019090084507D047F041216AC9000061208EF0083
:1019190001C2007F0412198543D12053AFBF43D1BF
:0719290080C20A43AF102247
:1016AC00900005EDF0EF24FC604324036003021767
:1016BC003B900005E0FF54C0FEE5A2543F4EF5A25E
:1016CC00EFC41313540325E0243AF582E4341CF5DB
:1016DC0083E493FFE4FD1203FB900005E0C41313B5
:1016EC00540325E0243BF582E4341C80389000053B
:1016FC00E0FF5404FEE5BA54FB4EF5BAEF13135455
:10170C003F25E02442F582E4341CF583E493FFE4A6
:10171C00FD1203FB900005E01313543F25E0244316
:10172C00F582E4341CF583E493FF7D031203FB2262
:05198500900005EFF0E9
:10198A00E47B04FAF9F8900130E0FCA3E0FDA3E05F
:10199A00FEA3E0FF120840900006E0F8A3E0F9A3D6
:1019AA00E0FAA3E0FB120840C3E49FFFE49EFE9026
:1019BA000005E024FC600A2403700B8F8BEEF58D82
:0619CA00228FD3EEF5D2DE
:0119D00022F4
:101BE800EF24FC600D240370128D99D20930090B83
:0C1BF80080FBAF058F85D20A200AFD2279
:101AA700EF24FC601A24037030EB6006D29BD29BB4
:101AB7008004C29BC29B8D99D20930091C80FBEB25
:101AC700600843840843840880065384F75384F7E7
:0A1AD700AF058F85D20A200AFD2218
:101AE100900070EBF0A3EAF0A3E9F0AE079000706C
:101AF100E0FBA3E0FAA3E0F912070F6019AF06902B
:101B01000070A3E475F00112079FA9F0FA12070F04
:071B1100FD121BE880D72242
:0E002600900001EFF0A3EBF0A3EAF0A3E9F0E5
:1000340090006D7401F0A37400F0A37405F09000B7
:1000440002E0F9A3E0FAA3E090007AC9F0A3EAF091
:10005400A3E9F090006DE0F9A3E0FAA3E090007D3D
:10006400C9F0A3EAF0A3E9F07B017A00792D121913
:10007400D190006DE4F0A3F0A3F0900001E0FF7BC9
:08008400017A00792D021AE156
:03002300021A1BA3
:101A1B00C0E0C0F0C083C082C0D075D000C000C091
:101A2B0001C002C003C004C005C006C00730980542
:101A3B00C298121B4B309904C299C209D007D00629
:101A4B00D005D004D003D002D001D000D0D0D082AA
:071A5B00D083D0F0D0E0328F
:03009300021C0448
:101C0400C0E0E58430E0035384FEE58430E105530D
:071C140084FDC20AD0E0329A
:10174800021B18E493A3F8E493A34003F68001F284
:1017580008DFF48029E493A3F85407240CC8C333A2
:10176800C4540F4420C8834004F456800146F6DF71
:10177800E4800B0102040810204080901C46E47E9F
:10178800019360BCA3FF543F30E509541FFEE49366
:10179800A360010ECF54C025E060A840B8E493A32D
:1017A800FAE493A3F8E493A3C8C582C8CAC583CA58
:1017B800F0A3C8C582C8CAC583CADFE9DEE780BE10
:011C4D000096
:10070F00BB010689828A83E0225002E722BBFE02E8
:09071F00E32289828A83E493221B
:10072800BB010CE58229F582E5833AF583E0225086
:1007380006E92582F8E622BBFE06E92582F8E222D0
:0D074800E58229F582E5833AF583E49322EA
:10075500F8BB010DE58229F582E5833AF583E8F0DA
:10076500225006E92582C8F622BBFE05E92582C886
:02077500F2226E
:10077700EF8DF0A4A8F0CF8CF0A428CE8DF0A42E96
:02078700FE2250
:10078900C5F0F8A3E028F0C5F0F8E58215827002FB
:060799001583E038F02298
:10079F00A3F8E0C5F025F0F0E5821582700215830D
:0607AF00E0C838F0E8226A
:1007B500E88FF0A4CC8BF0A42CFCE98EF0A42CFCE3
:1007C5008AF0EDA42CFCEA8EF0A4CDA8F08BF0A461
:1007D5002DCC3825F0FDE98FF0A42CCD35F0FCEBC0
:1007E5008EF0A4FEA9F0EB8FF0A4CFC5F02ECD3985
:0F07F500FEE43CFCEAA42DCE35F0FDE43CFC22F2
:1008040075F008758200EF2FFFEE33FECD33CDCCAB
:1008140033CCC58233C5829BED9AEC99E58298402E
:100824000CF582EE9BFEED9AFDEC99FC0FD5F0D60B
:10083400E4CEFBE4CDFAE4CCF9A88222B800C1B935
:100844000059BA002DEC8BF084CFCECDFCE5F0CB73
:10085400F97818EF2FFFEE33FEED33FDEC33FCEBAC
:1008640033FB10D703994004EB99FB0FD8E5E4F967
:10087400FA227818EF2FFFEE33FEED33FDEC33FC54
:10088400C933C910D7059BE99A4007EC9BFCE99A48
:10089400F90FD8E0E4C9FAE4CCFB2275F010EF2F8D
:1008A400FFEE33FEED33FDCC33CCC833C810D7078D
:1008B4009BEC9AE899400AED9BFDEC9AFCE899F8C8
:0E08C4000FD5F0DAE4CDFBE4CCFAE4C8F9225B
:1008D200EB9FF5F0EA9E42F0E99D42F0E89C45F07C
:0108E20022F3
:0C08E300ECF0A3EDF0A3EEF0A3EFF02288
:1008EF00A8828583F0D083D08212090612090612DE
:1008FF000906120906E473E493A3C583C5F0C58303
:10090F00C8C582C8F0A3C583C5F0C583C8C582C852
:01091F0022B5
:10092000EC8EF0A4CCC5F0CCCDF8EFA4CEC5F02D64
:10093000FDE43CFCE8A42EC8C5F03DFDE43CFCEF22
:0D094000A4FFE5F028FEE43DFDE43CFC22B0
:1019D10090007AE0FFA3E0FEA3E0CF900083F0A3A4
:1019E100EEF0A3EFF090007DE0CBF0A3E0CAF0A30E
:1019F100E0C9F07F22900086AD82AC8312070F8D83
:101A0100828C83F0A309E970010ADFEC90007DE08C
:0A1A1100FBA3E0FAA3E0F90200FBDA
:10009600E5082483F582E43400F583E00508229020
:1000A6000080300703900083E475F00112095F02B7
:1000B600070F2000E97F2ED2008018EF540F2490FE
:1000C600D43440D4FF30040BEF24BFB41A005003DD
:1000D6002461FFE50960021509050CE50C700205AF
:1000E6000B30070E900080E475F00112095FEF02F5
:1000F600094D021B777403D2078003E4C207F50893
:10010600900080120976E4F509F50BF50CE5096017
:10011600077F201200D980F5750AFFC201C200C20E
:1001260002C203C205C206C2081200A5FF700D3046
:1001360007057F001200EAAF0CAE0B22B4255FC2A2
:10014600D5C2041200A5FF24D0B40A00501A75F0D7
:100156000A780930D50508B6FF0106C6A426F6209A
:10016600D5047002D20380D924CFB41A00EF50040C
:10017600C2E5D2040202EBD20180C6D20080C0D210
:100186000280BCD2D580BAD20580B47F201200D9B5
:100196002002077401B5090040F1120096FF120013
:1001A600D9020113D208D2068095120096FB1200DE
:1001B60096FA120096F94A4B700679BC7A037BFFD1
:1001C60020022EE509602A7E008E827583001207C2
:1001D6002860060EEE650A70F0C2D5EBC0E0EAC0F4
:1001E600E0E9C0E0EE120332D0E0F9D0E0FAD0E068
:1001F600FB12070FFF60AAEBC0E0EAC0E0E9C0E02F
:100206001200D9D0E02401F9D0E03400FAD0E0FBA6
:10021600E50A0460DCD50AD980877BFF7A03792E4C
:10022600D202809C791080027908C206C208800832
:10023600D2D5790A8004790AC2D5E50A047002F596
:100246000AE4FAFDFEFF120096FC7B082001131259
:100256000096FD7B1030000A120096FE120096FFF3
:100266007B20EC3382D592D55013C3E43000069F31
:10027600FFE49EFEE42001039DFDE49CFCE4CBF834
:10028600C201EC700CCFCECDCCE824F8F870F38028
:1002960017C3EF33FFEE33FEED33FDEC33FCEB33E8
:1002A600FB994002FB0FD8E9EB300105F8D0E0C41A
:1002B60048B201C0E00AEC4D4E4F78207B0070C278
:1002C600EAB50A0040BCC0E0120334D0F0D0E0200A
:1002D6000104C4C0E0C4B201C0F01200C2D0F0D51F
:1002E600F0EB02011312097F01B053022A58018173
:1002F6004C017D42022E4F02364402364901964396
:08030600023C550220460220D2
:10030E004502204703DC5001852D01892E01AC2BBF
:10031E00018D2301AA2003C52A014548000001A42E
:10032E003F3F3F00790AA2D5200314300509B910CA
:10033E00020404B9080104A2D520060250010420CB
:10034E0002689202B509005034C0E07F20300319D4
:10035E007F30A20272067205500F12038BC202C2C8
:10036E0006C205C2087F30800F300503E9C0E012D7
:10037E0000D9300503D0E0F9D0E0B509CC3005172F
:10038E007F30B9100C1200D97F583004077F788067
:10039E0003B908031200D93002057F2D0200D97F60
:1003AE00202008F87F2B2006F322920280CF286EA1
:1003BE00756C6C2900D2011200963001F8C20178DA
:1003CE000930D50108F60201452D50434958120057
:1003DE00962403B405004001E49003D7931200CA9B
:0D03EE00743A1200CAD20375090402022AF3
:10094D00BB010689828A83F0225002F722BBFE0189
:02095D00F32283
:10095F00F8E0FBA3A3E0F925F0F0E5821582700221
:07096F001583E0FA38F022C5
:09097600EBF0A3EAF0A3E9F02282
:10097F00D083D082F8E4937012740193700DA3A307
:10098F0093F8740193F5828883E47374029368601B
:06099F00EFA3A3A380DF1B
:101B7700EFB40A07740D121B82740A309811A899E2
:101B8700B8130CC2983098FDA899C298B811F630CE
:071B970099FDC299F59922A6
:00000001FF
