:0300000002163CA9
:0C163C00787FE4F6D8FD7581210216834A
:101AF4001209357D037F5512038B7F551215057F1F
:081B0400F47E0112000380F2DF
:071B390044017E00000000E2
:10000300EF4E601A900176E0FCA3E0FDED1D700158
:0E0013001C144C70F7EF1F70011E144E70E6A7
:0100210022BC
:081B0C00900077E0FEA3E0FF6A
:0A1B1400EF1FAC0670011E4C70F6C6
:011B1E0022A4
:101AB300900176E0FCA3E0FD1208B0E47B83FAF921
:101AC300F812074590017A12087390017AE0C31364
:061AD300FEA3E013FF2258
:101A6000900179E06599600AE599F0E4900178F0D9
:101A70008006900178E004F0900178E0C394E97466
:0C1A800080948040060075C760000022C2
:0B172E009000A7EBF0A3EAF0A3E9F0A5
:101739009001127401F0A37400F0A374AAF0900050
:10174900A7E0F9A3E0FAA3E0900079C9F0A3EAF0D1
:10175900A3E9F0900112E0F9A3E0FAA3E090007C7C
:10176900C9F0A3EAF0A3E9F07B017A0079D2121853
:10177900E2900112E4F0A3F0A3F07B017A0079D2A0
:051789007F010219F9C7
:1012FF00EF14601614602C14604D14606C1470039E
:10130F00021393240560030213B690FE02E0547E8D
:10131F004480F0E030E0F390FE00E054FCF090FEEB
:10132F0003807A90FE04E0547E4480F0E030E0F3D6
:10133F0090FE00E054FC4403F090FE02E4F090FEB7
:10134F0008F090FE03F02290FE08E0547E4480F0F7
:10135F00E030E0F390FE00E054FC4402F090FE0415
:10136F00E4F090FE02F0A3F02290FE03E0543E441E
:10137F0080F0E030E0F390FE00E054FC4401F09088
:10138F00FE02801990FE03E0543E44C0F0E030E0CE
:10139F00F390FE00E054FC4401F090FE02E4F09064
:0813AF00FE08F090FE04F0229C
:0C1B2D00EF90FE01700304F022EFF022A4
:1009350043BA80AF9FE4FCFDFEC004A905AA06AB3F
:100945000778FBE6FFD000C3EF9BFFEE9AFEED991B
:10095500FDEC98FCE47BF07AD2F9F8120745C3E484
:100965009FFF74369EFE746E9DFD74019CFC900085
:1009750000120873900000E0FCA3E0FDA3E0FEA3D5
:10098500E0FFC00790FE01E0FBE4FAF9F8D007129A
:1009950007D09000001208737FC07EF67D577C005B
:1009A500900000E0F8A3E0F9A3E0FAA3E0FBC3128E
:1009B5000862500D90017E12087F00546000020B02
:1009C500647FC07E267D827C00900000E0F8A3E075
:1009D500F9A3E0FAA3E0FBC3120862500D90017E73
:1009E50012087F005B8D80020B647F807EED7DAFFA
:1009F5007C00900000E0F8A3E0F9A3E0FAA3E0FB97
:100A0500C3120862500D90017E12087F00A8C00035
:100A1500020B647F807E2D7DE87C00900000E0F86D
:100A2500A3E0F9A3E0FAA3E0FBC3120862500D901E
:100A3500017E12087F00B71B00020B647F807E36A3
:100A45007D257C01900000E0F8A3E0F9A3E0FAA37E
:100A5500E0FBC3120862500D90017E12087F011958
:100A65004000020B647F807E567D417C0190000032
:100A7500E0F8A3E0F9A3E0FAA3E0FBC31208625093
:100A85000D90017E12087F01312D00020B647F005D
:100A95007EDB7D5F7C01900000E0F8A3E0F9A3E038
:100AA500FAA3E0FBC3120862500D90017E12087F85
:100AB50001518000020B647F607E197D857C019069
:100AC5000000E0F8A3E0F9A3E0FAA3E0FBC31208F5
:100AD50062500D90017E12087F016E3600020B6494
:100AE5007F207EE07DB27C01900000E0F8A3E0F974
:100AF500A3E0FAA3E0FBC3120862500C90017E123A
:100B0500087F019BFCC080577FE07EA67DE07C01CD
:100B1500900000E0F8A3E0F9A3E0FAA3E0FBC3121C
:100B25000862500C90017E12087F01C9C380802F96
:100B35007F607E2B7DFF7C01900000E0F8A3E0F94B
:100B4500A3E0FAA3E0FBC312086290017E500912EC
:100B5500087F01FA4000800712087F02160EC0E4E4
:100B65007B107A27F9F890017EE0FCA3E0FDA3E075
:100B7500FEA3E0FF1207D0900176EEF0A3EFF0E4BC
:0D0B8500900179F0900178F0121A30D2AF93
:010B92002240
:0B123A00900007EBF0A3EAF0A3E9F03E
:101245007F647E00121AB3900077EEF0A3EFF09062
:1012550000747401F0A37400F0A3740AF090000701
:10126500E0F9A3E0FAA3E0900079C9F0A3EAF0A3BE
:10127500E9F0900074E0F9A3E0FAA3E090007CC9DE
:10128500F0A3EAF0A3E9F07B017A0079341218E2C1
:10129500900032EEF0A3EFF0900074E4F0A3F0A319
:1012A500F07FF47E01120003E4FBFAD3900033E0F3
:1012B5009B900032E09A40E9D2B1C2B1121B0C7486
:1012C500342BF58274003AF583E0F9E4FDEDC3941F
:1012D50008748094805014E930E004D2B18002C2D1
:1012E500B1E9C313F9121B0C0D80E2D2B1121B0C2C
:0A12F500121B0C0BBB00010A80B1B4
:0B146100900182EBF0A3EAF0A3E9F099
:10146C00E4FFFE900188F0A3F0A3F0A3F0900182BA
:10147C00E0FBA3E0FAA3E0F912069F607790018BE2
:10148C00E004F0700690018AE004F0900185E0FB26
:10149C00A3E0FAA3E0F98F828E831206B8FD9001C7
:1014AC0082E0FBA3E0FAA3E0F912069FB505070F53
:1014BC00BF00010E8012E4FEFF90018AE0FDA3E064
:1014CC00900188CDF0A3EDF0900183E475F001124A
:1014DC000719900185E0FBA3E0FAA3E0F98F828E57
:1014EC00831206B8FD3395E04D7082900188E0FEC2
:0814FC00A3E0FF227EFF7FFF49
:0115040022C4
:10108300E4900191F0900193F0900192F09001921D
:10109300E0C3940A748094804003021165E07E00EB
:1010A3002DF582EE3CF5831206B8FF3395E0FEC3BF
:1010B300EF9430EE648094804052D3EF9437EE6423
:1010C3008094805047900193E004F0E0640170192C
:1010D300900192E07E002DF582EE3CF5831206B876
:1010E30024D0C454F0900191F0900193E064027015
:1010F3001B900192E07E002DF582EE3CF5831206F3
:10110300B824D0FF900191E04FFFF022900192E0CC
:101113007E002DF582EE3CF5831206B8FF3395E091
:10112300FEC3EF9438EE648094804011D3EF94397A
:10113300EE648094805006900193E004F090019255
:10114300E07E002DF582EE3CF5831206B8FF642C99
:101153006010EF3395E04F6009900192E004F002D4
:071163001090900191E0FFE4
:01116A002262
:08116B0090018CECF0A3EDF003
:10117300E4A3F0A3F0A3F0900190E0FFC3941474F0
:10118300809480400302123190018DE02FFF900183
:101193008CE034008F82F5831206B8FF3395E0FEAE
:1011A300C3EF9430EE648094804051D3EF9439EED2
:1011B30064809480504690018EE0FEA3E0FF7C00A3
:1011C3007D0A12070790018EEEF0A3EFF0A3E0FF74
:1011D30090018DE02FFF90018CE034008F82F58326
:1011E3001206B8FF3395E0FEEF24D0FFEE34FFFE86
:1011F30090018FE02FF090018EE03EF0900190E09F
:10120300FF90018DE02FFF90018CE034008F82F579
:10121300831206B8FF642C6015EF642E6010EF3361
:1012230095E04F6009900190E004F002117A90017B
:061233008EE0FEA3E0FFC7
:011239002292
:100D3500900164EBF0A3EAF0A3E9F0A3ECF0A3EDD6
:010D4500F0BD
:100D4600E4900170F0A3F0A3F0A3F0A3F0A3F09059
:100D5600016EF0A3F0900167E0FEA3E0FF90016E44
:100D6600E0FCA3E0FDC39FEC9E4003020E0590014C
:100D760069E0FBA3E0FAA3E0F9900170E0FEA3E0CE
:100D8600F5828E831206B8FF900164E0FBA3E0FAB9
:100D9600A3E0F98D828C831206B8B50733900171F2
:100DA600E004F07006900170E004F090016CE0FE43
:100DB600A3E0FF900170E0B50631A3E0B5072C90E3
:100DC600016EE0FFA3E0900174CFF0A3EFF0802F57
:100DD600E4900170F0A3F090016FE02401FE900111
:100DE6006EE03400900172F0A3CEF090016FE00443
:100DF600F06003020D5B90016EE004F0020D5B9063
:100E06000174E0FEA3E0FF900172E0FCA3E0FDD3D5
:100E16009FEC9E504490016EECF0A3EDF0900174AF
:100E2600E0FEA3E0FF90016EE0FCA3E0FDC39FECB3
:100E36009E5023900164E0FBA3E0FAA3E0F98D82C3
:100E46008C83E41206E590016FE004F070CF900108
:0B0E56006EE004F080C77F01227F00E7
:010E6100226E
:100B93006770696F5F757070756C6C283C442530A5
:100BA30032583E2C2564293BB2BBB4E6D4DAB8C331
:100BB300494F0D0A006770696F5F757070756C6CD3
:100BC300283C44253032583E2C31293BB2BBB4E695
:100BD300D4DAB8C3494F0D0A006770696F5F757047
:100BE30070756C6C283C44253032583E2C30293BC0
:100BF300B2BBB4E6D4DAB8C3494F0D0A00677069D3
:100C03006F5F6D6F6465283C44253032583E2C2558
:100C130064293BB2BBB4E6D4DAB8C3494F0D0A002A
:100C23006770696F5F6D6F64652844253032582C97
:100C33003C25643E293BB2BBB4E6D4DAB8C3C4A3B3
:100C4300CABD0D0A006770696F5F777269746528A2
:100C53003C25643E2C2564293BB2BBB4E6D4DAB808
:100C6300C350BFDA0D0A006770696F5F7265616414
:100C7300283C5025643E293BB2BBB4E6D4DAB8C362
:100C830050BFDA0D0A006770696F5F6F7574283C97
:100C930044253032583E2C2564293BB2BBB4E6D4FC
:100CA300DAB8C3494F0D0A006770696F5F6F7574D7
:100CB300283C44253032583E2C31293BB2BBB4E6A4
:100CC300D4DAB8C3494F0D0A006770696F5F6F7557
:100CD30074283C44253032583E2C30293BB2BBB4F7
:100CE300E6D4DAB8C3494F0D0A006770696F5F69CC
:100CF3006E283C44253032583E293BB2BBB4E6D47F
:100D0300DAB8C3494F0D0A006770696F5F746F6784
:100D1300676C65283C44253032583E293BB2BBB44E
:100D2300E6D4DAB8C3494F0D0A00010204081020C3
:020D33004080FE
:0A0E6200900198EDF0900197EFF079
:100E6C0064887003020F73E0FF54F0F50DEF540F1C
:100E7C00FF900D2D93F50ED3EF9407748094804062
:100E8C00237BFF7A0B7993900197E0FF90000AE4A3
:100E9C00F0A3EFF0900198E0FF90000CE4F0A3EFCA
:100EAC00F012123A900198E06055E50D24F06021A3
:100EBC0024F0602224F0602324F0602424F06025C8
:100ECC0024F0602624F060272470702B90FE108094
:100EDC002190FE11801C90FE12801790FE13801240
:100EEC0090FE14800D90FE15800890FE16800390E5
:100EFC00FE17E0450EF0227BFF7A0B79B88058E59F
:100F0C000D24F0602124F0602224F0602324F06092
:100F1C002424F0602524F0602624F06027247070CF
:100F2C003090FE10802190FE11801C90FE128017D4
:100F3C0090FE13801290FE14800D90FE1580089088
:100F4C00FE16800390FE17E0FFE50EF4FEEF5EF058
:100F5C00227BFF7A0B79DC900197E0FF90000AE48A
:070F6C00F0A3EFF012123AAE
:010F7300225B
:0A038B00900006EDF0900005EFF081
:100395006488700302069EE0FF54F0F50DEF540FDC
:1003A500FF900D2D93F50ED3EF9407748094804044
:1003B500237BFF7A0C7900900005E0FF90000AE4AA
:1003C500F0A3EFF0900006E0FF90000CE4F0A3EF3F
:1003D500F012123AE50D24F0602124F0602224F099
:1003E500602324F0602424F0602524F0602624F0A6
:1003F500602724707028E4F50D8046750D01804155
:10040500750D02803C750D038037750D04803275BE
:100415000D05802D750D068028750D0780237BFF42
:100425007A0C7900900005E0FF90000AE4F0A3EF54
:10043500F0900006E0FF90000CE4F0A3EFF012123C
:100445003A900006E0FFD3940374809480401C7BAF
:10045500FF7A0C7923900005E0FD90000AE4F0A3F3
:10046500EDF0A3E4F0A3EFF012123AE50D70409021
:100475000006E0FF7E007007E50EF452935294EFFC
:1004850064014E7009E50E4293E50EF45294900016
:1004950006E064027008E50E4293E50E4294900072
:1004A50006E064037009E50EF45293E50E4294E507
:1004B5000D64017040900006E0FF7E007007E50EB8
:1004C500F452915292EF64014E7009E50E4291E5A6
:1004D5000EF45292900006E064027008E50E429117
:1004E500E50E4292900006E064037009E50EF452B1
:1004F50091E50E4292E50D64027040900006E0FF22
:100505007E007007E50EF452955296EF64014E7029
:1005150009E50E4295E50EF45296900006E0640258
:100525007008E50E4295E50E4296900006E06403DC
:100535007009E50EF45295E50E4296E50D640370DB
:1005450040900006E0FF7E007007E50EF452B152C0
:10055500B2EF64014E7009E50E42B1E50EF452B2F8
:10056500900006E064027008E50E42B1E50E42B265
:10057500900006E064037009E50EF452B1E50E4201
:10058500B2E50D64047040900006E0FF7E00700740
:10059500E50EF452B352B4EF64014E7009E50E4214
:1005A500B3E50EF452B4900006E064027008E50E5F
:1005B50042B3E50E42B4900006E064037009E50E0F
:1005C500F452B3E50E42B4E50D64057040900006A3
:1005D500E0FF7E007007E50EF452C952CAEF6401D0
:1005E5004E7009E50E42C9E50EF452CA900006E0C8
:1005F50064027008E50E42C9E50E42CA900006E0A5
:1006050064037009E50EF452C9E50E42CAE50D64AE
:10061500067040900006E0FF7E007007E50EF4527C
:10062500CB52CCEF64014E7009E50E42CBE50EF4DA
:1006350052CC900006E064027008E50E42CBE50E50
:1006450042CC900006E064037009E50EF452CBE558
:100655000E42CCE50D64077040900006E0FF7E0079
:100665007007E50EF452E152E2EF64014E7009E5C0
:100675000E42E1E50EF452E2900006E064027008D5
:10068500E50E42E1E50E42E2900006E064037009E2
:09069500E50EF452E1E50E42E22B
:01069E002239
:10178E00EFB40900503A90179BF82828730217B649
:10179E000217B90217BC0217BF0217C20217C50201
:1017AE0017C80217CB0217E78D80228D90228DA0CD
:1017BE00228DB0228DC0228DC8228DE8228DF82276
:1017CE007BFF7A0C794890000AE4F0A3EFF0AF05A6
:0A17DE00A3E4F0A3EFF012123A2288
:1017E800EFB40900503D9017F5F828287302181037
:1017F80002181302181602181902181C02181F02E0
:101808001822021825021828AF8022AF9022AFA014
:1018180022AFB022AFC022AFC822AFE822AFF82271
:101828007FFF227BFF7A0C796A90000AE4F0A3EF2D
:07183800F012123A7FFF22BB
:0A0F740090019AEDF0900199EFF062
:100F7E0064887003021082E0FF54F0F50DEF540FF9
:100F8E00FF900D2D93F50ED3EF940774809480404F
:100F9E00237BFF7A0C7989900199E0FF90000AE497
:100FAE00F0A3EFF090019AE0FF90000CE4F0A3EFB5
:100FBE00F012123A90019AE06052E50D24F0602191
:100FCE0024F0602224F0602324F0602424F06025B5
:100FDE0024F0602624F0602724707028E50E4280ED
:100FEE0022E50E429022E50E42A022E50E42B022EC
:100FFE00E50E42C022E50E42C822E50E42E822E589
:10100E000E42F8227BFF7A0C79AB8058E50D24F066
:10101E00602224F0602424F0602624F0602824F05E
:10102E00602A24F0602C24F0602E24707030E50EBF
:10103E00F4528022E50EF4529022E50EF452A022D4
:10104E00E50EF452B022E50EF452C022E50EF45233
:10105E00C822E50EF452E822E50EF452F8227BFF88
:10106E007A0C79CC900199E0FF90000AE4F0A3EF9E
:04107E00F012123A20
:01108200224B
:0513B70090019BEFF026
:1013BC0064887002FF2290019BE0FF54F0F50DEF62
:1013CC00540FFF900D2D93F50ED3EF94077480946A
:1013DC008040167BFF7A0C79ED90019BE0FF90002A
:1013EC000AE4F0A3EFF012123AE50D24F060212488
:1013FC00F0602224F0602324F0602424F060252483
:10140C00F0602624F060272470702885800F8039C6
:10141C0085900F803485A00F802F85B00F802A8592
:10142C00C00F802585C80F802085E80F801B85F8AC
:10143C000F80167BFF7A0C79ED90019BE0FF9000FA
:10144C000AE4F0A3EFF012123AE50F550E60037F99
:04145C0001227F00EA
:011460002269
:05150500900000EFF072
:10150A00648870030215A1E0FF54F0F50DEF540F43
:10151A00FF900D2D93F50ED3EF94077480948040BD
:10152A00167BFF7A0D790B900000E0FF90000AE429
:10153A00F0A3EFF012123AE50D24F0602124F060D6
:10154A002224F0602324F0602424F0602524F06033
:10155A002624F0602724707028E50E628022E50EAA
:10156A00629022E50E62A022E50E62B022E50E62CA
:10157A00C022E50E62C822E50E62E822E50E62F894
:10158A00227BFF7A0D790B900000E0FF90000AE4BD
:07159A00F0A3EFF012123A7A
:0115A1002227
:10197300EFB40800503E901980F828287302199894
:1019830002199C0219A00219A40219A80219AC0297
:1019930019B00219B4ED628022ED629022ED62A0CB
:1019A30022ED62B022ED62C022ED62C822ED62E850
:0519B30022ED62F822A4
:1015A200A907EB6048E9B40800400302163B901516
:1015B200B7F82828730215CF0215D30215D70215E2
:1015C200DB0215DF0215E30215E70215EBED42809F
:1015D20022ED429022ED42A022ED42B022ED42C025
:1015E20022ED42C822ED42E822ED42F822E9B40897
:1015F2000050469015FCF82828730216140216199A
:1016020002161E02162302162802162D0216320296
:101612001637EDF4528022EDF4529022EDF452A0EE
:1016220022EDF452B022EDF452C022EDF452C8225F
:0A163200EDF452E822EDF452F82224
:10183F00EFB40900504590184CF828287302186728
:10184F0002186B02186F02187302187702187B02C6
:10185F00187F021883021887AE80801FAE90801BFE
:10186F00AEA08017AEB08013AEC0800FAEC8800B95
:10187F00AEE88007AEF880037F0122EE5D60037F44
:04188F0001227F00B3
:011893002232
:081B410030313637161743441A
:101A300075985053873F538EDEE4FD7F0112189452
:101A400090000512087F0001C2007F011219B843FF
:101A50008E4053890FC2ABC28FD28EC209D2AC2244
:10189400900004EDF0EF147044900004E0FF54C095
:1018A400FEE5A2543F4EF5A2EFC41313540325E002
:1018B4002441F582E4341BF583E493FFE4FD120331
:1018C4008B900004E0C41313540325E02442F582F2
:0E18D400E4341BF583E493FF7D0312038B22A3
:0519B800900004EFF0B7
:1019BD00E47B04FAF9F890017EE0FCA3E0FDA3E0DE
:1019CD00FEA3E0FF1207D0900005E0F8A3E0F9A315
:1019DD00E0FAA3E0FB1207D0C3E49FFFE49EFE9064
:0B19ED000004E01470058F8BEEF58DF8
:0119F80022CC
:0E1B1F00EF147009AF058F99D2092009FD223D
:101AD900EF147016EB6006D29BD29B8004C29BC2A6
:0B1AE9009BAF058F99D2092009FD2258
:1019F900900194EBF0A3EAF0A3E9F0AE079001940B
:101A0900E0FBA3E0FAA3E0F912069F6019AF069084
:101A19000194A3E475F00112072FA9F0FA12069FA9
:071A2900FD121B1F80D722F4
:0E16C800900115EFF0A3EBF0A3EAF0A3E9F018
:1016D6009001617401F0A37401F0A37419F09001F4
:1016E60016E0F9A3E0FAA3E0900079C9F0A3EAF0C6
:1016F600A3E9F0900161E0F9A3E0FAA3E090007C91
:10170600C9F0A3EAF0A3E9F07B017A017941121846
:10171600E2900161E4F0A3F0A3F0900115E0FF7BF5
:08172600017A0179410219F971
:0300230002192C93
:10192C00C0E0C0F0C083C082C0D075D000C000C081
:10193C0001C002C003C004C005C006C00730980532
:10194C00C298121A60309904C299C209D007D00605
:10195C00D005D004D003D002D001D000D0D0D0829A
:07196C00D083D0F0D0E0327F
:10164800021AF4E493A3F8E493A34003F68001F2AA
:1016580008DFF48029E493A3F85407240CC8C333A3
:10166800C4540F4420C8834004F456800146F6DF72
:10167800E4800B0102040810204080901B39E47EAE
:10168800019360BCA3FF543F30E509541FFEE49367
:10169800A360010ECF54C025E060A840B8E493A32E
:1016A800FAE493A3F8E493A3C8C582C8CAC583CA59
:1016B800F0A3C8C582C8CAC583CADFE9DEE780BE11
:011B400000A4
:10069F00BB010689828A83E0225002E722BBFE0259
:0906AF00E32289828A83E493228C
:1006B800BB010CE58229F582E5833AF583E02250F7
:1006C80006E92582F8E622BBFE06E92582F8E22241
:0D06D800E58229F582E5833AF583E493225B
:1006E500F8BB010DE58229F582E5833AF583E8F04B
:1006F500225006E92582C8F622BBFE05E92582C8F7
:02070500F222DE
:10070700EF8DF0A4A8F0CF8CF0A428CE8DF0A42E06
:02071700FE22C0
:10071900C5F0F8A3E028F0C5F0F8E582158270026B
:060729001583E038F02208
:10072F00A3F8E0C5F025F0F0E5821582700215837D
:06073F00E0C838F0E822DA
:10074500E88FF0A4CC8BF0A42CFCE98EF0A42CFC53
:100755008AF0EDA42CFCEA8EF0A4CDA8F08BF0A4D1
:100765002DCC3825F0FDE98FF0A42CCD35F0FCEB30
:100775008EF0A4FEA9F0EB8FF0A4CFC5F02ECD39F5
:0F078500FEE43CFCEAA42DCE35F0FDE43CFC2262
:1007940075F008758200EF2FFFEE33FECD33CDCC1C
:1007A40033CCC58233C5829BED9AEC99E58298409F
:1007B4000CF582EE9BFEED9AFDEC99FC0FD5F0D67C
:1007C400E4CEFBE4CDFAE4CCF9A88222B800C1B9A6
:1007D4000059BA002DEC8BF084CFCECDFCE5F0CBE4
:1007E400F97818EF2FFFEE33FEED33FDEC33FCEB1D
:1007F40033FB10D703994004EB99FB0FD8E5E4F9D8
:10080400FA227818EF2FFFEE33FEED33FDEC33FCC4
:10081400C933C910D7059BE99A4007EC9BFCE99AB8
:10082400F90FD8E0E4C9FAE4CCFB2275F010EF2FFD
:10083400FFEE33FEED33FDCC33CCC833C810D707FD
:100844009BEC9AE899400AED9BFDEC9AFCE899F838
:0E0854000FD5F0DAE4CDFBE4CCFAE4C8F922CB
:10086200EB9FF5F0EA9E42F0E99D42F0E89C45F0EC
:010872002263
:0C087300ECF0A3EDF0A3EEF0A3EFF022F8
:10087F00A8828583F0D083D0821208961208961230
:10088F000896120896E473E493A3C583C5F0C58355
:10089F00C8C582C8F0A3C583C5F0C583C8C582C8C3
:0108AF002226
:1008B000EC8EF0A4CCC5F0CCCDF8EFA4CEC5F02DD5
:1008C000FDE43CFCE8A42EC8C5F03DFDE43CFCEF93
:0D08D000A4FFE5F028FEE43DFDE43CFC2221
:1018E200900079E0FFA3E0FEA3E0CF900082F0A396
:1018F200EEF0A3EFF090007CE0CBF0A3E0CAF0A3FF
:10190200E0C9F07F22900085AD82AC8312069F8DE4
:10191200828C83F0A309E970010ADFEC90007CE07D
:0A192200FBA3E0FAA3E0F902008B3A
:10002600E5082482F582E43400F583E00508229091
:10003600007F300703900082E475F0011208EF029A
:10004600069F2000E97F2ED2008018EF540F2490DF
:10005600D43440D4FF30040BEF24BFB41A0050034D
:100066002461FFE50960021509050CE50C7002051F
:100076000B30070E90007FE475F0011208EFEF02D7
:1000860008DD021A8C7403D2078003E4C207F50860
:1000960090007F120906E4F509F50BF50CE50960F9
:1000A600077F2012006980F5750AFFC201C200C2EF
:1000B60002C203C205C206C208120035FF700D3027
:1000C60007057F0012007AAF0CAE0B22B4255FC283
:1000D600D5C204120035FF24D0B40A00501A75F0B8
:1000E6000A780930D50508B6FF0106C6A426F6200B
:1000F600D5047002D20380D924CFB41A00EF50047D
:10010600C2E5D20402027BD20180C6D20080C0D2F0
:100116000280BCD2D580BAD20580B47F2012006995
:100126002002077401B5090040F1120026FF1200F3
:10013600690200A3D208D2068095120026FB12009F
:1001460026FA120026F94A4B7006794C7A037BFF91
:1001560020022EE509602A7E008E82758300120633
:10016600B860060EEE650A70F0C2D5EBC0E0EAC0D4
:10017600E0E9C0E0EE1202C2D0E0F9D0E0FAD0E049
:10018600FB12069FFF60AAEBC0E0EAC0E0E9C0E010
:10019600120069D0E02401F9D0E03400FAD0E0FB87
:1001A600E50A0460DCD50AD980877BFF7A0279BE2E
:1001B600D202809C791080027908C206C2088008A3
:1001C600D2D5790A8004790AC2D5E50A047002F507
:1001D6000AE4FAFDFEFF120026FC7B08200113123A
:1001E6000026FD7B1030000A120026FE120026FFB4
:1001F6007B20EC3382D592D55013C3E43000069FA2
:10020600FFE49EFEE42001039DFDE49CFCE4CBF8A4
:10021600C201EC700CCFCECDCCE824F8F870F38098
:1002260017C3EF33FFEE33FEED33FDEC33FCEB3358
:10023600FB994002FB0FD8E9EB300105F8D0E0C48A
:1002460048B201C0E00AEC4D4E4F78207B0070C2E8
:10025600EAB50A0040BCC0E01202C4D0F0D0E020EB
:100266000104C4C0E0C4B201C0F0120052D0F0D5FF
:10027600F0EB0200A312090F01405301BA58011115
:100286004C010D4201BE4F01C64401C64901264339
:0802960001CC5501B04601B096
:10029E004501B047036C5001152D01192E013C2B61
:1002AE00011D23013A2003552A00D54800000134D0
:1002BE003F3F3F00790AA2D5200314300509B9103B
:1002CE00020404B9080104A2D5200602500104203C
:1002DE0002689202B509005034C0E07F2030031945
:1002EE007F30A20272067205500F12031BC202C2A9
:1002FE0006C205C2087F30800F300503E9C0E01248
:10030E000069300503D0E0F9D0E0B509CC3005170F
:10031E007F30B9100C1200697F583004077F788047
:10032E0003B908031200693002057F2D0200697FB0
:10033E00202008F87F2B2006F322920280CF286E11
:10034E00756C6C2900D2011200263001F8C20178BA
:10035E000930D50108F60200D52D50434958120038
:10036E00262403B405004001E49003679312005A5B
:0D037E00743A12005AD2037509040201BA44
:1008DD00BB010689828A83F0225002F722BBFE01FA
:0208ED00F322F4
:1008EF00F8E0FBA3A3E0F925F0F0E5821582700292
:0708FF001583E0FA38F02236
:09090600EBF0A3EAF0A3E9F022F2
:10090F00D083D082F8E4937012740193700DA3A377
:10091F0093F8740193F5828883E47374029368608B
:06092F00EFA3A3A380DF8B
:101A8C00EFB40A07740D121A97740A309811A899BA
:101A9C00B8130CC2983098FDA899C298B811F630BA
:071AAC0099FDC299F5992292
:00000001FF
