:030000000216C421
:0C16C400787FE4F6D8FD75812102170B39
:081B4D001209BD121B2980FEE4
:0300AB00021B1C19
:0D1B1C0053E6BFD2900000000000C29032DE
:071B550044019E00000000A6
:10000300EF4E601A900196E0FCA3E0FDED1D700138
:0E0013001C144C70F7EF1F70011E144E70E6A7
:0100210022BC
:081AFB00900077E0FEA3E0FF7C
:0A1B0300EF1FAC0670011E4C70F6D7
:011B0D0022B5
:101AD500900196E0FCA3E0FD120938E47B83FAF956
:101AE500F81207CD90019A1208FB90019AE0C313F2
:061AF500FEA3E013FF2236
:101A8200900199E06599600AE599F0E4900198F077
:101A92008006900198E004F0900198E0C394E97404
:0C1AA20080948040060075C760000022A0
:0B175000900116EBF0A3EAF0A3E9F013
:10175B009001817401F0A37401F0A37419F090014E
:10176B0016E0F9A3E0FAA3E0900079C9F0A3EAF040
:10177B00A3E9F0900181E0F9A3E0FAA3E090007CEB
:10178B00C9F0A3EAF0A3E9F07B017A0179411219C0
:10179B0004900181E4F0A3F0A3F07B017A0179417D
:0517AB007F01021A1B82
:10138700EF14601614602C14604D14606C14700315
:1013970002141B2405600302143E90FE02E0547EF3
:1013A7004480F0E030E0F390FE00E054FCF090FE63
:1013B70003807A90FE04E0547E4480F0E030E0F34E
:1013C70090FE00E054FC4403F090FE02E4F090FE2F
:1013D70008F090FE03F02290FE08E0547E4480F06F
:1013E700E030E0F390FE00E054FC4402F090FE048D
:1013F700E4F090FE02F0A3F02290FE03E0543E4496
:1014070080F0E030E0F390FE00E054FC4401F090FF
:10141700FE02801990FE03E0543E44C0F0E030E045
:10142700F390FE00E054FC4401F090FE02E4F090DB
:08143700FE08F090FE04F02213
:0C1B3600EF90FE01700304F022EFF0229B
:1009BD0043BA80AF9FE4FCFDFEC004A905AA06ABB7
:1009CD000778FBE6FFD000C3EF9BFFEE9AFEED9993
:1009DD00FDEC98FCE47BF07AD2F9F81207CDC3E474
:1009ED009FFF74369EFE746E9DFD74019CFC9000FD
:1009FD00001208FB900000E0FCA3E0FDA3E0FEA3C5
:100A0D00E0FFC00790FE01E0FBE4FAF9F8D0071211
:100A1D0008589000001208FB7FC07EF67D577C00C1
:100A2D00900000E0F8A3E0F9A3E0FAA3E0FBC31205
:100A3D0008EA500D90019E12090700546000020B48
:100A4D00EC7FC07E267D827C00900000E0F8A3E064
:100A5D00F9A3E0FAA3E0FBC31208EA500D90019E42
:100A6D00120907005B8D80020BEC7F807EED7DAF60
:100A7D007C00900000E0F8A3E0F9A3E0FAA3E0FB0E
:100A8D00C31208EA500D90019E12090700A8C0007C
:100A9D00020BEC7F807E2D7DE87C00900000E0F85D
:100AAD00A3E0F9A3E0FAA3E0FBC31208EA500D900E
:100ABD00019E12090700B71B00020BEC7F807E36EA
:100ACD007D257C01900000E0F8A3E0F9A3E0FAA3F6
:100ADD00E0FBC31208EA500D90019E12090701199F
:100AED004000020BEC7F807E567D417C0190000022
:100AFD00E0F8A3E0F9A3E0FAA3E0FBC31208EA5083
:100B0D000D90019E12090701312D00020BEC7F00A3
:100B1D007EDB7D5F7C01900000E0F8A3E0F9A3E0AF
:100B2D00FAA3E0FBC31208EA500D90019E120907CB
:100B3D0001518000020BEC7F607E197D857C019058
:100B4D000000E0F8A3E0F9A3E0FAA3E0FBC312086C
:100B5D00EA500D90019E120907016E3600020BEC52
:100B6D007F207EE07DB27C01900000E0F8A3E0F9EB
:100B7D00A3E0FAA3E0FBC31208EA500C90019E1209
:100B8D000907019BFCC080577FE07EA67DE07C01BC
:100B9D00900000E0F8A3E0F9A3E0FAA3E0FBC31294
:100BAD0008EA500C90019E12090701C9C380802FDD
:100BBD007F607E2B7DFF7C01900000E0F8A3E0F9C3
:100BCD00A3E0FAA3E0FBC31208EA90019E500912BC
:100BDD00090701FA4000800712090702160EC0E44A
:100BED007B107A27F9F890019EE0FCA3E0FDA3E0CD
:100BFD00FEA3E0FF120858900196EEF0A3EFF0E48B
:0D0C0D00900199F0900198F0121A52D2AFA8
:010C1A0022B7
:0B12C200900007EBF0A3EAF0A3E9F0B6
:1012CD007F647E00121AD5900077EEF0A3EFF090B8
:1012DD0000747401F0A37400F0A3740AF090000779
:1012ED00E0F9A3E0FAA3E0900079C9F0A3EAF0A336
:1012FD00E9F0900074E0F9A3E0FAA3E090007CC956
:10130D00F0A3EAF0A3E9F07B017A00793412190415
:10131D00900032EEF0A3EFF0900074E4F0A3F0A390
:10132D00F07FF47E01120003E4FBFAD3900033E06A
:10133D009B900032E09A40E9D2B1C2B1121AFB740F
:10134D00342BF58274003AF583E0F9E4FDEDC39496
:10135D0008748094805014E930E004D2B18002C248
:10136D00B1E9C313F9121AFB0D80E2D2B1121AFBC7
:0A137D00121AFB0BBB00010A80B13D
:0B14E9009001A2EBF0A3EAF0A3E9F0F1
:1014F400E4FFFE9001A8F0A3F0A3F0A3F09001A2F2
:10150400E0FBA3E0FAA3E0F912072760779001ABB0
:10151400E004F070069001AAE004F09001A5E0FB5D
:10152400A3E0FAA3E0F98F828E83120740FD9001B5
:10153400A2E0FBA3E0FAA3E0F9120727B505070F21
:10154400BF00010E8012E4FEFF9001AAE0FDA3E0BB
:101554009001A8CDF0A3EDF09001A3E475F0011281
:1015640007A19001A5E0FBA3E0FAA3E0F98F828E26
:1015740083120740FD3395E04D70829001A8E0FE90
:08158400A3E0FF227EFF7FFFC0
:01158C00223C
:10110B00E49001B1F09001B3F09001B2F09001B214
:10111B00E0C3940A7480948040030211EDE07E00DA
:10112B002DF582EE3CF583120740FF3395E0FEC3AD
:10113B00EF9430EE648094804052D3EF9437EE649A
:10114B0080948050479001B3E004F0E06401701983
:10115B009001B2E07E002DF582EE3CF58312074044
:10116B0024D0C454F09001B1F09001B3E06402704C
:10117B001B9001B2E07E002DF582EE3CF583120749
:10118B004024D0FF9001B1E04FFFF0229001B2E07C
:10119B007E002DF582EE3CF583120740FF3395E080
:1011AB00FEC3EF9438EE648094804011D3EF9439F2
:1011BB00EE6480948050069001B3E004F09001B28D
:1011CB00E07E002DF582EE3CF583120740FF642C88
:1011DB006010EF3395E04F60099001B2E004F0022C
:0711EB0011189001B1E0FFB3
:0111F20022DA
:0811F3009001ACECF0A3EDF05B
:1011FB00E4A3F0A3F0A3F09001B0E0FFC394147448
:10120B0080948040030212B99001ADE02FFF900152
:10121B00ACE034008F82F583120740FF3395E0FE7C
:10122B00C3EF9430EE648094804051D3EF9439EE49
:10123B006480948050469001AEE0FEA3E0FF7C00FA
:10124B007D0A12078F9001AEEEF0A3EFF0A3E0FF43
:10125B009001ADE02FFF9001ACE034008F82F5835D
:10126B00120740FF3395E0FEEF24D0FFEE34FFFE74
:10127B009001AFE02FF09001AEE03EF09001B0E0B6
:10128B00FF9001ADE02FFF9001ACE034008F82F5B1
:10129B0083120740FF642C6015EF642E6010EF3350
:1012AB0095E04F60099001B0E004F002120290014A
:0612BB00AEE0FEA3E0FF1F
:0112C100220A
:100DBD00900184EBF0A3EAF0A3E9F0A3ECF0A3ED2E
:010DCD00F035
:100DCE00E4900190F0A3F0A3F0A3F0A3F0A3F090B1
:100DDE00018EF0A3F0900187E0FEA3E0FF90018E5C
:100DEE00E0FCA3E0FDC39FEC9E4003020E8D90013C
:100DFE0089E0FBA3E0FAA3E0F9900190E0FEA3E006
:100E0E00F5828E83120740FF900184E0FBA3E0FA87
:100E1E00A3E0F98D828C83120740B50733900191C0
:100E2E00E004F07006900190E004F090018CE0FE7A
:100E3E00A3E0FF900190E0B50631A3E0B5072C903A
:100E4E00018EE0FFA3E0900194CFF0A3EFF0802F8E
:100E5E00E4900190F0A3F090018FE02401FE900148
:100E6E008EE03400900192F0A3CEF090018FE0045A
:100E7E00F06003020DE390018EE004F0020DE390AA
:100E8E000194E0FEA3E0FF900192E0FCA3E0FDD30D
:100E9E009FEC9E504490018EECF0A3EDF0900194E7
:100EAE00E0FEA3E0FF90018EE0FCA3E0FDC39FEC0B
:100EBE009E5023900184E0FBA3E0FAA3E0F98D821B
:100ECE008C83E412076D90018FE004F070CF9001D7
:0B0EDE008EE004F080C77F01227F003F
:010EE90022E6
:100C1B006770696F5F757070756C6C283C4425301C
:100C2B0032583E2C2564293BB2BBB4E6D4DAB8C3A8
:100C3B00494F0D0A006770696F5F757070756C6C4A
:100C4B00283C44253032583E2C31293BB2BBB4E60C
:100C5B00D4DAB8C3494F0D0A006770696F5F7570BE
:100C6B0070756C6C283C44253032583E2C30293B37
:100C7B00B2BBB4E6D4DAB8C3494F0D0A006770694A
:100C8B006F5F6D6F6465283C44253032583E2C25D0
:100C9B0064293BB2BBB4E6D4DAB8C3494F0D0A00A2
:100CAB006770696F5F6D6F64652844253032582C0F
:100CBB003C25643E293BB2BBB4E6D4DAB8C3C4A32B
:100CCB00CABD0D0A006770696F5F7772697465281A
:100CDB003C25643E2C2564293BB2BBB4E6D4DAB880
:100CEB00C350BFDA0D0A006770696F5F726561648C
:100CFB00283C5025643E293BB2BBB4E6D4DAB8C3DA
:100D0B0050BFDA0D0A006770696F5F6F7574283C0E
:100D1B0044253032583E2C2564293BB2BBB4E6D473
:100D2B00DAB8C3494F0D0A006770696F5F6F75744E
:100D3B00283C44253032583E2C31293BB2BBB4E61B
:100D4B00D4DAB8C3494F0D0A006770696F5F6F75CE
:100D5B0074283C44253032583E2C30293BB2BBB46E
:100D6B00E6D4DAB8C3494F0D0A006770696F5F6943
:100D7B006E283C44253032583E293BB2BBB4E6D4F6
:100D8B00DAB8C3494F0D0A006770696F5F746F67FC
:100D9B00676C65283C44253032583E293BB2BBB4C6
:100DAB00E6D4DAB8C3494F0D0A000102040810203B
:020DBB00408076
:0A0EEA009001B8EDF09001B7EFF0B1
:100EF40064887003020FFBE0FF54F0F50DEF540F0C
:100F0400FF900DB593F50ED3EF9407748094804051
:100F1400237BFF7A0C791B9001B7E0FF90000AE471
:100F2400F0A3EFF09001B8E0FF90000CE4F0A3EF21
:100F3400F01212C29001B8E06055E50D24F0602172
:100F440024F0602224F0602324F0602424F060253F
:100F540024F0602624F060272470702B90FE10800B
:100F64002190FE11801C90FE12801790FE138012B7
:100F740090FE14800D90FE15800890FE168003905C
:100F8400FE17E0450EF0227BFF7A0C79408058E58D
:100F94000D24F0602124F0602224F0602324F0600A
:100FA4002424F0602524F0602624F0602724707047
:100FB4003090FE10802190FE11801C90FE1280174C
:100FC40090FE13801290FE14800D90FE1580089000
:100FD400FE16800390FE17E0FFE50EF4FEEF5EF0D0
:100FE400227BFF7A0C79649001B7E0FF90000AE459
:070FF400F0A3EFF01212C29E
:010FFB0022D3
:0A041300900006EDF0900005EFF0F8
:10041D0064887003020726E0FF54F0F50DEF540FCA
:10042D00FF900DB593F50ED3EF9407748094804033
:10043D00237BFF7A0C7988900005E0FF90000AE499
:10044D00F0A3EFF0900006E0FF90000CE4F0A3EFB6
:10045D00F01212C2E50D24F0602124F0602224F088
:10046D00602324F0602424F0602524F0602624F01D
:10047D00602724707028E4F50D8046750D018041CC
:10048D00750D02803C750D038037750D0480327536
:10049D000D05802D750D068028750D0780237BFFBA
:1004AD007A0C7988900005E0FF90000AE4F0A3EF44
:1004BD00F0900006E0FF90000CE4F0A3EFF01212B4
:1004CD00C2900006E0FFD3940374809480401C7B9F
:1004DD00FF7A0C79AB900005E0FD90000AE4F0A3E3
:1004ED00EDF0A3E4F0A3EFF01212C2E50D70409011
:1004FD000006E0FF7E007007E50EF452935294EF74
:10050D0064014E7009E50E4293E50EF4529490008D
:10051D0006E064027008E50E4293E50E42949000E9
:10052D0006E064037009E50EF45293E50E4294E57E
:10053D000D64017040900006E0FF7E007007E50E2F
:10054D00F452915292EF64014E7009E50E4291E51D
:10055D000EF45292900006E064027008E50E42918E
:10056D00E50E4292900006E064037009E50EF45228
:10057D0091E50E4292E50D64027040900006E0FF99
:10058D007E007007E50EF452955296EF64014E70A1
:10059D0009E50E4295E50EF45296900006E06402D0
:1005AD007008E50E4295E50E4296900006E0640354
:1005BD007009E50EF45295E50E4296E50D64037053
:1005CD0040900006E0FF7E007007E50EF452B15238
:1005DD00B2EF64014E7009E50E42B1E50EF452B270
:1005ED00900006E064027008E50E42B1E50E42B2DD
:1005FD00900006E064037009E50EF452B1E50E4279
:10060D00B2E50D64047040900006E0FF7E007007B7
:10061D00E50EF452B352B4EF64014E7009E50E428B
:10062D00B3E50EF452B4900006E064027008E50ED6
:10063D0042B3E50E42B4900006E064037009E50E86
:10064D00F452B3E50E42B4E50D640570409000061A
:10065D00E0FF7E007007E50EF452C952CAEF640147
:10066D004E7009E50E42C9E50EF452CA900006E03F
:10067D0064027008E50E42C9E50E42CA900006E01C
:10068D0064037009E50EF452C9E50E42CAE50D6426
:10069D00067040900006E0FF7E007007E50EF452F4
:1006AD00CB52CCEF64014E7009E50E42CBE50EF452
:1006BD0052CC900006E064027008E50E42CBE50EC8
:1006CD0042CC900006E064037009E50EF452CBE5D0
:1006DD000E42CCE50D64077040900006E0FF7E00F1
:1006ED007007E50EF452E152E2EF64014E7009E538
:1006FD000E42E1E50EF452E2900006E0640270084D
:10070D00E50E42E1E50E42E2900006E06403700959
:09071D00E50EF452E1E50E42E2A2
:0107260022B0
:1017B000EFB40900503A9017BDF82828730217D8E3
:1017C0000217DB0217DE0217E10217E40217E70235
:1017D00017EA0217ED0218098D80228D90228DA044
:1017E000228DB0228DC0228DC8228DE8228DF82254
:1017F0007BFF7A0C79D090000AE4F0A3EFF0AF05FC
:0A180000A3E4F0A3EFF01212C222DD
:10180A00EFB40900503D901817F8282873021832CF
:10181A0002183502183802183B02183E0218410213
:10182A00184402184702184AAF8022AF9022AFA08C
:10183A0022AFB022AFC022AFC822AFE822AFF8224F
:10184A007FFF227BFF7A0C79F290000AE4F0A3EF83
:07185A00F01212C27FFF2211
:0A0FFC009001BAEDF09001B9EFF09A
:101006006488700302110AE0FF54F0F50DEF540FE7
:10101600FF900DB593F50ED3EF940774809480403E
:10102600237BFF7A0D79119001B9E0FF90000AE465
:10103600F0A3EFF09001BAE0FF90000CE4F0A3EF0C
:10104600F01212C29001BAE06052E50D24F0602160
:1010560024F0602224F0602324F0602424F060252C
:1010660024F0602624F0602724707028E50E428064
:1010760022E50E429022E50E42A022E50E42B02263
:10108600E50E42C022E50E42C822E50E42E822E500
:101096000E42F8227BFF7A0D79338058E50D24F055
:1010A600602224F0602424F0602624F0602824F0D6
:1010B600602A24F0602C24F0602E24707030E50E37
:1010C600F4528022E50EF4529022E50EF452A0224C
:1010D600E50EF452B022E50EF452C022E50EF452AB
:1010E600C822E50EF452E822E50EF452F8227BFF00
:1010F6007A0D79549001B9E0FF90000AE4F0A3EF6D
:04110600F01212C20F
:01110A0022C2
:05143F009001BBEFF07D
:1014440064887002FF229001BBE0FF54F0F50DEFB9
:10145400540FFF900DB593F50ED3EF940774809459
:101464008040167BFF7A0D79759001BBE0FF9000F8
:101474000AE4F0A3EFF01212C2E50D24F060212477
:10148400F0602224F0602324F0602424F0602524FA
:10149400F0602624F060272470702885800F80393E
:1014A40085900F803485A00F802F85B00F802A850A
:1014B400C00F802585C80F802085E80F801B85F824
:1014C4000F80167BFF7A0D79759001BBE0FF9000C9
:1014D4000AE4F0A3EFF01212C2E50F550E60037F89
:0414E40001227F0062
:0114E80022E1
:05158D009001BCEFF02D
:1015920064887003021629E0FF54F0F50DEF540F32
:1015A200FF900DB593F50ED3EF94077480948040AD
:1015B200167BFF7A0D79939001BCE0FF90000AE45C
:1015C200F0A3EFF01212C2E50D24F0602124F060C6
:1015D2002224F0602324F0602424F0602524F060AB
:1015E2002624F0602724707028E50E628022E50E22
:1015F200629022E50E62A022E50E62B022E50E6242
:10160200C022E50E62C822E50E62E822E50E62F80B
:10161200227BFF7A0D79939001BCE0FF90000AE4EF
:07162200F0A3EFF01212C269
:01162900229E
:10199500EFB40800503E9019A2F82828730219BA2E
:1019A5000219BE0219C20219C60219CA0219CE02CB
:1019B50019D20219D6ED628022ED629022ED62A065
:1019C50022ED62B022ED62C022ED62C822ED62E82E
:0519D50022ED62F82282
:10162A00A907EB6048E9B4080040030216C3901604
:10163A003FF828287302165702165B02165F021635
:10164A006302166702166B02166F021673ED42806A
:10165A0022ED429022ED42A022ED42B022ED42C09C
:10166A0022ED42C822ED42E822ED42F822E9B4080E
:10167A00005046901684F828287302169C0216A178
:10168A000216A60216AB0216B00216B50216BA0266
:10169A0016BFEDF4528022EDF4529022EDF452A0DE
:1016AA0022EDF452B022EDF452C022EDF452C822D7
:0A16BA00EDF452E822EDF452F8229C
:10186100EFB40900504590186EF8282873021889C2
:1018710002188D02189102189502189902189D02FA
:1018810018A10218A50218A9AE80801FAE90801B76
:10189100AEA08017AEB08013AEC0800FAEC8800B73
:1018A100AEE88007AEF880037F0122EE5D60037F22
:0418B10001227F0091
:0118B5002210
:081B5D003031363716174344FE
:101A520075985053873F538EDEE4FD7F011218B60E
:101A62009000051209070001C2007F011219DA4332
:101A72008E4053890FC2ABC28FD28EC209D2AC2222
:1018B600900004EDF0EF147044900004E0FF54C073
:1018C600FEE5A2543F4EF5A2EFC41313540325E0E0
:1018D600245DF582E4341BF583E493FFE4FD1204F2
:1018E60013900004E0C41313540325E0245EF5822C
:0E18F600E4341BF583E493FF7D0312041322F8
:0519DA00900004EFF095
:1019DF00E47B04FAF9F890019EE0FCA3E0FDA3E09C
:1019EF00FEA3E0FF120858900005E0F8A3E0F9A36A
:1019FF00E0FAA3E0FB120858C3E49FFFE49EFE90B9
:0B1A0F000004E01470058F8BEEF58DD5
:011A1A0022A9
:0E1B0E00EF147009AF058F99D2092009FD224E
:10008C00EF147016EB6006D29BD29B8004C29BC20D
:0B009C009BAF058F99D2092009FD22BF
:101A1B009001B4EBF0A3EAF0A3E9F0AE079001B4A8
:101A2B00E0FBA3E0FAA3E0F91207276019AF0690D9
:101A3B0001B4A3E475F0011207B7A9F0FA12072756
:071A4B00FD121B0E80D722E3
:0E0026009000A7EFF0A3EBF0A3EAF0A3E9F03F
:100034009001137401F0A37400F0A374ABF090006A
:10004400A8E0F9A3E0FAA3E0900079C9F0A3EAF0EC
:10005400A3E9F0900113E0F9A3E0FAA3E090007C97
:10006400C9F0A3EAF0A3E9F07B017A0079D312196D
:1000740004900113E4F0A3F0A3F09000A7E0FF7B49
:08008400017A0079D3021A1B76
:0300230002194E71
:10194E00C0E0C0F0C083C082C0D075D000C000C05F
:10195E0001C002C003C004C005C006C00730980510
:10196E00C298121A82309904C299C209D007D006C1
:10197E00D005D004D003D002D001D000D0D0D08278
:07198E00D083D0F0D0E0325D
:0D1B290075E7FF75E62653BAF743E6802204
:0B1B4200E5E630E0037F01227F002277
:0400A70043E680228A
:041B650053E67F22A2
:1016D000021B4DE493A3F8E493A34003F68001F2C8
:1016E00008DFF48029E493A3F85407240CC8C3331B
:1016F000C4540F4420C8834004F456800146F6DFEA
:10170000E4800B0102040810204080901B55E47E09
:10171000019360BCA3FF543F30E509541FFEE493DE
:10172000A360010ECF54C025E060A840B8E493A3A5
:10173000FAE493A3F8E493A3C8C582C8CAC583CAD0
:10174000F0A3C8C582C8CAC583CADFE9DEE780BE88
:011B5C000088
:10072700BB010689828A83E0225002E722BBFE02D0
:09073700E32289828A83E4932203
:10074000BB010CE58229F582E5833AF583E022506E
:1007500006E92582F8E622BBFE06E92582F8E222B8
:0D076000E58229F582E5833AF583E49322D2
:10076D00F8BB010DE58229F582E5833AF583E8F0C2
:10077D00225006E92582C8F622BBFE05E92582C86E
:02078D00F22256
:10078F00EF8DF0A4A8F0CF8CF0A428CE8DF0A42E7E
:02079F00FE2238
:1007A100C5F0F8A3E028F0C5F0F8E58215827002E3
:0607B1001583E038F02280
:1007B700A3F8E0C5F025F0F0E582158270021583F5
:0607C700E0C838F0E82252
:1007CD00E88FF0A4CC8BF0A42CFCE98EF0A42CFCCB
:1007DD008AF0EDA42CFCEA8EF0A4CDA8F08BF0A449
:1007ED002DCC3825F0FDE98FF0A42CCD35F0FCEBA8
:1007FD008EF0A4FEA9F0EB8FF0A4CFC5F02ECD396D
:0F080D00FEE43CFCEAA42DCE35F0FDE43CFC22D9
:10081C0075F008758200EF2FFFEE33FECD33CDCC93
:10082C0033CCC58233C5829BED9AEC99E582984016
:10083C000CF582EE9BFEED9AFDEC99FC0FD5F0D6F3
:10084C00E4CEFBE4CDFAE4CCF9A88222B800C1B91D
:10085C000059BA002DEC8BF084CFCECDFCE5F0CB5B
:10086C00F97818EF2FFFEE33FEED33FDEC33FCEB94
:10087C0033FB10D703994004EB99FB0FD8E5E4F94F
:10088C00FA227818EF2FFFEE33FEED33FDEC33FC3C
:10089C00C933C910D7059BE99A4007EC9BFCE99A30
:1008AC00F90FD8E0E4C9FAE4CCFB2275F010EF2F75
:1008BC00FFEE33FEED33FDCC33CCC833C810D70775
:1008CC009BEC9AE899400AED9BFDEC9AFCE899F8B0
:0E08DC000FD5F0DAE4CDFBE4CCFAE4C8F92243
:1008EA00EB9FF5F0EA9E42F0E99D42F0E89C45F064
:0108FA0022DB
:0C08FB00ECF0A3EDF0A3EEF0A3EFF02270
:10090700A8828583F0D083D08212091E12091E1295
:10091700091E12091EE473E493A3C583C5F0C583BA
:10092700C8C582C8F0A3C583C5F0C583C8C582C83A
:01093700229D
:10093800EC8EF0A4CCC5F0CCCDF8EFA4CEC5F02D4C
:10094800FDE43CFCE8A42EC8C5F03DFDE43CFCEF0A
:0D095800A4FFE5F028FEE43DFDE43CFC2298
:10190400900079E0FFA3E0FEA3E0CF900082F0A373
:10191400EEF0A3EFF090007CE0CBF0A3E0CAF0A3DC
:10192400E0C9F07F22900085AD82AC831207278D39
:10193400828C83F0A309E970010ADFEC90007CE05B
:0A194400FBA3E0FAA3E0F90201138F
:1000AE00E5082482F582E43400F583E00508229009
:1000BE00007F300703900082E475F0011209770289
:1000CE0007272000E97F2ED2008018EF540F2490CE
:1000DE00D43440D4FF30040BEF24BFB41A005003C5
:1000EE002461FFE50960021509050CE50C70020597
:1000FE000B30070E90007FE475F001120977EF02C6
:10010E000965021AAE7403D2078003E4C207F5082C
:10011E0090007F12098EE4F509F50BF50CE50960E8
:10012E00077F201200F180F5750AFFC201C200C2DE
:10013E0002C203C205C206C2081200BDFF700D3016
:10014E0007057F00120102AF0CAE0B22B4255FC271
:10015E00D5C2041200BDFF24D0B40A00501A75F0A7
:10016E000A780930D50508B6FF0106C6A426F62082
:10017E00D5047002D20380D924CFB41A00EF5004F4
:10018E00C2E5D204020303D20180C6D20080C0D2DF
:10019E000280BCD2D580BAD20580B47F201200F185
:1001AE002002077401B5090040F11200AEFF1200E3
:1001BE00F102012BD208D20680951200AEFB12007E
:1001CE00AEFA1200AEF94A4B700679D47A037BFF71
:1001DE0020022EE509602A7E008E827583001207AA
:1001EE004060060EEE650A70F0C2D5EBC0E0EAC0C4
:1001FE00E0E9C0E0EE12034AD0E0F9D0E0FAD0E038
:10020E00FB120727FF60AAEBC0E0EAC0E0E9C0E0FE
:10021E001200F1D0E02401F9D0E03400FAD0E0FB76
:10022E00E50A0460DCD50AD980877BFF7A0379461C
:10023E00D202809C791080027908C206C20880081A
:10024E00D2D5790A8004790AC2D5E50A047002F57E
:10025E000AE4FAFDFEFF1200AEFC7B082001131229
:10026E0000AEFD7B1030000A1200AEFE1200AEFF93
:10027E007B20EC3382D592D55013C3E43000069F19
:10028E00FFE49EFEE42001039DFDE49CFCE4CBF81C
:10029E00C201EC700CCFCECDCCE824F8F870F38010
:1002AE0017C3EF33FFEE33FEED33FDEC33FCEB33D0
:1002BE00FB994002FB0FD8E9EB300105F8D0E0C402
:1002CE0048B201C0E00AEC4D4E4F78207B0070C260
:1002DE00EAB50A0040BCC0E012034CD0F0D0E020DA
:1002EE000104C4C0E0C4B201C0F01200DAD0F0D5EF
:1002FE00F0EB02012B12099701C8530242580199E3
:10030E004C01954202464F024E44024E4901AE4305
:08031E00025455023846023872
:100326004502384703F450019D2D01A12E01C42B2F
:1003360001A52301C22003DD2A015D48000001BC9E
:100346003F3F3F00790AA2D5200314300509B910B2
:10035600020404B9080104A2D520060250010420B3
:1003660002689202B509005034C0E07F20300319BC
:100376007F30A20272067205500F1203A3C202C298
:1003860006C205C2087F30800F300503E9C0E012BF
:1003960000F1300503D0E0F9D0E0B509CC300517FF
:1003A6007F30B9100C1200F17F583004077F788037
:1003B60003B908031200F13002057F2D0200F17F18
:1003C600202008F87F2B2006F322920280CF286E89
:1003D600756C6C2900D2011200AE3001F8C20178AA
:1003E6000930D50108F602015D2D50434958120027
:1003F600AE2403B405004001E49003EF931200E23B
:0D040600743A1200E2D203750904020242AA
:10096500BB010689828A83F0225002F722BBFE0171
:02097500F3226B
:10097700F8E0FBA3A3E0F925F0F0E5821582700209
:070987001583E0FA38F022AD
:09098E00EBF0A3EAF0A3E9F0226A
:10099700D083D082F8E4937012740193700DA3A3EF
:1009A70093F8740193F5828883E473740293686003
:0609B700EFA3A3A380DF03
:101AAE00EFB40A07740D121AB9740A309811A89976
:101ABE00B8130CC2983098FDA899C298B811F63098
:071ACE0099FDC299F5992270
:00000001FF
