:0300000002163CA9
:0C163C00787FE4F6D8FD7581210216834A
:101B050048656C6C6F2C4543424D20697320727596
:101B15006E696E672061742025642074696D657334
:041B25002E0D0A0077
:101A6000E4900000F0120935900000E004F07BFFE4
:101A70007A1B7905E0FF900005E4F0A3EFF07F0109
:0C1A80001216C87FE87E0312000380DC11
:071B710044013000000000F8
:10000300EF4E601A900128E0FCA3E0FDED1D7001A6
:0E0013001C144C70F7EF1F70011E144E70E6A7
:0100210022BC
:081B4400900078E0FEA3E0FF31
:0A1B4C00EF1FAC0670011E4C70F68E
:011B5600226C
:101ADF00900128E0FCA3E0FD1208B0E47B83FAF943
:101AEF00F812074590012C12087390012CE0C313D4
:061AFF00FEA3E013FF222C
:101A8C0090012BE06599600AE599F0E490012AF049
:101A9C00800690012AE004F090012AE0C394E974D6
:0C1AAC0080948040060075C76000002296
:0B172E009000A8EBF0A3EAF0A3E9F0A4
:101739009001137401F0A37400F0A374ABF090004E
:10174900A8E0F9A3E0FAA3E090007AC9F0A3EAF0CF
:10175900A3E9F0900113E0F9A3E0FAA3E090007D7A
:10176900C9F0A3EAF0A3E9F07B017A0079D3121852
:10177900E2900113E4F0A3F0A3F07B017A0079D39E
:051789007F010219F9C7
:1012FF00EF14601614602C14604D14606C1470039E
:10130F00021393240560030213B690FE02E0547E8D
:10131F004480F0E030E0F390FE00E054FCF090FEEB
:10132F0003807A90FE04E0547E4480F0E030E0F3D6
:10133F0090FE00E054FC4403F090FE02E4F090FEB7
:10134F0008F090FE03F02290FE08E0547E4480F0F7
:10135F00E030E0F390FE00E054FC4402F090FE0415
:10136F00E4F090FE02F0A3F02290FE03E0543E441E
:10137F0080F0E030E0F390FE00E054FC4401F09088
:10138F00FE02801990FE03E0543E44C0F0E030E0CE
:10139F00F390FE00E054FC4401F090FE02E4F09064
:0813AF00FE08F090FE04F0229C
:0C1B6500EF90FE01700304F022EFF0226C
:1009350043BA80AF9FE4FCFDFEC004A905AA06AB3F
:100945000778FBE6FFD000C3EF9BFFEE9AFEED991B
:10095500FDEC98FCE47BF07AD2F9F8120745C3E484
:100965009FFF74369EFE746E9DFD74019CFC900085
:1009750001120873900001E0FCA3E0FDA3E0FEA3D3
:10098500E0FFC00790FE01E0FBE4FAF9F8D007129A
:1009950007D09000011208737FC07EF67D577C005A
:1009A500900001E0F8A3E0F9A3E0FAA3E0FBC3128D
:1009B5000862500D90013012087F00546000020B50
:1009C500647FC07E267D827C00900001E0F8A3E074
:1009D500F9A3E0FAA3E0FBC3120862500D900130C1
:1009E50012087F005B8D80020B647F807EED7DAFFA
:1009F5007C00900001E0F8A3E0F9A3E0FAA3E0FB96
:100A0500C3120862500D90013012087F00A8C00083
:100A1500020B647F807E2D7DE87C00900001E0F86C
:100A2500A3E0F9A3E0FAA3E0FBC3120862500D901E
:100A3500013012087F00B71B00020B647F807E36F1
:100A45007D257C01900001E0F8A3E0F9A3E0FAA37D
:100A5500E0FBC3120862500D90013012087F0119A6
:100A65004000020B647F807E567D417C0190000131
:100A7500E0F8A3E0F9A3E0FAA3E0FBC31208625093
:100A85000D90013012087F01312D00020B647F00AB
:100A95007EDB7D5F7C01900001E0F8A3E0F9A3E037
:100AA500FAA3E0FBC3120862500D90013012087FD3
:100AB50001518000020B647F607E197D857C019069
:100AC5000001E0F8A3E0F9A3E0FAA3E0FBC31208F4
:100AD50062500D90013012087F016E3600020B64E2
:100AE5007F207EE07DB27C01900001E0F8A3E0F973
:100AF500A3E0FAA3E0FBC3120862500C9001301288
:100B0500087F019BFCC080577FE07EA67DE07C01CD
:100B1500900001E0F8A3E0F9A3E0FAA3E0FBC3121B
:100B25000862500C90013012087F01C9C380802FE4
:100B35007F607E2B7DFF7C01900001E0F8A3E0F94A
:100B4500A3E0FAA3E0FBC31208629001305009123A
:100B5500087F01FA4000800712087F02160EC0E4E4
:100B65007B107A27F9F8900130E0FCA3E0FDA3E0C3
:100B7500FEA3E0FF1207D0900128EEF0A3EFF0E40A
:0D0B850090012BF090012AF0121A30D2AF2F
:010B92002240
:0B123A00900008EBF0A3EAF0A3E9F03D
:101245007F647E00121ADF900078EEF0A3EFF09035
:1012550000757401F0A37400F0A3740BF0900008FE
:10126500E0F9A3E0FAA3E090007AC9F0A3EAF0A3BD
:10127500E9F0900075E0F9A3E0FAA3E090007DC9DC
:10128500F0A3EAF0A3E9F07B017A0079351218E2C0
:10129500900033EEF0A3EFF0900075E4F0A3F0A317
:1012A500F07FF47E01120003E4FBFAD3900034E0F2
:1012B5009B900033E09A40E9D2B1C2B1121B44744D
:1012C500352BF58274003AF583E0F9E4FDEDC3941E
:1012D50008748094805014E930E004D2B18002C2D1
:1012E500B1E9C313F9121B440D80E2D2B1121B44BC
:0A12F500121B440BBB00010A80B17C
:0B146100900134EBF0A3EAF0A3E9F0E7
:10146C00E4FFFE90013AF0A3F0A3F0A3F090013456
:10147C00E0FBA3E0FAA3E0F912069F607790013D30
:10148C00E004F0700690013CE004F0900137E0FBC2
:10149C00A3E0FAA3E0F98F828E831206B8FD9001C7
:1014AC0034E0FBA3E0FAA3E0F912069FB505070FA1
:1014BC00BF00010E8012E4FEFF90013CE0FDA3E0B2
:1014CC0090013ACDF0A3EDF0900135E475F00112E6
:1014DC000719900137E0FBA3E0FAA3E0F98F828EA5
:1014EC00831206B8FD3395E04D708290013AE0FE10
:0814FC00A3E0FF227EFF7FFF49
:0115040022C4
:10108300E4900143F0900145F0900144F090014455
:10109300E0C3940A748094804003021165E07E00EB
:1010A3002DF582EE3CF5831206B8FF3395E0FEC3BF
:1010B300EF9430EE648094804052D3EF9437EE6423
:1010C3008094805047900145E004F0E0640170197A
:1010D300900144E07E002DF582EE3CF5831206B8C4
:1010E30024D0C454F0900143F0900145E0640270B1
:1010F3001B900144E07E002DF582EE3CF583120641
:10110300B824D0FF900143E04FFFF022900144E068
:101113007E002DF582EE3CF5831206B8FF3395E091
:10112300FEC3EF9438EE648094804011D3EF94397A
:10113300EE648094805006900145E004F0900144F1
:10114300E07E002DF582EE3CF5831206B8FF642C99
:101153006010EF3395E04F6009900144E004F00222
:071163001090900143E0FF32
:01116A002262
:08116B0090013EECF0A3EDF051
:10117300E4A3F0A3F0A3F0900142E0FFC39414743E
:10118300809480400302123190013FE02FFF9001D1
:101193003EE034008F82F5831206B8FF3395E0FEFC
:1011A300C3EF9430EE648094804051D3EF9439EED2
:1011B300648094805046900140E0FEA3E0FF7C00F1
:1011C3007D0A120707900140EEF0A3EFF0A3E0FFC2
:1011D30090013FE02FFF90013EE034008F82F583C2
:1011E3001206B8FF3395E0FEEF24D0FFEE34FFFE86
:1011F300900141E02FF0900140E03EF0900142E089
:10120300FF90013FE02FFF90013EE034008F82F515
:10121300831206B8FF642C6015EF642E6010EF3361
:1012230095E04F6009900142E004F002117A9001C9
:0612330040E0FEA3E0FF15
:011239002292
:100D3500900116EBF0A3EAF0A3E9F0A3ECF0A3ED24
:010D4500F0BD
:100D4600E4900122F0A3F0A3F0A3F0A3F0A3F090A7
:100D56000120F0A3F0900119E0FEA3E0FF9001202E
:100D6600E0FCA3E0FDC39FEC9E4003020E0590014C
:100D76001BE0FBA3E0FAA3E0F9900122E0FEA3E06A
:100D8600F5828E831206B8FF900116E0FBA3E0FA07
:100D9600A3E0F98D828C831206B8B5073390012340
:100DA600E004F07006900122E004F090011EE0FEDF
:100DB600A3E0FF900122E0B50631A3E0B5072C9031
:100DC6000120E0FFA3E0900126CFF0A3EFF0802FF3
:100DD600E4900122F0A3F0900121E02401FE9001AD
:100DE60020E03400900124F0A3CEF0900121E0042D
:100DF600F06003020D5B900120E004F0020D5B90B1
:100E06000126E0FEA3E0FF900124E0FCA3E0FDD371
:100E16009FEC9E5044900120ECF0A3EDF09001264B
:100E2600E0FEA3E0FF900120E0FCA3E0FDC39FEC01
:100E36009E5023900116E0FBA3E0FAA3E0F98D8211
:100E46008C83E41206E5900121E004F070CF900156
:0B0E560020E004F080C77F01227F0035
:010E6100226E
:100B93006770696F5F757070756C6C283C442530A5
:100BA30032583E2C2564293BB2BBB4E6D4DAB8C331
:100BB300494F0D0A006770696F5F757070756C6CD3
:100BC300283C44253032583E2C31293BB2BBB4E695
:100BD300D4DAB8C3494F0D0A006770696F5F757047
:100BE30070756C6C283C44253032583E2C30293BC0
:100BF300B2BBB4E6D4DAB8C3494F0D0A00677069D3
:100C03006F5F6D6F6465283C44253032583E2C2558
:100C130064293BB2BBB4E6D4DAB8C3494F0D0A002A
:100C23006770696F5F6D6F64652844253032582C97
:100C33003C25643E293BB2BBB4E6D4DAB8C3C4A3B3
:100C4300CABD0D0A006770696F5F777269746528A2
:100C53003C25643E2C2564293BB2BBB4E6D4DAB808
:100C6300C350BFDA0D0A006770696F5F7265616414
:100C7300283C5025643E293BB2BBB4E6D4DAB8C362
:100C830050BFDA0D0A006770696F5F6F7574283C97
:100C930044253032583E2C2564293BB2BBB4E6D4FC
:100CA300DAB8C3494F0D0A006770696F5F6F7574D7
:100CB300283C44253032583E2C31293BB2BBB4E6A4
:100CC300D4DAB8C3494F0D0A006770696F5F6F7557
:100CD30074283C44253032583E2C30293BB2BBB4F7
:100CE300E6D4DAB8C3494F0D0A006770696F5F69CC
:100CF3006E283C44253032583E293BB2BBB4E6D47F
:100D0300DAB8C3494F0D0A006770696F5F746F6784
:100D1300676C65283C44253032583E293BB2BBB44E
:100D2300E6D4DAB8C3494F0D0A00010204081020C3
:020D33004080FE
:0A0E6200900147EDF0900146EFF01B
:100E6C0064887003020F73E0FF54F0F50DEF540F1C
:100E7C00FF900D2D93F50ED3EF9407748094804062
:100E8C00237BFF7A0B7993900146E0FF90000BE4F3
:100E9C00F0A3EFF0900147E0FF90000DE4F0A3EF1A
:100EAC00F012123A900147E06055E50D24F06021F4
:100EBC0024F0602224F0602324F0602424F06025C8
:100ECC0024F0602624F060272470702B90FE108094
:100EDC002190FE11801C90FE12801790FE13801240
:100EEC0090FE14800D90FE15800890FE16800390E5
:100EFC00FE17E0450EF0227BFF7A0B79B88058E59F
:100F0C000D24F0602124F0602224F0602324F06092
:100F1C002424F0602524F0602624F06027247070CF
:100F2C003090FE10802190FE11801C90FE128017D4
:100F3C0090FE13801290FE14800D90FE1580089088
:100F4C00FE16800390FE17E0FFE50EF4FEEF5EF058
:100F5C00227BFF7A0B79DC900146E0FF90000BE4DA
:070F6C00F0A3EFF012123AAE
:010F7300225B
:0A038B00900007EDF0900006EFF07F
:100395006488700302069EE0FF54F0F50DEF540FDC
:1003A500FF900D2D93F50ED3EF9407748094804044
:1003B500237BFF7A0C7900900006E0FF90000BE4A8
:1003C500F0A3EFF0900007E0FF90000DE4F0A3EF3D
:1003D500F012123AE50D24F0602124F0602224F099
:1003E500602324F0602424F0602524F0602624F0A6
:1003F500602724707028E4F50D8046750D01804155
:10040500750D02803C750D038037750D04803275BE
:100415000D05802D750D068028750D0780237BFF42
:100425007A0C7900900006E0FF90000BE4F0A3EF52
:10043500F0900007E0FF90000DE4F0A3EFF012123A
:100445003A900007E0FFD3940374809480401C7BAE
:10045500FF7A0C7923900006E0FD90000BE4F0A3F1
:10046500EDF0A3E4F0A3EFF012123AE50D70409021
:100475000007E0FF7E007007E50EF452935294EFFB
:1004850064014E7009E50E4293E50EF45294900016
:1004950007E064027008E50E4293E50E4294900071
:1004A50007E064037009E50EF45293E50E4294E506
:1004B5000D64017040900007E0FF7E007007E50EB7
:1004C500F452915292EF64014E7009E50E4291E5A6
:1004D5000EF45292900007E064027008E50E429116
:1004E500E50E4292900007E064037009E50EF452B0
:1004F50091E50E4292E50D64027040900007E0FF21
:100505007E007007E50EF452955296EF64014E7029
:1005150009E50E4295E50EF45296900007E0640257
:100525007008E50E4295E50E4296900007E06403DB
:100535007009E50EF45295E50E4296E50D640370DB
:1005450040900007E0FF7E007007E50EF452B152BF
:10055500B2EF64014E7009E50E42B1E50EF452B2F8
:10056500900007E064027008E50E42B1E50E42B264
:10057500900007E064037009E50EF452B1E50E4200
:10058500B2E50D64047040900007E0FF7E0070073F
:10059500E50EF452B352B4EF64014E7009E50E4214
:1005A500B3E50EF452B4900007E064027008E50E5E
:1005B50042B3E50E42B4900007E064037009E50E0E
:1005C500F452B3E50E42B4E50D64057040900007A2
:1005D500E0FF7E007007E50EF452C952CAEF6401D0
:1005E5004E7009E50E42C9E50EF452CA900007E0C7
:1005F50064027008E50E42C9E50E42CA900007E0A4
:1006050064037009E50EF452C9E50E42CAE50D64AE
:10061500067040900007E0FF7E007007E50EF4527B
:10062500CB52CCEF64014E7009E50E42CBE50EF4DA
:1006350052CC900007E064027008E50E42CBE50E4F
:1006450042CC900007E064037009E50EF452CBE557
:100655000E42CCE50D64077040900007E0FF7E0078
:100665007007E50EF452E152E2EF64014E7009E5C0
:100675000E42E1E50EF452E2900007E064027008D4
:10068500E50E42E1E50E42E2900007E064037009E1
:09069500E50EF452E1E50E42E22B
:01069E002239
:10178E00EFB40900503A90179BF82828730217B649
:10179E000217B90217BC0217BF0217C20217C50201
:1017AE0017C80217CB0217E78D80228D90228DA0CD
:1017BE00228DB0228DC0228DC8228DE8228DF82276
:1017CE007BFF7A0C794890000BE4F0A3EFF0AF05A5
:0A17DE00A3E4F0A3EFF012123A2288
:1017E800EFB40900503D9017F5F828287302181037
:1017F80002181302181602181902181C02181F02E0
:101808001822021825021828AF8022AF9022AFA014
:1018180022AFB022AFC022AFC822AFE822AFF82271
:101828007FFF227BFF7A0C796A90000BE4F0A3EF2C
:07183800F012123A7FFF22BB
:0A0F7400900149EDF0900148EFF004
:100F7E0064887003021082E0FF54F0F50DEF540FF9
:100F8E00FF900D2D93F50ED3EF940774809480404F
:100F9E00237BFF7A0C7989900148E0FF90000BE4E7
:100FAE00F0A3EFF0900149E0FF90000DE4F0A3EF05
:100FBE00F012123A900149E06052E50D24F06021E2
:100FCE0024F0602224F0602324F0602424F06025B5
:100FDE0024F0602624F0602724707028E50E4280ED
:100FEE0022E50E429022E50E42A022E50E42B022EC
:100FFE00E50E42C022E50E42C822E50E42E822E589
:10100E000E42F8227BFF7A0C79AB8058E50D24F066
:10101E00602224F0602424F0602624F0602824F05E
:10102E00602A24F0602C24F0602E24707030E50EBF
:10103E00F4528022E50EF4529022E50EF452A022D4
:10104E00E50EF452B022E50EF452C022E50EF45233
:10105E00C822E50EF452E822E50EF452F8227BFF88
:10106E007A0C79CC900148E0FF90000BE4F0A3EFEE
:04107E00F012123A20
:01108200224B
:0513B70090014AEFF077
:1013BC0064887002FF2290014AE0FF54F0F50DEFB3
:1013CC00540FFF900D2D93F50ED3EF94077480946A
:1013DC008040167BFF7A0C79ED90014AE0FF90007B
:1013EC000BE4F0A3EFF012123AE50D24F060212487
:1013FC00F0602224F0602324F0602424F060252483
:10140C00F0602624F060272470702885800F8039C6
:10141C0085900F803485A00F802F85B00F802A8592
:10142C00C00F802585C80F802085E80F801B85F8AC
:10143C000F80167BFF7A0C79ED90014AE0FF90004B
:10144C000BE4F0A3EFF012123AE50F550E60037F98
:04145C0001227F00EA
:011460002269
:0515050090014BEFF026
:10150A00648870030215A1E0FF54F0F50DEF540F43
:10151A00FF900D2D93F50ED3EF94077480948040BD
:10152A00167BFF7A0D790B90014BE0FF90000BE4DC
:10153A00F0A3EFF012123AE50D24F0602124F060D6
:10154A002224F0602324F0602424F0602524F06033
:10155A002624F0602724707028E50E628022E50EAA
:10156A00629022E50E62A022E50E62B022E50E62CA
:10157A00C022E50E62C822E50E62E822E50E62F894
:10158A00227BFF7A0D790B90014BE0FF90000BE470
:07159A00F0A3EFF012123A7A
:0115A1002227
:10197300EFB40800503E901980F828287302199894
:1019830002199C0219A00219A40219A80219AC0297
:1019930019B00219B4ED628022ED629022ED62A0CB
:1019A30022ED62B022ED62C022ED62C822ED62E850
:0519B30022ED62F822A4
:1015A200A907EB6048E9B40800400302163B901516
:1015B200B7F82828730215CF0215D30215D70215E2
:1015C200DB0215DF0215E30215E70215EBED42809F
:1015D20022ED429022ED42A022ED42B022ED42C025
:1015E20022ED42C822ED42E822ED42F822E9B40897
:1015F2000050469015FCF82828730216140216199A
:1016020002161E02162302162802162D0216320296
:101612001637EDF4528022EDF4529022EDF452A0EE
:1016220022EDF452B022EDF452C022EDF452C8225F
:0A163200EDF452E822EDF452F82224
:10183F00EFB40900504590184CF828287302186728
:10184F0002186B02186F02187302187702187B02C6
:10185F00187F021883021887AE80801FAE90801BFE
:10186F00AEA08017AEB08013AEC0800FAEC8800B95
:10187F00AEE88007AEF880037F0122EE5D60037F44
:04188F0001227F00B3
:011893002232
:081B79003031363716174344E2
:101A300075985053873F538EDEE4FD7F0112189452
:101A400090000612087F0001C2007F011219B843FE
:101A50008E4053890FC2ABC28FD28EC209D2AC2244
:10189400900005EDF0EF147044900005E0FF54C093
:1018A400FEE5A2543F4EF5A2EFC41313540325E002
:1018B4002479F582E4341BF583E493FFE4FD1203F9
:1018C4008B900005E0C41313540325E0247AF582B9
:0E18D400E4341BF583E493FF7D0312038B22A3
:0519B800900005EFF0B6
:1019BD00E47B04FAF9F8900130E0FCA3E0FDA3E02C
:1019CD00FEA3E0FF1207D0900006E0F8A3E0F9A314
:1019DD00E0FAA3E0FB1207D0C3E49FFFE49EFE9064
:0B19ED000005E01470058F8BEEF58DF7
:0119F80022CC
:0E1B5700EF147009AF058F99D2092009FD2205
:101B2900EF147016EB6006D29BD29B8004C29BC255
:0B1B39009BAF058F99D2092009FD2207
:1019F900900070EBF0A3EAF0A3E9F0AE0790007055
:101A0900E0FBA3E0FAA3E0F912069F6019AF069084
:101A19000070A3E475F00112072FA9F0FA12069FCE
:071A2900FD121B5780D722BC
:0E16C800900001EFF0A3EBF0A3EAF0A3E9F02D
:1016D60090006D7401F0A37400F0A37405F09000FF
:1016E60002E0F9A3E0FAA3E090007AC9F0A3EAF0D9
:1016F600A3E9F090006DE0F9A3E0FAA3E090007D85
:10170600C9F0A3EAF0A3E9F07B017A00792D12185B
:10171600E290006DE4F0A3F0A3F0900001E0FF7BFF
:08172600017A00792D0219F986
:0300230002192C93
:10192C00C0E0C0F0C083C082C0D075D000C000C081
:10193C0001C002C003C004C005C006C00730980532
:10194C00C298121A8C309904C299C209D007D006D9
:10195C00D005D004D003D002D001D000D0D0D0829A
:07196C00D083D0F0D0E0327F
:10164800021A60E493A3F8E493A34003F68001F23E
:1016580008DFF48029E493A3F85407240CC8C333A3
:10166800C4540F4420C8834004F456800146F6DF72
:10167800E4800B0102040810204080901B71E47E76
:10168800019360BCA3FF543F30E509541FFEE49367
:10169800A360010ECF54C025E060A840B8E493A32E
:1016A800FAE493A3F8E493A3C8C582C8CAC583CA59
:1016B800F0A3C8C582C8CAC583CADFE9DEE780BE11
:011B7800006C
:10069F00BB010689828A83E0225002E722BBFE0259
:0906AF00E32289828A83E493228C
:1006B800BB010CE58229F582E5833AF583E02250F7
:1006C80006E92582F8E622BBFE06E92582F8E22241
:0D06D800E58229F582E5833AF583E493225B
:1006E500F8BB010DE58229F582E5833AF583E8F04B
:1006F500225006E92582C8F622BBFE05E92582C8F7
:02070500F222DE
:10070700EF8DF0A4A8F0CF8CF0A428CE8DF0A42E06
:02071700FE22C0
:10071900C5F0F8A3E028F0C5F0F8E582158270026B
:060729001583E038F02208
:10072F00A3F8E0C5F025F0F0E5821582700215837D
:06073F00E0C838F0E822DA
:10074500E88FF0A4CC8BF0A42CFCE98EF0A42CFC53
:100755008AF0EDA42CFCEA8EF0A4CDA8F08BF0A4D1
:100765002DCC3825F0FDE98FF0A42CCD35F0FCEB30
:100775008EF0A4FEA9F0EB8FF0A4CFC5F02ECD39F5
:0F078500FEE43CFCEAA42DCE35F0FDE43CFC2262
:1007940075F008758200EF2FFFEE33FECD33CDCC1C
:1007A40033CCC58233C5829BED9AEC99E58298409F
:1007B4000CF582EE9BFEED9AFDEC99FC0FD5F0D67C
:1007C400E4CEFBE4CDFAE4CCF9A88222B800C1B9A6
:1007D4000059BA002DEC8BF084CFCECDFCE5F0CBE4
:1007E400F97818EF2FFFEE33FEED33FDEC33FCEB1D
:1007F40033FB10D703994004EB99FB0FD8E5E4F9D8
:10080400FA227818EF2FFFEE33FEED33FDEC33FCC4
:10081400C933C910D7059BE99A4007EC9BFCE99AB8
:10082400F90FD8E0E4C9FAE4CCFB2275F010EF2FFD
:10083400FFEE33FEED33FDCC33CCC833C810D707FD
:100844009BEC9AE899400AED9BFDEC9AFCE899F838
:0E0854000FD5F0DAE4CDFBE4CCFAE4C8F922CB
:10086200EB9FF5F0EA9E42F0E99D42F0E89C45F0EC
:010872002263
:0C087300ECF0A3EDF0A3EEF0A3EFF022F8
:10087F00A8828583F0D083D0821208961208961230
:10088F000896120896E473E493A3C583C5F0C58355
:10089F00C8C582C8F0A3C583C5F0C583C8C582C8C3
:0108AF002226
:1008B000EC8EF0A4CCC5F0CCCDF8EFA4CEC5F02DD5
:1008C000FDE43CFCE8A42EC8C5F03DFDE43CFCEF93
:0D08D000A4FFE5F028FEE43DFDE43CFC2221
:1018E20090007AE0FFA3E0FEA3E0CF900083F0A394
:1018F200EEF0A3EFF090007DE0CBF0A3E0CAF0A3FE
:10190200E0C9F07F22900086AD82AC8312069F8DE3
:10191200828C83F0A309E970010ADFEC90007DE07C
:0A192200FBA3E0FAA3E0F902008B3A
:10002600E5082483F582E43400F583E00508229090
:100036000080300703900083E475F0011208EF0298
:10004600069F2000E97F2ED2008018EF540F2490DF
:10005600D43440D4FF30040BEF24BFB41A0050034D
:100066002461FFE50960021509050CE50C7002051F
:100076000B30070E900080E475F0011208EFEF02D6
:1000860008DD021AB87403D2078003E4C207F50834
:10009600900080120906E4F509F50BF50CE50960F8
:1000A600077F2012006980F5750AFFC201C200C2EF
:1000B60002C203C205C206C208120035FF700D3027
:1000C60007057F0012007AAF0CAE0B22B4255FC283
:1000D600D5C204120035FF24D0B40A00501A75F0B8
:1000E6000A780930D50508B6FF0106C6A426F6200B
:1000F600D5047002D20380D924CFB41A00EF50047D
:10010600C2E5D20402027BD20180C6D20080C0D2F0
:100116000280BCD2D580BAD20580B47F2012006995
:100126002002077401B5090040F1120026FF1200F3
:10013600690200A3D208D2068095120026FB12009F
:1001460026FA120026F94A4B7006794C7A037BFF91
:1001560020022EE509602A7E008E82758300120633
:10016600B860060EEE650A70F0C2D5EBC0E0EAC0D4
:10017600E0E9C0E0EE1202C2D0E0F9D0E0FAD0E049
:10018600FB12069FFF60AAEBC0E0EAC0E0E9C0E010
:10019600120069D0E02401F9D0E03400FAD0E0FB87
:1001A600E50A0460DCD50AD980877BFF7A0279BE2E
:1001B600D202809C791080027908C206C2088008A3
:1001C600D2D5790A8004790AC2D5E50A047002F507
:1001D6000AE4FAFDFEFF120026FC7B08200113123A
:1001E6000026FD7B1030000A120026FE120026FFB4
:1001F6007B20EC3382D592D55013C3E43000069FA2
:10020600FFE49EFEE42001039DFDE49CFCE4CBF8A4
:10021600C201EC700CCFCECDCCE824F8F870F38098
:1002260017C3EF33FFEE33FEED33FDEC33FCEB3358
:10023600FB994002FB0FD8E9EB300105F8D0E0C48A
:1002460048B201C0E00AEC4D4E4F78207B0070C2E8
:10025600EAB50A0040BCC0E01202C4D0F0D0E020EB
:100266000104C4C0E0C4B201C0F0120052D0F0D5FF
:10027600F0EB0200A312090F01405301BA58011115
:100286004C010D4201BE4F01C64401C64901264339
:0802960001CC5501B04601B096
:10029E004501B047036C5001152D01192E013C2B61
:1002AE00011D23013A2003552A00D54800000134D0
:1002BE003F3F3F00790AA2D5200314300509B9103B
:1002CE00020404B9080104A2D5200602500104203C
:1002DE0002689202B509005034C0E07F2030031945
:1002EE007F30A20272067205500F12031BC202C2A9
:1002FE0006C205C2087F30800F300503E9C0E01248
:10030E000069300503D0E0F9D0E0B509CC3005170F
:10031E007F30B9100C1200697F583004077F788047
:10032E0003B908031200693002057F2D0200697FB0
:10033E00202008F87F2B2006F322920280CF286E11
:10034E00756C6C2900D2011200263001F8C20178BA
:10035E000930D50108F60200D52D50434958120038
:10036E00262403B405004001E49003679312005A5B
:0D037E00743A12005AD2037509040201BA44
:1008DD00BB010689828A83F0225002F722BBFE01FA
:0208ED00F322F4
:1008EF00F8E0FBA3A3E0F925F0F0E5821582700292
:0708FF001583E0FA38F02236
:09090600EBF0A3EAF0A3E9F022F2
:10090F00D083D082F8E4937012740193700DA3A377
:10091F0093F8740193F5828883E47374029368608B
:06092F00EFA3A3A380DF8B
:101AB800EFB40A07740D121AC3740A309811A89962
:101AC800B8130CC2983098FDA899C298B811F6308E
:071AD80099FDC299F5992266
:00000001FF
