:03000000021EB02D
:0C1EB000787FE4F6D8FD758121021EF752
:0F281F006F75745B2562755D3D2562750D0A004E
:10190D001210D77FF47E01120003E4900024F090B2
:10191D000024E0C39410748094805019E0FF241AC1
:10192D00FE74042FF582E43400F583EEF09000246C
:10193D00E004F080DAE4900024F0900024E0FFC38E
:10194D00941074809480501474142FF582E4340034
:10195D00F583E4F0900024E004F080DE7B017A0052
:10196D0079009000297417F0A314F07D201223E85C
:10197D007B017A00790490002AE4F0A37410F0E45E
:10198D00FFFE1200267B017A00791490002AE4F004
:10199D00A37410F0E4FFFE120E36E4900024F090D4
:1019AD000024E0C394107480948050247BFF7A2827
:1019BD00791FE0900028F02414F582E43400F583BB
:1019CD00E0900029F0122186900024E004F080CFF1
:0219DD0080FE8A
:0727F800440158000000003D
:10000300EF4E601A900150E0FCA3E0FDED1D70017E
:0E0013001C144C70F7EF1F70011E144E70E6A7
:0100210022BC
:08280C0090009FE0FEA3E0FF35
:0A281400EF1FAC0670011E4C70F6B9
:01281E002297
:1027B700900150E0FCA3E0FD120DE9E47B83FAF9F8
:1027C700F8120C45900154120D86900154E0C31382
:0627D700FEA3E013FF2247
:10276400900153E06599600AE599F0E4900152F014
:102774008006900152E004F0900152E0C394E974A1
:0C27840080948040060075C760000022B1
:0B218600900025EBF0A3EAF0A3E9F0C5
:102191009000907401F0A37400F0A37428F09000F3
:1021A10025E0F9A3E0FAA3E09000A1C9F0A3EAF0C9
:1021B100A3E9F0900090E0F9A3E0FAA3E09000A475
:1021C100C9F0A3EAF0A3E9F07B017A007950122467
:1021D100D4900090E4F0A3F0A3F07B017A00795051
:0521E1007F0102266DE4
:101B7300EF14601614602C14604D14606C14700321
:101B8300021C0724056003021C2A90FE02E0547E17
:101B93004480F0E030E0F390FE00E054FCF090FE6F
:101BA30003807A90FE04E0547E4480F0E030E0F35A
:101BB30090FE00E054FC4403F090FE02E4F090FE3B
:101BC30008F090FE03F02290FE08E0547E4480F07B
:101BD300E030E0F390FE00E054FC4402F090FE0499
:101BE300E4F090FE02F0A3F02290FE03E0543E44A2
:101BF30080F0E030E0F390FE00E054FC4401F0900C
:101C0300FE02801990FE03E0543E44C0F0E030E051
:101C1300F390FE00E054FC4401F090FE02E4F090E7
:081C2300FE08F090FE04F0221F
:0C283C00EF90FE01700304F022EFF02288
:1010D70043BA80AF9FE4FCFDFEC004A905AA06AB96
:1010E7000778FBE6FFD000C3EF9BFFEE9AFEED9972
:1010F700FDEC98FCE47BF07AD2F9F8120C45C3E4D6
:101107009FFF74369EFE746E9DFD74019CFC9000DB
:1011170025120D86900025E0FCA3E0FDA3E0FEA3C9
:10112700E0FFC00790FE01E0FBE4FAF9F8D00712F0
:101137000CD0900025120D867FC07EF67D577C006F
:10114700900025E0F8A3E0F9A3E0FAA3E0FBC312BF
:101157000D62500D900158120D9200546000021359
:10116700067FC07E267D827C00900025E0F8A3E004
:10117700F9A3E0FAA3E0FBC3120D62500D900158EA
:10118700120D92005B8D800213067F807EED7DAF8E
:101197007C00900025E0F8A3E0F9A3E0FAA3E0FBC8
:1011A700C3120D62500D900158120D9200A8C00095
:1011B7000213067F807E2D7DE87C00900025E0F8F5
:1011C700A3E0F9A3E0FAA3E0FBC3120D62500D9070
:1011D7000158120D9200B71B000213067F807E365E
:1011E7007D257C01900025E0F8A3E0F9A3E0FAA3B0
:1011F700E0FBC3120D62500D900158120D920119B8
:1012070040000213067F807E567D417C01900025B9
:10121700E0F8A3E0F9A3E0FAA3E0FBC3120D6250E4
:101227000D900158120D9201312D000213067F0017
:101237007EDB7D5F7C01900025E0F8A3E0F9A3E069
:10124700FAA3E0FBC3120D62500D900158120D92E4
:10125700015180000213067F607E197D857C019015
:101267000025E0F8A3E0F9A3E0FAA3E0FBC3120D21
:1012770062500D900158120D92016E36000213064E
:101287007F207EE07DB27C01900025E0F8A3E0F9A5
:10129700A3E0FAA3E0FBC3120D62500C90015812B1
:1012A7000D92019BFCC080577FE07EA67DE07C010C
:1012B700900025E0F8A3E0F9A3E0FAA3E0FBC3124E
:1012C7000D62500C900158120D9201C9C380802FF6
:1012D7007F607E2B7DFF7C01900025E0F8A3E0F97D
:1012E700A3E0FAA3E0FBC3120D6290015850091264
:1012F7000D9201FA40008007120D9202160EC0E40B
:101307007B107A27F9F8900158E0FCA3E0FDA3E0F1
:10131700FEA3E0FF120CD0900150EEF0A3EFF0E433
:0D132700900153F0900152F01226A4D2AFB5
:011334002296
:0B1AAE0090002FEBF0A3EAF0A3E9F09A
:101AB9007F647E001227B790009FEEF0A3EFF090AD
:101AC900009C7401F0A37400F0A37432F090002F0D
:101AD900E0F9A3E0FAA3E09000A1C9F0A3EAF0A31A
:101AE900E9F090009CE0F9A3E0FAA3E09000A4C912
:101AF900F0A3EAF0A3E9F07B017A00795C1224D41F
:101B090090005AEEF0A3EFF090009CE4F0A3F0A34C
:101B1900F07FF47E01120003E4FBFAD390005BE04E
:101B29009B90005AE09A40E9D2B1C2B112280C74D4
:101B39005C2BF58274003AF583E0F9E4FDEDC3947A
:101B490008748094805014E930E004D2B18002C254
:101B5900B1E9C313F912280C0D80E2D2B112280C95
:0A1B690012280C0BBB00010A80B12A
:0B1CD50090015CEBF0A3EAF0A3E9F043
:101CE000E4FFFE900162F0A3F0A3F0A3F090015C8A
:101CF000E0FBA3E0FAA3E0F9120B386077900165EE
:101D0000E004F07006900164E004F090015FE0FBF5
:101D1000A3E0FAA3E0F98F828E83120B51FD9001AC
:101D20005CE0FBA3E0FAA3E0F9120B38B505070F5E
:101D3000BF00010E8012E4FEFF900164E0FDA3E00D
:101D4000900162CDF0A3EDF090015DE475F0011219
:101D50000C1990015FE0FBA3E0FAA3E0F98F828EFB
:101D600083120B51FD3395E04D7082900162E0FECD
:081D7000A3E0FF227EFF7FFFCC
:011D78002248
:10182500E490017BF090017DF090017CF090017CCB
:10183500E0C3940A748094804003021907E07E0097
:101845002DF582EE3CF583120B51FF3395E0FEC377
:10185500EF9430EE648094804052D3EF9437EE6479
:10186500809480504790017DE004F0E06401701998
:1018750090017CE07E002DF582EE3CF583120B5144
:1018850024D0C454F090017BF090017DE064027097
:101895001B90017CE07E002DF582EE3CF583120B5A
:1018A5005124D0FF90017BE04FFFF02290017CE0B6
:1018B5007E002DF582EE3CF583120B51FF3395E04A
:1018C500FEC3EF9438EE648094804011D3EF9439D1
:1018D500EE64809480500690017DE004F090017CD8
:1018E500E07E002DF582EE3CF583120B51FF642C52
:1018F5006010EF3395E04F600990017CE004F00241
:07190500183290017BE0FFA6
:01190C0022B8
:0819DF0090016CECF0A3EDF0A7
:1019E700E4A3F0A3F0A3F0900170E0FFC394147494
:1019F7008094804003021AA590016DE02FFF9001AB
:101A07006CE034008F82F583120B51FF3395E0FEB3
:101A1700C3EF9430EE648094804051D3EF9439EE55
:101A270064809480504690016EE0FEA3E0FF7C0046
:101A37007D0A120BB290016EEEF0A3EFF0A3E0FF68
:101A470090016DE02FFF90016CE034008F82F583E9
:101A5700120B51FF3395E0FEEF24D0FFEE34FFFE6B
:101A670090016FE02FF090016EE03EF0900170E082
:101A7700FF90016DE02FFF90016CE034008F82F53D
:101A870083120B51FF642C6015EF642E6010EF3347
:101A970095E04F6009900170E004F00219EE9001A3
:061AA7006EE0FEA3E0FF6B
:011AAD002216
:1014D70090013EEBF0A3EAF0A3E9F0A3ECF0A3ED53
:0114E700F014
:1014E800E490014AF0A3F0A3F0A3F0A3F0A3F090D6
:1014F8000148F0A3F0900141E0FEA3E0FF9001480D
:10150800E0FCA3E0FDC39FEC9E40030215A79001F9
:1015180043E0FBA3E0FAA3E0F990014AE0FEA3E070
:10152800F5828E83120B51FF90013EE0FBA3E0FA97
:10153800A3E0F98D828C83120B51B5073390014BD0
:10154800E004F0700690014AE004F0900146E0FEE5
:10155800A3E0FF90014AE0B50631A3E0B5072C905F
:101568000148E0FFA3E090014ECFF0A3EFF0802FF9
:10157800E490014AF0A3F0900149E02401FE9001B3
:1015880048E0340090014CF0A3CEF0900149E0040B
:10159800F060030214FD900148E004F00214FD908D
:1015A800014EE0FEA3E0FF90014CE0FCA3E0FDD378
:1015B8009FEC9E5044900148ECF0A3EDF090014E52
:1015C800E0FEA3E0FF900148E0FCA3E0FDC39FEC30
:1015D8009E502390013EE0FBA3E0FAA3E0F98D8240
:1015E8008C83E4120B90900149E004F070CF9001D5
:0B15F80048E004F080C77F01227F0064
:0116030022C4
:101335006770696F5F757070756C6C283C442530FB
:1013450032583E2C2564293BB2BBB4E6D4DAB8C387
:10135500494F0D0A006770696F5F757070756C6C29
:10136500283C44253032583E2C31293BB2BBB4E6EB
:10137500D4DAB8C3494F0D0A006770696F5F75709D
:1013850070756C6C283C44253032583E2C30293B16
:10139500B2BBB4E6D4DAB8C3494F0D0A0067706929
:1013A5006F5F6D6F6465283C44253032583E2C25AF
:1013B50064293BB2BBB4E6D4DAB8C3494F0D0A0081
:1013C5006770696F5F6D6F64652844253032582CEE
:1013D5003C25643E293BB2BBB4E6D4DAB8C3C4A30A
:1013E500CABD0D0A006770696F5F777269746528F9
:1013F5003C25643E2C2564293BB2BBB4E6D4DAB85F
:10140500C350BFDA0D0A006770696F5F726561646A
:10141500283C5025643E293BB2BBB4E6D4DAB8C3B8
:1014250050BFDA0D0A006770696F5F6F7574283CED
:1014350044253032583E2C2564293BB2BBB4E6D452
:10144500DAB8C3494F0D0A006770696F5F6F75742D
:10145500283C44253032583E2C31293BB2BBB4E6FA
:10146500D4DAB8C3494F0D0A006770696F5F6F75AD
:1014750074283C44253032583E2C30293BB2BBB44D
:10148500E6D4DAB8C3494F0D0A006770696F5F6922
:101495006E283C44253032583E293BB2BBB4E6D4D5
:1014A500DAB8C3494F0D0A006770696F5F746F67DB
:1014B500676C65283C44253032583E293BB2BBB4A5
:1014C500E6D4DAB8C3494F0D0A000102040810201A
:0214D500408055
:0A16040090002EEDF090002DEFF0A5
:10160E0064887003021715E0FF54F0F50DEF540FC8
:10161E00FF9014CF93F50ED3EF940774809480400F
:10162E00237BFF7A13793590002DE0FF900032E492
:10163E00F0A3EFF090002EE0FF900034E4F0A3EF63
:10164E00F0121AAE90002EE06055E50D24F06021E8
:10165E0024F0602224F0602324F0602424F060251E
:10166E0024F0602624F060272470702B90FE1080EA
:10167E002190FE11801C90FE12801790FE13801296
:10168E0090FE14800D90FE15800890FE168003903B
:10169E00FE17E0450EF0227BFF7A13795A8058E54B
:1016AE000D24F0602124F0602224F0602324F060E9
:1016BE002424F0602524F0602624F0602724707026
:1016CE003090FE10802190FE11801C90FE1280172B
:1016DE0090FE13801290FE14800D90FE15800890DF
:1016EE00FE16800390FE17E0FFE50EF4FEEF5EF0AF
:1016FE00227BFF7A13797E90002DE0FF900032E47A
:07170E00F0A3EFF0121AAE88
:0117150022B1
:0A08240090002EEDF090002DEFF093
:10082E0064887003020B37E0FF54F0F50DEF540FA0
:10083E00FF9014CF93F50ED3EF94077480948040FD
:10084E00237BFF7A1379A290002DE0FF900032E413
:10085E00F0A3EFF090002EE0FF900034E4F0A3EF51
:10086E00F0121AAEE50D24F0602124F0602224F07F
:10087E00602324F0602424F0602524F0602624F008
:10088E00602724707028E4F50D8046750D018041B7
:10089E00750D02803C750D038037750D0480327521
:1008AE000D05802D750D068028750D0780237BFFA5
:1008BE007A1379A290002DE0FF900032E4F0A3EFBE
:1008CE00F090002EE0FF900034E4F0A3EFF0121A47
:1008DE00AE90002EE0FFD3940374809480401C7B76
:1008EE00FF7A1379C590002DE0FD900032E4F0A35D
:1008FE00EDF0A3E4F0A3EFF0121AAEE50D70409008
:10090E00002EE0FF7E007007E50EF452935294EF36
:10091E0064014E7009E50E4293E50EF45294900078
:10092E002EE064027008E50E4293E50E42949000AC
:10093E002EE064037009E50EF45293E50E4294E541
:10094E000D6401704090002EE0FF7E007007E50EF2
:10095E00F452915292EF64014E7009E50E4291E508
:10096E000EF4529290002EE064027008E50E429151
:10097E00E50E429290002EE064037009E50EF452EB
:10098E0091E50E4292E50D6402704090002EE0FF5C
:10099E007E007007E50EF452955296EF64014E708C
:1009AE0009E50E4295E50EF4529690002EE0640293
:1009BE007008E50E4295E50E429690002EE0640317
:1009CE007009E50EF45295E50E4296E50D6403703E
:1009DE004090002EE0FF7E007007E50EF452B152FB
:1009EE00B2EF64014E7009E50E42B1E50EF452B25B
:1009FE0090002EE064027008E50E42B1E50E42B2A0
:100A0E0090002EE064037009E50EF452B1E50E423B
:100A1E00B2E50D6404704090002EE0FF7E0070077A
:100A2E00E50EF452B352B4EF64014E7009E50E4276
:100A3E00B3E50EF452B490002EE064027008E50E99
:100A4E0042B3E50E42B490002EE064037009E50E49
:100A5E00F452B3E50E42B4E50D6405704090002EDD
:100A6E00E0FF7E007007E50EF452C952CAEF640132
:100A7E004E7009E50E42C9E50EF452CA90002EE002
:100A8E0064027008E50E42C9E50E42CA90002EE0DF
:100A9E0064037009E50EF452C9E50E42CAE50D6411
:100AAE0006704090002EE0FF7E007007E50EF452B7
:100ABE00CB52CCEF64014E7009E50E42CBE50EF43D
:100ACE0052CC90002EE064027008E50E42CBE50E8B
:100ADE0042CC90002EE064037009E50EF452CBE593
:100AEE000E42CCE50D6407704090002EE0FF7E00B4
:100AFE007007E50EF452E152E2EF64014E7009E523
:100B0E000E42E1E50EF452E290002EE0640270080F
:100B1E00E50E42E1E50E42E290002EE0640370091C
:090B2E00E50EF452E1E50E42E28D
:010B3700229B
:1021E600EFB40900503A9021F3F828287302220E22
:1021F60002221102221402221702221A02221D02B0
:10220600222002222302223F8D80228D90228DA041
:10221600228DB0228DC0228DC8228DE8228DF82213
:102226007BFF7A1379EA900032E4F0A3EFF0AF0572
:0A223600A3E4F0A3EFF0121AAE22A9
:10224000EFB40900503D90224DF82828730222680F
:1022500002226B02226E0222710222740222770293
:10226000227A02227D022280AF8022AF9022AFA08C
:1022700022AFB022AFC022AFC822AFE822AFF8220F
:102280007FFF227BFF7A14790C900032E4F0A3EFF9
:07229000F0121AAE7FFF22DD
:0A17160090002EEDF090002DEFF092
:1017200064887003021824E0FF54F0F50DEF540FA5
:10173000FF9014CF93F50ED3EF94077480948040FC
:10174000237BFF7A14792B90002DE0FF900032E488
:10175000F0A3EFF090002EE0FF900034E4F0A3EF50
:10176000F0121AAE90002EE06052E50D24F06021D8
:1017700024F0602224F0602324F0602424F060250B
:1017800024F0602624F0602724707028E50E428043
:1017900022E50E429022E50E42A022E50E42B02242
:1017A000E50E42C022E50E42C822E50E42E822E5DF
:1017B0000E42F8227BFF7A14794D8058E50D24F013
:1017C000602224F0602424F0602624F0602824F0B5
:1017D000602A24F0602C24F0602E24707030E50E16
:1017E000F4528022E50EF4529022E50EF452A0222B
:1017F000E50EF452B022E50EF452C022E50EF4528A
:10180000C822E50EF452E822E50EF452F8227BFFDE
:101810007A14796E90002DE0FF900032E4F0A3EF8F
:04182000F0121AAEFA
:0118240022A1
:051C2B0090017EEFF0C6
:101C300064887002FF2290017EE0FF54F0F50DEF02
:101C4000540FFF9014CF93F50ED3EF940774809444
:101C50008040167BFF7A14798F90017EE0FF900020
:101C600032E4F0A3EFF0121AAEE50D24F060212467
:101C7000F0602224F0602324F0602424F060252406
:101C8000F0602624F060272470702885800F80394A
:101C900085900F803485A00F802F85B00F802A8516
:101CA000C00F802585C80F802085E80F801B85F830
:101CB0000F80167BFF7A14798F90017EE0FF9000F1
:101CC00032E4F0A3EFF0121AAEE50F550E60037F79
:041CD00001227F006E
:011CD40022ED
:051D790090017FEFF076
:101D7E0064887003021E15E0FF54F0F50DEF540F4A
:101D8E00FF9014CF93F50ED3EF9407748094804098
:101D9E00167BFF7A1479AD90017FE0FF900032E45C
:101DAE00F0A3EFF0121AAEE50D24F0602124F060DE
:101DBE002224F0602324F0602424F0602524F060B7
:101DCE002624F0602724707028E50E628022E50E2E
:101DDE00629022E50E62A022E50E62B022E50E624E
:101DEE00C022E50E62C822E50E62E822E50E62F818
:101DFE00227BFF7A1479AD90017FE0FF900032E4F0
:071E0E00F0A3EFF0121AAE81
:011E150022AA
:10256500EFB40800503E902572F828287302258A9A
:1025750002258E02259202259602259A02259E02A3
:1025850025A20225A6ED628022ED629022ED62A0D1
:1025950022ED62B022ED62C022ED62C822ED62E852
:0525A50022ED62F822A6
:101E1600A907EB6048E9B408004003021EAF901E14
:101E26002BF8282873021E43021E47021E4B021E71
:101E36004F021E53021E57021E5B021E5FED4280BA
:101E460022ED429022ED42A022ED42B022ED42C0A8
:101E560022ED42C822ED42E822ED42F822E9B4081A
:101E6600005046901E70F8282873021E88021E8DA8
:101E7600021E92021E97021E9C021EA1021EA602AE
:101E86001EABEDF4528022EDF4529022EDF452A0F6
:101E960022EDF452B022EDF452C022EDF452C822E3
:0A1EA600EDF452E822EDF452F822A8
:1022EE00EFB4090050459022FBF8282873022316FC
:1022FE0002231A02231E02232202232602232A026B
:10230E00232E022332022336AE80801FAE90801B16
:10231E00AEA08017AEB08013AEC0800FAEC8800BDB
:10232E00AEE88007AEF880037F0122EE5D60037F8A
:04233E0001227F00F9
:012342002278
:08284800303136371617434406
:1026A40075985053873F538EDEE4FD7F0112243822
:1026B40090002A120D920001C2007F011225AA4344
:1026C4008E4053890FC2ABC28FD28EC209D2AC22C4
:10243800900029EDF0EF147044900029E0FF54C09B
:10244800FEE5A2543F4EF5A2EFC41313540325E052
:102458002448F582E43428F583E493FFE4FD120868
:1024680024900029E0C41313540325E02449F5827D
:0E247800E43428F583E493FF7D031208242248
:0525AA00900029EFF094
:1025AF00E47B04FAF9F8900158E0FCA3E0FDA3E006
:1025BF00FEA3E0FF120CD090002AE0F8A3E0F9A3ED
:1025CF00E0FAA3E0FB120CD0C3E49FFFE49EFE9061
:0B25DF000029E01470058F8BEEF58DD5
:0125EA0022CE
:0E282E00EF147009AF058F99D2092009FD2221
:1027DD00EF147016EB6006D29BD29B8004C29BC295
:0B27ED009BAF058F99D2092009FD2247
:10266D00900093EBF0A3EAF0A3E9F0AE079000938E
:10267D00E0FBA3E0FAA3E0F9120B386019AF069066
:10268D000093A3E475F001120C2FA9F0FA120B3888
:07269D00FD12282E80D72258
:0E2120009000CFEFF0A3EBF0A3EAF0A3E9F0FC
:10212E0090013B7401F0A37400F0A374D3F09000FF
:10213E00D0E0F9A3E0FAA3E09000A1C9F0A3EAF081
:10214E00A3E9F090013BE0F9A3E0FAA3E09000A42C
:10215E00C9F0A3EAF0A3E9F07B017A0079FB12241F
:10216E00D490013BE4F0A3F0A3F09000CFE0FF7B0E
:08217E00017A0079FB02266DD5
:0300230002251E95
:10251E00C0E0C0F0C083C082C0D075D000C000C083
:10252E0001C002C003C004C005C006C00730980534
:10253E00C298122764309904C299C209D007D006F6
:10254E00D005D004D003D002D001D000D0D0D0829C
:07255E00D083D0F0D0E03281
:0827FF0041016B0041016A0079
:10239700900002120B51FF90016AE06F6042120B2E
:1023A70038FEC4540F900168F0EE540FFEF8740124
:1023B700088002C333D8FC900169F0900001120B2A
:1023C70051FEC4540F900166F0EE540FFEF87401ED
:1023D700088002C333D8FC900167F090016AEFF0E0
:0123E70022D3
:101F3C00900171EBF0A3EAF0A3E9F0A3EDF09001AE
:101F4C0071E0FBA3E0FAA3E0F9ED120B7E900175B2
:101F5C00E0FF900171E0FBA3E0FAA3E0F99000012F
:101F6C00EF120B90900174E0FF7D02120824900197
:101F7C0075E0FF7D02120824900174E0FF7D0112D0
:101F8C001604900175E0FF7D01121604900174E0B7
:101F9C00FF7D01121716900175E0FF7D01121716D7
:101FAC0090016BE004FFF0900171E0FBA3E0FAA359
:0C1FBC00E0F9900002EF120B9002239756
:1025EB0090016AE06F6039EDC4540F900168F0ED13
:1025FB00540FFEF87401088002C333D8FC900169B4
:10260B00F0EBC4540F900166F0EB540FFEF874011D
:10261B00088002C333D8FC900167F090016AEFF099
:01262B00228C
:0A23430090002CEDF090002BEFF05D
:10234D007D0212082490002CE0FF7D0212082490DB
:10235D00002BE0FF7D0112160490002CE0FF7D01A3
:10236D0012160490002BE0FF7D0112171690002C21
:10237D00E0FF7D0112171690016BE004F0FCFF9059
:0A238D00002BE0FDA3E0FB0225EBAE
:10229700900166E0FFA3E0FD7B01121E1690016826
:1022A700E0FFA3E0FD7B01121E16900166E0FFA38D
:1022B700E0FD1222EEEF70037FFF22900166E0FF40
:1022C700A3E0FD122565900166E0FFA3E0FD122261
:1022D700EEEF640170037FFF22900168E0FFA3E047
:0722E700FD1225657F0022B6
:1026D400900166E0FFA3E0FDE4FB121E1690016882
:1026E400E0FFA3E0FDE4FB121E16900168E0FFA3E7
:1026F400E0FD122565900166E0FFA3E0FD0225657B
:10270400900168E0FFA3E0FDE4FB121E1690016651
:10271400E0FFA3E0FDE4FB121E16900168E0FFA3B6
:10272400E0FD122565900168E0FFA3E0FD02256548
:10273400900168E0FFA3E0FDE4FB121E1690016621
:10274400E0FFA3E0FD7B01121E16900168E0FFA3E9
:10275400E0FD122565900168E0FFA3E0FD02256518
:10248600900168E0FFA3E0FDE4FB121E16900166D2
:10249600E0FFA3E0FD7B01121E16900168E0FFA39A
:1024A600E0FD122565900166E0FFA3E0FD1222EE35
:1024B600EF6401900168700BE0FFA3E0FD12256553
:0E24C6007FFF22E0FFA3E0FD1225657F0022CC
:051FC80090003CEFF069
:101FCD0090003EF090016630E709E0FFA3E0FD7B55
:101FDD00018007E0FFA3E0FDE4FB121E16900168EF
:101FED00E0FFA3E0FDE4FB121E16E490003DF0902F
:101FFD00003DE0C3940874809480504490003CE010
:10200D00FF90003EE06F30E70B900166E0FFA3E02C
:10201D00FD122565900168E0FFA3E0FD1225659096
:10202D00003CE090003EF025E090003CF09001680F
:10203D00E0FFA3E0FD12256590003DE004F080AFC8
:01204D002270
:1020B800E490003AF0900166E0FFA3E0FD7B011296
:1020C8001E16E4900039F0900039E0C3940874803B
:1020D8009480503EA3E025E0F0900168E0FFA3E083
:1020E800FD7B01121E16900166E0FFA3E0FD12229F
:1020F800EEEF6401700790003AE04401F090016847
:10210800E0FFA3E0FDE4FB121E16900039E004F0A6
:0721180080B590003AE0FFE2
:01211F00229D
:0B204E00900176EBF0A3EAF0A3E9F0AC
:10205900E490017AF0900179F0900179E0C39480DD
:10206900748094805043122297900179E025E0FF13
:10207900121FC8122486EF7025900179E025E0FF30
:10208900900176E0FBA3E0FAA3E0F990017AE0F58C
:1020990082758300EF120B9090017AE004F012260A
:0E20A900D4900179E004F080B090017AE0FF5D
:0120B7002206
:04280700410180000B
:10262C0090002BEBF0A3EAF0A3E9F090002BE0FB79
:10263C00A3E0FAA3E0F9900001120B51FF90000205
:10264C00120B51FD900003120B51FB1225EB900065
:10265C002BE0FBA3E0FAA3E0F9120B38900180F019
:01266C00224B
:1023E800900025EBF0A3EAF0A3E9F0900029E0FFC4
:1023F800900025E0FBA3E0FAA3E0F9900002EF12B9
:102408000B9090002AE0900003120B90ED120B7EC7
:10241800900029E0FFA3E0FD122343900025E0FB94
:10242800A3E0FAA3E0F9900001EF120B9002262C2A
:10002600900025EEF0A3EFF0A3EBF0A3EAF0A3E92E
:01003600F0D9
:10003700900180E0FB54F0120DC3006600006910C8
:1000470000852000973000AE4000C85000E46000F3
:10005700F07000FC800108900114A0000001307FBF
:100067000122900030120D9200000080EB5407240B
:100077005090003BF090003A7408F0020130900075
:1000870030120D9200000100900180E05407803F7C
:10009700900030120D9200000200900025E0FF90C2
:1000A7000180E054068015900030120D9200000484
:1000B70000900025E0FF900180E0540424502F8039
:1000C70010900030120D9200000800900025E024E7
:1000D7005090003BF090003A7410F0804C90003044
:1000E700120D9200001000802E900030120D920029
:1000F7000020008022900030120D92000040008006
:1001070016900030120D9200008000800A90003097
:10011700120D9200010000900180E05407245090D6
:10012700003BF090003A7420F0900025E0FEA3E039
:10013700FFE4FCFD900030E0F8A3E0F9A3E0FAA3A8
:10014700E0FBC3120D6250037F042290002AE0FEF9
:10015700A3E0FBAA06900025E0FEA3E0FFEF2BFF3C
:10016700EE3AFEE433FDE433FC900030E0F8A3E020
:10017700F9A3E0FAA3E0FBC3120D62502890002513
:10018700E0FEA3E0FBAA06900030E0FCA3E0FDA39D
:10019700E0FEA3E0C39BFFEE9AFEED9400FDEC9416
:1001A70000FCA3800E90002AE0FEA3E0FFE4FCFD24
:1001B700900034120D8690003AE0FD7C00900025F7
:1001C700E0FEA3E0FF120BC4900038EEF0A3EFF0BF
:1001D70012229790003BE025E0FF121FC8122486E9
:1001E700EF600302042990003AE064207011900048
:1001F70025E0FF121FC8122486EF6003020429902E
:100207000026E0FF121FC8122486EF6003020429AC
:1002170090002C120D9200000000900034E0FCA327
:10022700E0FDA3E0FEA3E0FF90002CE0F8A3E0F9D7
:10023700A3E0FAA3E0FBC3120D62400302047D9022
:100247000025E0FEA3E0FFE4FCFD90002CE0F8A30E
:10025700A3A3E02FFFEA3EFEED39FDEC38FCC00713
:1002670090003AE0FBE4FAF9F8D007120CD0A804A2
:10027700A905AA06AB07900038E0FEA3E0FFE4FC5F
:10028700FDC3120D62700302042F900025E0FEA348
:10029700E0FFE4FCFD90002CE0F8A3E0F9A3E0FA0E
:1002A700A3E02FFFEA3EFEED39FDEC38FCC00790D6
:1002B700003AE0FBE4FAF9F8D007120CD0900038C6
:1002C700EEF0A3EFF01226D4900180E0FF54F01275
:1002D7000DC302FB1003952002FF30032F4003627A
:1002E700500395600395700395800395900395A03F
:1002F700000003A1EF02038F900025E0FEA3E0FFBB
:10030700E4FCFD90002CE0F8A3E0F9A3E0FAA3E0F9
:100317002FFFEA3EFEED39FDEC38FC7808120D732D
:10032700900180E05406802E900025E0FEA3E0FFB8
:10033700E4FCFD90002CE0F8A3E0F9A3E0FAA3E0C9
:100347002FFFEA3EFEED39FDEC38FC7808120D73FD
:10035700900180E0540424502F803B900025E0FE5C
:10036700A3E0FFE4FCFD90002CE0F8A3E0F9A3E094
:10037700FAA3E02FFFEA3EFEED39FDEC38FC7808E2
:10038700120D73EF2450800E5407245080089001FB
:1003970080E05407245090003BF07F0A7E00120053
:1003A7000312229790003BE025E0FF121FC812249A
:1003B70086EF6002806C90003AE06420703790000E
:1003C70025E0FEA3E0FFE4FCFD90002CE0F8A3E0AD
:1003D700F9A3E0FAA3E02FFFEA3EFEED39FDEC3882
:1003E700FCE4FB7A01F9F8120CD0121FC81224861C
:1003F700EF6002802D900025E0FEA3E0FFE4FCFD06
:1004070090002CE0F8A3E0F9A3E0FAA3E02FFFEABD
:100417003EFEED39FDEC38FCE4121FC8122486EFCE
:1004270060061226D47F022290002CA3A3E0FEA32D
:10043700E0FF900027E0FBA3E0FAA3E0F98F828EAC
:1004470083120B51FF121FC8122486EF6006122673
:10045700D47F032290002CE0FCA3E0FDA3E0FEA3E1
:10046700E02401FFE43EFEE43DFDE43CFC90002C6B
:10047700120D860202211226D47F0A7E0012000383
:1004870090002AE0FEA3E0FBAA06900025E0FEA369
:10049700E0FFEF2BFFEE3AFEE433FDE433FC900080
:1004A70030E0F8A3E0F9A3E0FAA3E0FBC3120D6282
:0704B70050037F05227F00C6
:0104BE00221B
:100E3600900025EEF0A3EFF0A3EBF0A3EAF0A3E910
:010E4600F0BB
:100E4700900180E0FB54F0120DC30E76000E79106E
:100E57000E86200E96300EAD400EC7500ED9600E8E
:100E6700ED700F01800F15900F29A000000F3F7F35
:100E77000122900030120D9200000080EB806190FB
:100E87000030120D9200000100900180E080519027
:100E97000030120D9200000200900025E0FF900143
:100EA70080E054068015900030120D920000040077
:100EB700900025E0FF900180E0540424502F8074B7
:100EC700900030120D9200000800900025E0245099
:100ED7008062900030120D9200001000900180E0B7
:100EE70054072450804E900030120D9200002000CD
:100EF700900180E054072450803A900030120D9200
:100F070000004000900180E05407245080269000A4
:100F170030120D9200008000900180E054072450A9
:100F27008012900030120D9200010000900180E0C5
:100F370054072450900038F0900025E0FEA3E0FF0E
:100F4700E4FCFD900030E0F8A3E0F9A3E0FAA3E0A9
:100F5700FBC3120D6250037F042290002AE0FEA318
:100F6700E0FBAA06900025E0FEA3E0FFEF2BFFEED3
:100F77003AFEE433FDE433FC900030E0F8A3E0F9F7
:100F8700A3E0FAA3E0FBC3120D625028900025E00E
:100F9700FEA3E0FBAA06900030E0FCA3E0FDA3E07F
:100FA700FEA3E0C39BFFEE9AFEED9400FDEC9400D8
:100FB700FCA3800E90002AE0FEA3E0FFE4FCFD9076
:100FC7000034120D86122297900038E025E0FF12B8
:100FD7001FC8122486EF60028038E4FF7E08FDFCFC
:100FE700900030E0F8A3E0F9A3E0FAA3E0FBD31206
:100FF7000D624010900025E0FF121FC8122486EFF3
:101007006002800E900026E0FF121FC8122486EFB0
:1010170060061226D47F0222122297900038E0251C
:10102700E004FF121FC890002C120D920000000070
:10103700900034E0FCA3E0FDA3E0FEA3E0FF9000F6
:101047002CE0F8A3E0F9A3E0FAA3E0FBC3120D62DA
:1010570050471227041220B8C00790002CA3A3E022
:10106700FEA3E0FF900027E0FBA3E0FAA3E0F98FDF
:10107700828E83D0E0120B9090002CE0FCA3E0FD61
:10108700A3E0FEA3E02401FFE43EFEE43DFDE43CD3
:10109700FC90002C120D8680971227341226D490CC
:1010A700002AE0FEA3E0FF900026E02FFF90002536
:1010B700E03EFEE4FCFD900030E0F8A3E0F9A3E099
:0F10C700FAA3E0FBC3120D6250037F05227F00E6
:0110D60022F7
:101EBC0002190DE493A3F8E493A34003F68001F216
:101ECC0008DFF48029E493A3F85407240CC8C33327
:101EDC00C4540F4420C8834004F456800146F6DFF6
:101EEC00E4800B01020408102040809027F8E47E67
:101EFC00019360BCA3FF543F30E509541FFEE493EB
:101F0C00A360010ECF54C025E060A840B8E493A3B1
:101F1C00FAE493A3F8E493A3C8C582C8CAC583CADC
:101F2C00F0A3C8C582C8CAC583CADFE9DEE780BE94
:01280B0000CC
:100B3800BB010689828A83E0225002E722BBFE02BB
:090B4800E32289828A83E49322EE
:100B5100BB010CE58229F582E5833AF583E0225059
:100B610006E92582F8E622BBFE06E92582F8E222A3
:0D0B7100E58229F582E5833AF583E49322BD
:100B7E00BB010689828A83F0225002F722BBFE0156
:020B8E00F32250
:100B9000F8BB010DE58229F582E5833AF583E8F09B
:100BA000225006E92582C8F622BBFE05E92582C847
:020BB000F2222F
:100BB200EF8DF0A4A8F0CF8CF0A428CE8DF0A42E57
:020BC200FE2211
:100BC400BC000BBE0029EF8DF084FFADF022E4CC15
:100BD400F875F008EF2FFFEE33FEEC33FCEE9DECDE
:100BE400984005FCEE9DFE0FD5F0E9E4CEFD22ED24
:100BF400F8F5F0EE8420D21CFEADF075F008EF2F6E
:100C0400FFED33FD4007985006D5F0F222C398FD5E
:050C14000FD5F0EA22FB
:100C1900C5F0F8A3E028F0C5F0F8E5821582700266
:060C29001583E038F02203
:100C2F00A3F8E0C5F025F0F0E58215827002158378
:060C3F00E0C838F0E822D5
:100C4500E88FF0A4CC8BF0A42CFCE98EF0A42CFC4E
:100C55008AF0EDA42CFCEA8EF0A4CDA8F08BF0A4CC
:100C65002DCC3825F0FDE98FF0A42CCD35F0FCEB2B
:100C75008EF0A4FEA9F0EB8FF0A4CFC5F02ECD39F0
:0F0C8500FEE43CFCEAA42DCE35F0FDE43CFC225D
:100C940075F008758200EF2FFFEE33FECD33CDCC17
:100CA40033CCC58233C5829BED9AEC99E58298409A
:100CB4000CF582EE9BFEED9AFDEC99FC0FD5F0D677
:100CC400E4CEFBE4CDFAE4CCF9A88222B800C1B9A1
:100CD4000059BA002DEC8BF084CFCECDFCE5F0CBDF
:100CE400F97818EF2FFFEE33FEED33FDEC33FCEB18
:100CF40033FB10D703994004EB99FB0FD8E5E4F9D3
:100D0400FA227818EF2FFFEE33FEED33FDEC33FCBF
:100D1400C933C910D7059BE99A4007EC9BFCE99AB3
:100D2400F90FD8E0E4C9FAE4CCFB2275F010EF2FF8
:100D3400FFEE33FEED33FDCC33CCC833C810D707F8
:100D44009BEC9AE899400AED9BFDEC9AFCE899F833
:0E0D54000FD5F0DAE4CDFBE4CCFAE4C8F922C6
:100D6200EB9FF5F0EA9E42F0E99D42F0E89C45F0E7
:010D7200225E
:100D7300E8600FECC313FCED13FDEE13FEEF13FF5E
:030D8300D8F12282
:0C0D8600ECF0A3EDF0A3EEF0A3EFF022E0
:100D9200A8828583F0D083D082120DA9120DA912E8
:100DA2000DA9120DA9E473E493A3C583C5F0C5830D
:100DB200C8C582C8F0A3C583C5F0C583C8C582C8AB
:010DC200220E
:100DC300D083D082F8E4937012740193700DA3A3BF
:100DD30093F8740193F5828883E4737402936860D3
:060DE300EFA3A3A380DFD3
:100DE900EC8EF0A4CCC5F0CCCDF8EFA4CEC5F02D97
:100DF900FDE43CFCE8A42EC8C5F03DFDE43CFCEF55
:0D0E0900A4FFE5F028FEE43DFDE43CFC22E2
:1024D4009000A1E0FFA3E0FEA3E0CF9000AAF0A348
:1024E400EEF0A3EFF09000A4E0CBF0A3E0CAF0A3D9
:1024F400E0C9F07F229000ADAD82AC83120B388D21
:10250400828C83F0A309E970010ADFEC9000A4E057
:0A251400FBA3E0FAA3E0F90205249E
:1004BF00E50824AAF582E43400F583E005082290CC
:1004CF0000A73007039000AAE475F001120E160280
:1004DF000B382000E97F2ED2008018EF540F2490A4
:1004EF00D43440D4FF30040BEF24BFB41A005003B0
:1004FF002461FFE50960021509050CE50C70020582
:10050F000B30070E9000A7E475F001120E16EF02E4
:10051F000B7E0227907403D2078003E4C207F5080D
:10052F009000A7120E2DE4F509F50BF50CE5096007
:10053F00077F2012050280F5750AFFC201C200C2B3
:10054F0002C203C205C206C2081204CEFF700D30EC
:10055F0007057F00120513AF0CAE0B22B4255FC247
:10056F00D5C2041204CEFF24D0B40A00501A75F07D
:10057F000A780930D50508B6FF0106C6A426F6206D
:10058F00D5047002D20380D924CFB41A00EF5004DF
:10059F00C2E5D204020714D20180C6D20080C0D2B5
:1005AF000280BCD2D580BAD20580B47F201205025A
:1005BF002002077401B5090040F11204BFFF1205B4
:1005CF000202053CD208D20680951204BFFB12042A
:1005DF00BFFA1204BFF94A4B700679E57A077BFF21
:1005EF0020022EE509602A7E008E82758300120B91
:1005FF005160060EEE650A70F0C2D5EBC0E0EAC09E
:10060F00E0E9C0E0EE12075BD0E0F9D0E0FAD0E00D
:10061F00FB120B38FF60AAEBC0E0EAC0E0E9C0E0D4
:10062F00120502D0E02401F9D0E03400FAD0E0FB4B
:10063F00E50A0460DCD50AD980877BFF7A077957F2
:10064F00D202809C791080027908C206C208800805
:10065F00D2D5790A8004790AC2D5E50A047002F569
:10066F000AE4FAFDFEFF1204BFFC7B0820011312FF
:10067F0004BFFD7B1030000A1204BFFE1204BFFF3F
:10068F007B20EC3382D592D55013C3E43000069F04
:10069F00FFE49EFEE42001039DFDE49CFCE4CBF807
:1006AF00C201EC700CCFCECDCCE824F8F870F380FB
:1006BF0017C3EF33FFEE33FEED33FDEC33FCEB33BB
:1006CF00FB994002FB0FD8E9EB300105F8D0E0C4ED
:1006DF0048B201C0E00AEC4D4E4F78207B0070C24B
:1006EF00EAB50A0040BCC0E012075DD0F0D0E020B0
:1006FF000104C4C0E0C4B201C0F01204EBD0F0D5C5
:10070F00F0EB02053C120DC305D95306535805AA49
:10071F004C05A64206574F065F44065F4905BF4387
:08072F0006655506494606491E
:100737004506494708055005AE2D05B22E05D52BB0
:1007470005B62305D32007EE2A056E48000005CD20
:100757003F3F3F00790AA2D5200314300509B9109D
:10076700020404B9080104A2D5200602500104209E
:1007770002689202B509005034C0E07F20300319A7
:100787007F30A20272067205500F1207B4C202C26E
:1007970006C205C2087F30800F300503E9C0E012AA
:1007A7000502300503D0E0F9D0E0B509CC300517D4
:1007B7007F30B9100C1205027F583004077F78800C
:1007C70003B908031205023002057F2D0205027FD7
:1007D700202008F87F2B2006F322920280CF286E74
:1007E700756C6C2900D2011204BF3001F8C2017880
:1007F7000930D50108F602056E2D504349581204F9
:10080700BF2403B405004001E4900800931204F3E9
:0D081700743A1204F3D2037509040206536B
:100E1600F8E0FBA3A3E0F925F0F0E5821582700265
:070E26001583E0FA38F02209
:090E2D00EBF0A3EAF0A3E9F022C6
:10279000EFB40A07740D12279B740A309811A89998
:1027A000B8130CC2983098FDA899C298B811F630A9
:0727B00099FDC299F5992281
:00000001FF
